{
	"SmartContract/PaymentEscrow/PaymentEscrow.sol": {
		"Escrow": {
			"abi": [
				{
					"inputs": [
						{
							"internalType": "address payable",
							"name": "_receiver",
							"type": "address"
						}
					],
					"stateMutability": "nonpayable",
					"type": "constructor"
				},
				{
					"anonymous": false,
					"inputs": [
						{
							"indexed": true,
							"internalType": "address",
							"name": "from",
							"type": "address"
						},
						{
							"indexed": false,
							"internalType": "uint256",
							"name": "value",
							"type": "uint256"
						}
					],
					"name": "Deposited",
					"type": "event"
				},
				{
					"anonymous": false,
					"inputs": [
						{
							"indexed": true,
							"internalType": "address",
							"name": "oldReceiver",
							"type": "address"
						},
						{
							"indexed": true,
							"internalType": "address",
							"name": "newReceiver",
							"type": "address"
						}
					],
					"name": "ReceiverChanged",
					"type": "event"
				},
				{
					"anonymous": false,
					"inputs": [
						{
							"indexed": true,
							"internalType": "address",
							"name": "to",
							"type": "address"
						},
						{
							"indexed": false,
							"internalType": "uint256",
							"name": "value",
							"type": "uint256"
						}
					],
					"name": "Refunded",
					"type": "event"
				},
				{
					"anonymous": false,
					"inputs": [
						{
							"indexed": true,
							"internalType": "address",
							"name": "to",
							"type": "address"
						},
						{
							"indexed": false,
							"internalType": "uint256",
							"name": "value",
							"type": "uint256"
						}
					],
					"name": "Released",
					"type": "event"
				},
				{
					"stateMutability": "payable",
					"type": "fallback"
				},
				{
					"inputs": [],
					"name": "amount",
					"outputs": [
						{
							"internalType": "uint256",
							"name": "",
							"type": "uint256"
						}
					],
					"stateMutability": "view",
					"type": "function"
				},
				{
					"inputs": [
						{
							"internalType": "address payable",
							"name": "_new",
							"type": "address"
						}
					],
					"name": "changeReceiver",
					"outputs": [],
					"stateMutability": "nonpayable",
					"type": "function"
				},
				{
					"inputs": [],
					"name": "contractBalance",
					"outputs": [
						{
							"internalType": "uint256",
							"name": "",
							"type": "uint256"
						}
					],
					"stateMutability": "view",
					"type": "function"
				},
				{
					"inputs": [],
					"name": "deposit",
					"outputs": [],
					"stateMutability": "payable",
					"type": "function"
				},
				{
					"inputs": [],
					"name": "funded",
					"outputs": [
						{
							"internalType": "bool",
							"name": "",
							"type": "bool"
						}
					],
					"stateMutability": "view",
					"type": "function"
				},
				{
					"inputs": [],
					"name": "owner",
					"outputs": [
						{
							"internalType": "address payable",
							"name": "",
							"type": "address"
						}
					],
					"stateMutability": "view",
					"type": "function"
				},
				{
					"inputs": [],
					"name": "receiver",
					"outputs": [
						{
							"internalType": "address payable",
							"name": "",
							"type": "address"
						}
					],
					"stateMutability": "view",
					"type": "function"
				},
				{
					"inputs": [],
					"name": "refund",
					"outputs": [],
					"stateMutability": "nonpayable",
					"type": "function"
				},
				{
					"inputs": [],
					"name": "release",
					"outputs": [],
					"stateMutability": "nonpayable",
					"type": "function"
				},
				{
					"stateMutability": "payable",
					"type": "receive"
				}
			],
			"devdoc": {
				"kind": "dev",
				"methods": {},
				"title": "Simple Escrow (beginner-friendly)",
				"version": 1
			},
			"evm": {
				"assembly": "    /* \"SmartContract/PaymentEscrow/PaymentEscrow.sol\":202:2929  contract Escrow {... */\n  mstore(0x40, 0x80)\n    /* \"SmartContract/PaymentEscrow/PaymentEscrow.sol\":923:1106  constructor(address payable _receiver) {... */\n  callvalue\n  dup1\n  iszero\n  tag_1\n  jumpi\n  0x00\n  dup1\n  revert\ntag_1:\n  pop\n  mload(0x40)\n  sub(codesize, bytecodeSize)\n  dup1\n  bytecodeSize\n  dup4\n  codecopy\n  dup2\n  dup2\n  add\n  0x40\n  mstore\n  dup2\n  add\n  swap1\n  tag_2\n  swap2\n  swap1\n  tag_3\n  jump\t// in\ntag_2:\n    /* \"SmartContract/PaymentEscrow/PaymentEscrow.sol\":1001:1002  0 */\n  0x00\n    /* \"SmartContract/PaymentEscrow/PaymentEscrow.sol\":980:1003  _receiver != address(0) */\n  0xffffffffffffffffffffffffffffffffffffffff\n  and\n    /* \"SmartContract/PaymentEscrow/PaymentEscrow.sol\":980:989  _receiver */\n  dup2\n    /* \"SmartContract/PaymentEscrow/PaymentEscrow.sol\":980:1003  _receiver != address(0) */\n  0xffffffffffffffffffffffffffffffffffffffff\n  and\n  sub\n    /* \"SmartContract/PaymentEscrow/PaymentEscrow.sol\":972:1032  require(_receiver != address(0), \"Receiver is zero address\") */\n  tag_6\n  jumpi\n  mload(0x40)\n  0x08c379a000000000000000000000000000000000000000000000000000000000\n  dup2\n  mstore\n  0x04\n  add\n  tag_7\n  swap1\n  tag_8\n  jump\t// in\ntag_7:\n  mload(0x40)\n  dup1\n  swap2\n  sub\n  swap1\n  revert\ntag_6:\n    /* \"SmartContract/PaymentEscrow/PaymentEscrow.sol\":1058:1068  msg.sender */\n  caller\n    /* \"SmartContract/PaymentEscrow/PaymentEscrow.sol\":1042:1047  owner */\n  0x00\n  dup1\n    /* \"SmartContract/PaymentEscrow/PaymentEscrow.sol\":1042:1069  owner = payable(msg.sender) */\n  0x0100\n  exp\n  dup2\n  sload\n  dup2\n  0xffffffffffffffffffffffffffffffffffffffff\n  mul\n  not\n  and\n  swap1\n  dup4\n  0xffffffffffffffffffffffffffffffffffffffff\n  and\n  mul\n  or\n  swap1\n  sstore\n  pop\n    /* \"SmartContract/PaymentEscrow/PaymentEscrow.sol\":1090:1099  _receiver */\n  dup1\n    /* \"SmartContract/PaymentEscrow/PaymentEscrow.sol\":1079:1087  receiver */\n  0x01\n  0x00\n    /* \"SmartContract/PaymentEscrow/PaymentEscrow.sol\":1079:1099  receiver = _receiver */\n  0x0100\n  exp\n  dup2\n  sload\n  dup2\n  0xffffffffffffffffffffffffffffffffffffffff\n  mul\n  not\n  and\n  swap1\n  dup4\n  0xffffffffffffffffffffffffffffffffffffffff\n  and\n  mul\n  or\n  swap1\n  sstore\n  pop\n    /* \"SmartContract/PaymentEscrow/PaymentEscrow.sol\":923:1106  constructor(address payable _receiver) {... */\n  pop\n    /* \"SmartContract/PaymentEscrow/PaymentEscrow.sol\":202:2929  contract Escrow {... */\n  jump(tag_9)\n    /* \"#utility.yul\":88:205   */\ntag_11:\n    /* \"#utility.yul\":197:198   */\n  0x00\n    /* \"#utility.yul\":194:195   */\n  dup1\n    /* \"#utility.yul\":187:199   */\n  revert\n    /* \"#utility.yul\":334:460   */\ntag_13:\n    /* \"#utility.yul\":371:378   */\n  0x00\n    /* \"#utility.yul\":411:453   */\n  0xffffffffffffffffffffffffffffffffffffffff\n    /* \"#utility.yul\":404:409   */\n  dup3\n    /* \"#utility.yul\":400:454   */\n  and\n    /* \"#utility.yul\":389:454   */\n  swap1\n  pop\n    /* \"#utility.yul\":334:460   */\n  swap2\n  swap1\n  pop\n  jump\t// out\n    /* \"#utility.yul\":466:570   */\ntag_14:\n    /* \"#utility.yul\":511:518   */\n  0x00\n    /* \"#utility.yul\":540:564   */\n  tag_26\n    /* \"#utility.yul\":558:563   */\n  dup3\n    /* \"#utility.yul\":540:564   */\n  tag_13\n  jump\t// in\ntag_26:\n    /* \"#utility.yul\":529:564   */\n  swap1\n  pop\n    /* \"#utility.yul\":466:570   */\n  swap2\n  swap1\n  pop\n  jump\t// out\n    /* \"#utility.yul\":576:714   */\ntag_15:\n    /* \"#utility.yul\":657:689   */\n  tag_28\n    /* \"#utility.yul\":683:688   */\n  dup2\n    /* \"#utility.yul\":657:689   */\n  tag_14\n  jump\t// in\ntag_28:\n    /* \"#utility.yul\":650:655   */\n  dup2\n    /* \"#utility.yul\":647:690   */\n  eq\n    /* \"#utility.yul\":637:708   */\n  tag_29\n  jumpi\n    /* \"#utility.yul\":704:705   */\n  0x00\n    /* \"#utility.yul\":701:702   */\n  dup1\n    /* \"#utility.yul\":694:706   */\n  revert\n    /* \"#utility.yul\":637:708   */\ntag_29:\n    /* \"#utility.yul\":576:714   */\n  pop\n  jump\t// out\n    /* \"#utility.yul\":720:879   */\ntag_16:\n    /* \"#utility.yul\":785:790   */\n  0x00\n    /* \"#utility.yul\":816:822   */\n  dup2\n    /* \"#utility.yul\":810:823   */\n  mload\n    /* \"#utility.yul\":801:823   */\n  swap1\n  pop\n    /* \"#utility.yul\":832:873   */\n  tag_31\n    /* \"#utility.yul\":867:872   */\n  dup2\n    /* \"#utility.yul\":832:873   */\n  tag_15\n  jump\t// in\ntag_31:\n    /* \"#utility.yul\":720:879   */\n  swap3\n  swap2\n  pop\n  pop\n  jump\t// out\n    /* \"#utility.yul\":885:1252   */\ntag_3:\n    /* \"#utility.yul\":963:969   */\n  0x00\n    /* \"#utility.yul\":1012:1014   */\n  0x20\n    /* \"#utility.yul\":1000:1009   */\n  dup3\n    /* \"#utility.yul\":991:998   */\n  dup5\n    /* \"#utility.yul\":987:1010   */\n  sub\n    /* \"#utility.yul\":983:1015   */\n  slt\n    /* \"#utility.yul\":980:1099   */\n  iszero\n  tag_33\n  jumpi\n    /* \"#utility.yul\":1018:1097   */\n  tag_34\n  tag_11\n  jump\t// in\ntag_34:\n    /* \"#utility.yul\":980:1099   */\ntag_33:\n    /* \"#utility.yul\":1138:1139   */\n  0x00\n    /* \"#utility.yul\":1163:1235   */\n  tag_35\n    /* \"#utility.yul\":1227:1234   */\n  dup5\n    /* \"#utility.yul\":1218:1224   */\n  dup3\n    /* \"#utility.yul\":1207:1216   */\n  dup6\n    /* \"#utility.yul\":1203:1225   */\n  add\n    /* \"#utility.yul\":1163:1235   */\n  tag_16\n  jump\t// in\ntag_35:\n    /* \"#utility.yul\":1153:1235   */\n  swap2\n  pop\n    /* \"#utility.yul\":1109:1245   */\n  pop\n    /* \"#utility.yul\":885:1252   */\n  swap3\n  swap2\n  pop\n  pop\n  jump\t// out\n    /* \"#utility.yul\":1258:1427   */\ntag_17:\n    /* \"#utility.yul\":1342:1353   */\n  0x00\n    /* \"#utility.yul\":1376:1382   */\n  dup3\n    /* \"#utility.yul\":1371:1374   */\n  dup3\n    /* \"#utility.yul\":1364:1383   */\n  mstore\n    /* \"#utility.yul\":1416:1420   */\n  0x20\n    /* \"#utility.yul\":1411:1414   */\n  dup3\n    /* \"#utility.yul\":1407:1421   */\n  add\n    /* \"#utility.yul\":1392:1421   */\n  swap1\n  pop\n    /* \"#utility.yul\":1258:1427   */\n  swap3\n  swap2\n  pop\n  pop\n  jump\t// out\n    /* \"#utility.yul\":1433:1607   */\ntag_18:\n    /* \"#utility.yul\":1573:1599   */\n  0x5265636569766572206973207a65726f20616464726573730000000000000000\n    /* \"#utility.yul\":1569:1570   */\n  0x00\n    /* \"#utility.yul\":1561:1567   */\n  dup3\n    /* \"#utility.yul\":1557:1571   */\n  add\n    /* \"#utility.yul\":1550:1600   */\n  mstore\n    /* \"#utility.yul\":1433:1607   */\n  pop\n  jump\t// out\n    /* \"#utility.yul\":1613:1979   */\ntag_19:\n    /* \"#utility.yul\":1755:1758   */\n  0x00\n    /* \"#utility.yul\":1776:1843   */\n  tag_39\n    /* \"#utility.yul\":1840:1842   */\n  0x18\n    /* \"#utility.yul\":1835:1838   */\n  dup4\n    /* \"#utility.yul\":1776:1843   */\n  tag_17\n  jump\t// in\ntag_39:\n    /* \"#utility.yul\":1769:1843   */\n  swap2\n  pop\n    /* \"#utility.yul\":1852:1945   */\n  tag_40\n    /* \"#utility.yul\":1941:1944   */\n  dup3\n    /* \"#utility.yul\":1852:1945   */\n  tag_18\n  jump\t// in\ntag_40:\n    /* \"#utility.yul\":1970:1972   */\n  0x20\n    /* \"#utility.yul\":1965:1968   */\n  dup3\n    /* \"#utility.yul\":1961:1973   */\n  add\n    /* \"#utility.yul\":1954:1973   */\n  swap1\n  pop\n    /* \"#utility.yul\":1613:1979   */\n  swap2\n  swap1\n  pop\n  jump\t// out\n    /* \"#utility.yul\":1985:2404   */\ntag_8:\n    /* \"#utility.yul\":2151:2155   */\n  0x00\n    /* \"#utility.yul\":2189:2191   */\n  0x20\n    /* \"#utility.yul\":2178:2187   */\n  dup3\n    /* \"#utility.yul\":2174:2192   */\n  add\n    /* \"#utility.yul\":2166:2192   */\n  swap1\n  pop\n    /* \"#utility.yul\":2238:2247   */\n  dup2\n    /* \"#utility.yul\":2232:2236   */\n  dup2\n    /* \"#utility.yul\":2228:2248   */\n  sub\n    /* \"#utility.yul\":2224:2225   */\n  0x00\n    /* \"#utility.yul\":2213:2222   */\n  dup4\n    /* \"#utility.yul\":2209:2226   */\n  add\n    /* \"#utility.yul\":2202:2249   */\n  mstore\n    /* \"#utility.yul\":2266:2397   */\n  tag_42\n    /* \"#utility.yul\":2392:2396   */\n  dup2\n    /* \"#utility.yul\":2266:2397   */\n  tag_19\n  jump\t// in\ntag_42:\n    /* \"#utility.yul\":2258:2397   */\n  swap1\n  pop\n    /* \"#utility.yul\":1985:2404   */\n  swap2\n  swap1\n  pop\n  jump\t// out\n    /* \"SmartContract/PaymentEscrow/PaymentEscrow.sol\":202:2929  contract Escrow {... */\ntag_9:\n  dataSize(sub_0)\n  dup1\n  dataOffset(sub_0)\n  0x00\n  codecopy\n  0x00\n  return\nstop\n\nsub_0: assembly {\n        /* \"SmartContract/PaymentEscrow/PaymentEscrow.sol\":202:2929  contract Escrow {... */\n      mstore(0x40, 0x80)\n      jumpi(tag_1, lt(calldatasize, 0x04))\n      shr(0xe0, calldataload(0x00))\n      dup1\n      0x8da5cb5b\n      gt\n      tag_12\n      jumpi\n      dup1\n      0x8da5cb5b\n      eq\n      tag_7\n      jumpi\n      dup1\n      0xaa8c217c\n      eq\n      tag_8\n      jumpi\n      dup1\n      0xd0e30db0\n      eq\n      tag_9\n      jumpi\n      dup1\n      0xf3a504f2\n      eq\n      tag_10\n      jumpi\n      dup1\n      0xf7260d3e\n      eq\n      tag_11\n      jumpi\n      jump(tag_2)\n    tag_12:\n      dup1\n      0x547e3f06\n      eq\n      tag_3\n      jumpi\n      dup1\n      0x590e1ae3\n      eq\n      tag_4\n      jumpi\n      dup1\n      0x86d1a69f\n      eq\n      tag_5\n      jumpi\n      dup1\n      0x8b7afe2e\n      eq\n      tag_6\n      jumpi\n      jump(tag_2)\n    tag_1:\n      jumpi(tag_2, calldatasize)\n        /* \"SmartContract/PaymentEscrow/PaymentEscrow.sol\":2823:2846  revert(\"Use deposit()\") */\n      mload(0x40)\n      0x08c379a000000000000000000000000000000000000000000000000000000000\n      dup2\n      mstore\n      0x04\n      add\n      tag_15\n      swap1\n      tag_16\n      jump\t// in\n    tag_15:\n      mload(0x40)\n      dup1\n      swap2\n      sub\n      swap1\n      revert\n        /* \"SmartContract/PaymentEscrow/PaymentEscrow.sol\":202:2929  contract Escrow {... */\n    tag_2:\n        /* \"SmartContract/PaymentEscrow/PaymentEscrow.sol\":2897:2920  revert(\"Use deposit()\") */\n      mload(0x40)\n      0x08c379a000000000000000000000000000000000000000000000000000000000\n      dup2\n      mstore\n      0x04\n      add\n      tag_19\n      swap1\n      tag_16\n      jump\t// in\n    tag_19:\n      mload(0x40)\n      dup1\n      swap2\n      sub\n      swap1\n      revert\n        /* \"SmartContract/PaymentEscrow/PaymentEscrow.sol\":2358:2589  function changeReceiver(address payable _new) external onlyOwner {... */\n    tag_3:\n      callvalue\n      dup1\n      iszero\n      tag_20\n      jumpi\n      0x00\n      dup1\n      revert\n    tag_20:\n      pop\n      tag_21\n      0x04\n      dup1\n      calldatasize\n      sub\n      dup2\n      add\n      swap1\n      tag_22\n      swap2\n      swap1\n      tag_23\n      jump\t// in\n    tag_22:\n      tag_24\n      jump\t// in\n    tag_21:\n      stop\n        /* \"SmartContract/PaymentEscrow/PaymentEscrow.sol\":2038:2352  function refund() external onlyOwner nonReentrant {... */\n    tag_4:\n      callvalue\n      dup1\n      iszero\n      tag_25\n      jumpi\n      0x00\n      dup1\n      revert\n    tag_25:\n      pop\n      tag_26\n      tag_27\n      jump\t// in\n    tag_26:\n      stop\n        /* \"SmartContract/PaymentEscrow/PaymentEscrow.sol\":1559:1984  function release() external onlyOwner nonReentrant {... */\n    tag_5:\n      callvalue\n      dup1\n      iszero\n      tag_28\n      jumpi\n      0x00\n      dup1\n      revert\n    tag_28:\n      pop\n      tag_29\n      tag_30\n      jump\t// in\n    tag_29:\n      stop\n        /* \"SmartContract/PaymentEscrow/PaymentEscrow.sol\":2610:2714  function contractBalance() external view returns (uint256) {... */\n    tag_6:\n      callvalue\n      dup1\n      iszero\n      tag_31\n      jumpi\n      0x00\n      dup1\n      revert\n    tag_31:\n      pop\n      tag_32\n      tag_33\n      jump\t// in\n    tag_32:\n      mload(0x40)\n      tag_34\n      swap2\n      swap1\n      tag_35\n      jump\t// in\n    tag_34:\n      mload(0x40)\n      dup1\n      swap2\n      sub\n      swap1\n      return\n        /* \"SmartContract/PaymentEscrow/PaymentEscrow.sol\":224:252  address payable public owner */\n    tag_7:\n      callvalue\n      dup1\n      iszero\n      tag_36\n      jumpi\n      0x00\n      dup1\n      revert\n    tag_36:\n      pop\n      tag_37\n      tag_38\n      jump\t// in\n    tag_37:\n      mload(0x40)\n      tag_39\n      swap2\n      swap1\n      tag_40\n      jump\t// in\n    tag_39:\n      mload(0x40)\n      dup1\n      swap2\n      sub\n      swap1\n      return\n        /* \"SmartContract/PaymentEscrow/PaymentEscrow.sol\":295:316  uint256 public amount */\n    tag_8:\n      callvalue\n      dup1\n      iszero\n      tag_41\n      jumpi\n      0x00\n      dup1\n      revert\n    tag_41:\n      pop\n      tag_42\n      tag_43\n      jump\t// in\n    tag_42:\n      mload(0x40)\n      tag_44\n      swap2\n      swap1\n      tag_35\n      jump\t// in\n    tag_44:\n      mload(0x40)\n      dup1\n      swap2\n      sub\n      swap1\n      return\n        /* \"SmartContract/PaymentEscrow/PaymentEscrow.sol\":1191:1506  function deposit() external payable onlyOwner {... */\n    tag_9:\n      tag_45\n      tag_46\n      jump\t// in\n    tag_45:\n      stop\n        /* \"SmartContract/PaymentEscrow/PaymentEscrow.sol\":348:366  bool public funded */\n    tag_10:\n      callvalue\n      dup1\n      iszero\n      tag_47\n      jumpi\n      0x00\n      dup1\n      revert\n    tag_47:\n      pop\n      tag_48\n      tag_49\n      jump\t// in\n    tag_48:\n      mload(0x40)\n      tag_50\n      swap2\n      swap1\n      tag_51\n      jump\t// in\n    tag_50:\n      mload(0x40)\n      dup1\n      swap2\n      sub\n      swap1\n      return\n        /* \"SmartContract/PaymentEscrow/PaymentEscrow.sol\":258:289  address payable public receiver */\n    tag_11:\n      callvalue\n      dup1\n      iszero\n      tag_52\n      jumpi\n      0x00\n      dup1\n      revert\n    tag_52:\n      pop\n      tag_53\n      tag_54\n      jump\t// in\n    tag_53:\n      mload(0x40)\n      tag_55\n      swap2\n      swap1\n      tag_40\n      jump\t// in\n    tag_55:\n      mload(0x40)\n      dup1\n      swap2\n      sub\n      swap1\n      return\n        /* \"SmartContract/PaymentEscrow/PaymentEscrow.sol\":2358:2589  function changeReceiver(address payable _new) external onlyOwner {... */\n    tag_24:\n        /* \"SmartContract/PaymentEscrow/PaymentEscrow.sol\":737:742  owner */\n      0x00\n      dup1\n      sload\n      swap1\n      0x0100\n      exp\n      swap1\n      div\n      0xffffffffffffffffffffffffffffffffffffffff\n      and\n        /* \"SmartContract/PaymentEscrow/PaymentEscrow.sol\":723:742  msg.sender == owner */\n      0xffffffffffffffffffffffffffffffffffffffff\n      and\n        /* \"SmartContract/PaymentEscrow/PaymentEscrow.sol\":723:733  msg.sender */\n      caller\n        /* \"SmartContract/PaymentEscrow/PaymentEscrow.sol\":723:742  msg.sender == owner */\n      0xffffffffffffffffffffffffffffffffffffffff\n      and\n      eq\n        /* \"SmartContract/PaymentEscrow/PaymentEscrow.sol\":715:765  require(msg.sender == owner, \"Only owner allowed\") */\n      tag_57\n      jumpi\n      mload(0x40)\n      0x08c379a000000000000000000000000000000000000000000000000000000000\n      dup2\n      mstore\n      0x04\n      add\n      tag_58\n      swap1\n      tag_59\n      jump\t// in\n    tag_58:\n      mload(0x40)\n      dup1\n      swap2\n      sub\n      swap1\n      revert\n    tag_57:\n        /* \"SmartContract/PaymentEscrow/PaymentEscrow.sol\":2457:2458  0 */\n      0x00\n        /* \"SmartContract/PaymentEscrow/PaymentEscrow.sol\":2441:2459  _new != address(0) */\n      0xffffffffffffffffffffffffffffffffffffffff\n      and\n        /* \"SmartContract/PaymentEscrow/PaymentEscrow.sol\":2441:2445  _new */\n      dup2\n        /* \"SmartContract/PaymentEscrow/PaymentEscrow.sol\":2441:2459  _new != address(0) */\n      0xffffffffffffffffffffffffffffffffffffffff\n      and\n      sub\n        /* \"SmartContract/PaymentEscrow/PaymentEscrow.sol\":2433:2484  require(_new != address(0), \"Invalid new receiver\") */\n      tag_61\n      jumpi\n      mload(0x40)\n      0x08c379a000000000000000000000000000000000000000000000000000000000\n      dup2\n      mstore\n      0x04\n      add\n      tag_62\n      swap1\n      tag_63\n      jump\t// in\n    tag_62:\n      mload(0x40)\n      dup1\n      swap2\n      sub\n      swap1\n      revert\n    tag_61:\n        /* \"SmartContract/PaymentEscrow/PaymentEscrow.sol\":2494:2505  address old */\n      0x00\n        /* \"SmartContract/PaymentEscrow/PaymentEscrow.sol\":2508:2516  receiver */\n      0x01\n      0x00\n      swap1\n      sload\n      swap1\n      0x0100\n      exp\n      swap1\n      div\n      0xffffffffffffffffffffffffffffffffffffffff\n      and\n        /* \"SmartContract/PaymentEscrow/PaymentEscrow.sol\":2494:2516  address old = receiver */\n      swap1\n      pop\n        /* \"SmartContract/PaymentEscrow/PaymentEscrow.sol\":2537:2541  _new */\n      dup2\n        /* \"SmartContract/PaymentEscrow/PaymentEscrow.sol\":2526:2534  receiver */\n      0x01\n      0x00\n        /* \"SmartContract/PaymentEscrow/PaymentEscrow.sol\":2526:2541  receiver = _new */\n      0x0100\n      exp\n      dup2\n      sload\n      dup2\n      0xffffffffffffffffffffffffffffffffffffffff\n      mul\n      not\n      and\n      swap1\n      dup4\n      0xffffffffffffffffffffffffffffffffffffffff\n      and\n      mul\n      or\n      swap1\n      sstore\n      pop\n        /* \"SmartContract/PaymentEscrow/PaymentEscrow.sol\":2577:2581  _new */\n      dup2\n        /* \"SmartContract/PaymentEscrow/PaymentEscrow.sol\":2556:2582  ReceiverChanged(old, _new) */\n      0xffffffffffffffffffffffffffffffffffffffff\n      and\n        /* \"SmartContract/PaymentEscrow/PaymentEscrow.sol\":2572:2575  old */\n      dup2\n        /* \"SmartContract/PaymentEscrow/PaymentEscrow.sol\":2556:2582  ReceiverChanged(old, _new) */\n      0xffffffffffffffffffffffffffffffffffffffff\n      and\n      0xd36aafedb017e43b79d3cf6aa1987d3fbb9fff33e1738c71dbf6b2abaadbded0\n      mload(0x40)\n      mload(0x40)\n      dup1\n      swap2\n      sub\n      swap1\n      log3\n        /* \"SmartContract/PaymentEscrow/PaymentEscrow.sol\":2423:2589  {... */\n      pop\n        /* \"SmartContract/PaymentEscrow/PaymentEscrow.sol\":2358:2589  function changeReceiver(address payable _new) external onlyOwner {... */\n      pop\n      jump\t// out\n        /* \"SmartContract/PaymentEscrow/PaymentEscrow.sol\":2038:2352  function refund() external onlyOwner nonReentrant {... */\n    tag_27:\n        /* \"SmartContract/PaymentEscrow/PaymentEscrow.sol\":737:742  owner */\n      0x00\n      dup1\n      sload\n      swap1\n      0x0100\n      exp\n      swap1\n      div\n      0xffffffffffffffffffffffffffffffffffffffff\n      and\n        /* \"SmartContract/PaymentEscrow/PaymentEscrow.sol\":723:742  msg.sender == owner */\n      0xffffffffffffffffffffffffffffffffffffffff\n      and\n        /* \"SmartContract/PaymentEscrow/PaymentEscrow.sol\":723:733  msg.sender */\n      caller\n        /* \"SmartContract/PaymentEscrow/PaymentEscrow.sol\":723:742  msg.sender == owner */\n      0xffffffffffffffffffffffffffffffffffffffff\n      and\n      eq\n        /* \"SmartContract/PaymentEscrow/PaymentEscrow.sol\":715:765  require(msg.sender == owner, \"Only owner allowed\") */\n      tag_65\n      jumpi\n      mload(0x40)\n      0x08c379a000000000000000000000000000000000000000000000000000000000\n      dup2\n      mstore\n      0x04\n      add\n      tag_66\n      swap1\n      tag_59\n      jump\t// in\n    tag_66:\n      mload(0x40)\n      dup1\n      swap2\n      sub\n      swap1\n      revert\n    tag_65:\n        /* \"SmartContract/PaymentEscrow/PaymentEscrow.sol\":832:838  locked */\n      0x03\n      0x01\n      swap1\n      sload\n      swap1\n      0x0100\n      exp\n      swap1\n      div\n      0xff\n      and\n        /* \"SmartContract/PaymentEscrow/PaymentEscrow.sol\":831:838  !locked */\n      iszero\n        /* \"SmartContract/PaymentEscrow/PaymentEscrow.sol\":823:852  require(!locked, \"Reentrant\") */\n      tag_68\n      jumpi\n      mload(0x40)\n      0x08c379a000000000000000000000000000000000000000000000000000000000\n      dup2\n      mstore\n      0x04\n      add\n      tag_69\n      swap1\n      tag_70\n      jump\t// in\n    tag_69:\n      mload(0x40)\n      dup1\n      swap2\n      sub\n      swap1\n      revert\n    tag_68:\n        /* \"SmartContract/PaymentEscrow/PaymentEscrow.sol\":871:875  true */\n      0x01\n        /* \"SmartContract/PaymentEscrow/PaymentEscrow.sol\":862:868  locked */\n      0x03\n      0x01\n        /* \"SmartContract/PaymentEscrow/PaymentEscrow.sol\":862:875  locked = true */\n      0x0100\n      exp\n      dup2\n      sload\n      dup2\n      0xff\n      mul\n      not\n      and\n      swap1\n      dup4\n      iszero\n      iszero\n      mul\n      or\n      swap1\n      sstore\n      pop\n        /* \"SmartContract/PaymentEscrow/PaymentEscrow.sol\":2106:2112  funded */\n      0x03\n      0x00\n      swap1\n      sload\n      swap1\n      0x0100\n      exp\n      swap1\n      div\n      0xff\n      and\n        /* \"SmartContract/PaymentEscrow/PaymentEscrow.sol\":2098:2135  require(funded, \"No funds to refund\") */\n      tag_72\n      jumpi\n      mload(0x40)\n      0x08c379a000000000000000000000000000000000000000000000000000000000\n      dup2\n      mstore\n      0x04\n      add\n      tag_73\n      swap1\n      tag_74\n      jump\t// in\n    tag_73:\n      mload(0x40)\n      dup1\n      swap2\n      sub\n      swap1\n      revert\n    tag_72:\n        /* \"SmartContract/PaymentEscrow/PaymentEscrow.sol\":2146:2160  uint256 payout */\n      0x00\n        /* \"SmartContract/PaymentEscrow/PaymentEscrow.sol\":2163:2169  amount */\n      sload(0x02)\n        /* \"SmartContract/PaymentEscrow/PaymentEscrow.sol\":2146:2169  uint256 payout = amount */\n      swap1\n      pop\n        /* \"SmartContract/PaymentEscrow/PaymentEscrow.sol\":2189:2194  false */\n      0x00\n        /* \"SmartContract/PaymentEscrow/PaymentEscrow.sol\":2180:2186  funded */\n      0x03\n      0x00\n        /* \"SmartContract/PaymentEscrow/PaymentEscrow.sol\":2180:2194  funded = false */\n      0x0100\n      exp\n      dup2\n      sload\n      dup2\n      0xff\n      mul\n      not\n      and\n      swap1\n      dup4\n      iszero\n      iszero\n      mul\n      or\n      swap1\n      sstore\n      pop\n        /* \"SmartContract/PaymentEscrow/PaymentEscrow.sol\":2213:2214  0 */\n      0x00\n        /* \"SmartContract/PaymentEscrow/PaymentEscrow.sol\":2204:2210  amount */\n      0x02\n        /* \"SmartContract/PaymentEscrow/PaymentEscrow.sol\":2204:2214  amount = 0 */\n      dup2\n      swap1\n      sstore\n      pop\n        /* \"SmartContract/PaymentEscrow/PaymentEscrow.sol\":2226:2233  bool ok */\n      0x00\n        /* \"SmartContract/PaymentEscrow/PaymentEscrow.sol\":2239:2244  owner */\n      dup1\n      0x00\n      swap1\n      sload\n      swap1\n      0x0100\n      exp\n      swap1\n      div\n      0xffffffffffffffffffffffffffffffffffffffff\n      and\n        /* \"SmartContract/PaymentEscrow/PaymentEscrow.sol\":2239:2249  owner.call */\n      0xffffffffffffffffffffffffffffffffffffffff\n      and\n        /* \"SmartContract/PaymentEscrow/PaymentEscrow.sol\":2257:2263  payout */\n      dup3\n        /* \"SmartContract/PaymentEscrow/PaymentEscrow.sol\":2239:2268  owner.call{value: payout}(\"\") */\n      mload(0x40)\n      tag_75\n      swap1\n      tag_76\n      jump\t// in\n    tag_75:\n      0x00\n      mload(0x40)\n      dup1\n      dup4\n      sub\n      dup2\n      dup6\n      dup8\n      gas\n      call\n      swap3\n      pop\n      pop\n      pop\n      returndatasize\n      dup1\n      0x00\n      dup2\n      eq\n      tag_79\n      jumpi\n      mload(0x40)\n      swap2\n      pop\n      and(add(returndatasize, 0x3f), not(0x1f))\n      dup3\n      add\n      0x40\n      mstore\n      returndatasize\n      dup3\n      mstore\n      returndatasize\n      0x00\n      0x20\n      dup5\n      add\n      returndatacopy\n      jump(tag_78)\n    tag_79:\n      0x60\n      swap2\n      pop\n    tag_78:\n      pop\n        /* \"SmartContract/PaymentEscrow/PaymentEscrow.sol\":2225:2268  (bool ok, ) = owner.call{value: payout}(\"\") */\n      pop\n      swap1\n      pop\n        /* \"SmartContract/PaymentEscrow/PaymentEscrow.sol\":2286:2288  ok */\n      dup1\n        /* \"SmartContract/PaymentEscrow/PaymentEscrow.sol\":2278:2306  require(ok, \"Refund failed\") */\n      tag_80\n      jumpi\n      mload(0x40)\n      0x08c379a000000000000000000000000000000000000000000000000000000000\n      dup2\n      mstore\n      0x04\n      add\n      tag_81\n      swap1\n      tag_82\n      jump\t// in\n    tag_81:\n      mload(0x40)\n      dup1\n      swap2\n      sub\n      swap1\n      revert\n    tag_80:\n        /* \"SmartContract/PaymentEscrow/PaymentEscrow.sol\":2331:2336  owner */\n      0x00\n      dup1\n      sload\n      swap1\n      0x0100\n      exp\n      swap1\n      div\n      0xffffffffffffffffffffffffffffffffffffffff\n      and\n        /* \"SmartContract/PaymentEscrow/PaymentEscrow.sol\":2322:2345  Refunded(owner, payout) */\n      0xffffffffffffffffffffffffffffffffffffffff\n      and\n      0xd7dee2702d63ad89917b6a4da9981c90c4d24f8c2bdfd64c604ecae57d8d0651\n        /* \"SmartContract/PaymentEscrow/PaymentEscrow.sol\":2338:2344  payout */\n      dup4\n        /* \"SmartContract/PaymentEscrow/PaymentEscrow.sol\":2322:2345  Refunded(owner, payout) */\n      mload(0x40)\n      tag_83\n      swap2\n      swap1\n      tag_35\n      jump\t// in\n    tag_83:\n      mload(0x40)\n      dup1\n      swap2\n      sub\n      swap1\n      log2\n        /* \"SmartContract/PaymentEscrow/PaymentEscrow.sol\":2088:2352  {... */\n      pop\n      pop\n        /* \"SmartContract/PaymentEscrow/PaymentEscrow.sol\":905:910  false */\n      0x00\n        /* \"SmartContract/PaymentEscrow/PaymentEscrow.sol\":896:902  locked */\n      0x03\n      0x01\n        /* \"SmartContract/PaymentEscrow/PaymentEscrow.sol\":896:910  locked = false */\n      0x0100\n      exp\n      dup2\n      sload\n      dup2\n      0xff\n      mul\n      not\n      and\n      swap1\n      dup4\n      iszero\n      iszero\n      mul\n      or\n      swap1\n      sstore\n      pop\n        /* \"SmartContract/PaymentEscrow/PaymentEscrow.sol\":2038:2352  function refund() external onlyOwner nonReentrant {... */\n      jump\t// out\n        /* \"SmartContract/PaymentEscrow/PaymentEscrow.sol\":1559:1984  function release() external onlyOwner nonReentrant {... */\n    tag_30:\n        /* \"SmartContract/PaymentEscrow/PaymentEscrow.sol\":737:742  owner */\n      0x00\n      dup1\n      sload\n      swap1\n      0x0100\n      exp\n      swap1\n      div\n      0xffffffffffffffffffffffffffffffffffffffff\n      and\n        /* \"SmartContract/PaymentEscrow/PaymentEscrow.sol\":723:742  msg.sender == owner */\n      0xffffffffffffffffffffffffffffffffffffffff\n      and\n        /* \"SmartContract/PaymentEscrow/PaymentEscrow.sol\":723:733  msg.sender */\n      caller\n        /* \"SmartContract/PaymentEscrow/PaymentEscrow.sol\":723:742  msg.sender == owner */\n      0xffffffffffffffffffffffffffffffffffffffff\n      and\n      eq\n        /* \"SmartContract/PaymentEscrow/PaymentEscrow.sol\":715:765  require(msg.sender == owner, \"Only owner allowed\") */\n      tag_85\n      jumpi\n      mload(0x40)\n      0x08c379a000000000000000000000000000000000000000000000000000000000\n      dup2\n      mstore\n      0x04\n      add\n      tag_86\n      swap1\n      tag_59\n      jump\t// in\n    tag_86:\n      mload(0x40)\n      dup1\n      swap2\n      sub\n      swap1\n      revert\n    tag_85:\n        /* \"SmartContract/PaymentEscrow/PaymentEscrow.sol\":832:838  locked */\n      0x03\n      0x01\n      swap1\n      sload\n      swap1\n      0x0100\n      exp\n      swap1\n      div\n      0xff\n      and\n        /* \"SmartContract/PaymentEscrow/PaymentEscrow.sol\":831:838  !locked */\n      iszero\n        /* \"SmartContract/PaymentEscrow/PaymentEscrow.sol\":823:852  require(!locked, \"Reentrant\") */\n      tag_88\n      jumpi\n      mload(0x40)\n      0x08c379a000000000000000000000000000000000000000000000000000000000\n      dup2\n      mstore\n      0x04\n      add\n      tag_89\n      swap1\n      tag_70\n      jump\t// in\n    tag_89:\n      mload(0x40)\n      dup1\n      swap2\n      sub\n      swap1\n      revert\n    tag_88:\n        /* \"SmartContract/PaymentEscrow/PaymentEscrow.sol\":871:875  true */\n      0x01\n        /* \"SmartContract/PaymentEscrow/PaymentEscrow.sol\":862:868  locked */\n      0x03\n      0x01\n        /* \"SmartContract/PaymentEscrow/PaymentEscrow.sol\":862:875  locked = true */\n      0x0100\n      exp\n      dup2\n      sload\n      dup2\n      0xff\n      mul\n      not\n      and\n      swap1\n      dup4\n      iszero\n      iszero\n      mul\n      or\n      swap1\n      sstore\n      pop\n        /* \"SmartContract/PaymentEscrow/PaymentEscrow.sol\":1628:1634  funded */\n      0x03\n      0x00\n      swap1\n      sload\n      swap1\n      0x0100\n      exp\n      swap1\n      div\n      0xff\n      and\n        /* \"SmartContract/PaymentEscrow/PaymentEscrow.sol\":1620:1658  require(funded, \"No funds to release\") */\n      tag_91\n      jumpi\n      mload(0x40)\n      0x08c379a000000000000000000000000000000000000000000000000000000000\n      dup2\n      mstore\n      0x04\n      add\n      tag_92\n      swap1\n      tag_93\n      jump\t// in\n    tag_92:\n      mload(0x40)\n      dup1\n      swap2\n      sub\n      swap1\n      revert\n    tag_91:\n        /* \"SmartContract/PaymentEscrow/PaymentEscrow.sol\":1669:1683  uint256 payout */\n      0x00\n        /* \"SmartContract/PaymentEscrow/PaymentEscrow.sol\":1686:1692  amount */\n      sload(0x02)\n        /* \"SmartContract/PaymentEscrow/PaymentEscrow.sol\":1669:1692  uint256 payout = amount */\n      swap1\n      pop\n        /* \"SmartContract/PaymentEscrow/PaymentEscrow.sol\":1731:1736  false */\n      0x00\n        /* \"SmartContract/PaymentEscrow/PaymentEscrow.sol\":1722:1728  funded */\n      0x03\n      0x00\n        /* \"SmartContract/PaymentEscrow/PaymentEscrow.sol\":1722:1736  funded = false */\n      0x0100\n      exp\n      dup2\n      sload\n      dup2\n      0xff\n      mul\n      not\n      and\n      swap1\n      dup4\n      iszero\n      iszero\n      mul\n      or\n      swap1\n      sstore\n      pop\n        /* \"SmartContract/PaymentEscrow/PaymentEscrow.sol\":1755:1756  0 */\n      0x00\n        /* \"SmartContract/PaymentEscrow/PaymentEscrow.sol\":1746:1752  amount */\n      0x02\n        /* \"SmartContract/PaymentEscrow/PaymentEscrow.sol\":1746:1756  amount = 0 */\n      dup2\n      swap1\n      sstore\n      pop\n        /* \"SmartContract/PaymentEscrow/PaymentEscrow.sol\":1838:1845  bool ok */\n      0x00\n        /* \"SmartContract/PaymentEscrow/PaymentEscrow.sol\":1851:1859  receiver */\n      0x01\n      0x00\n      swap1\n      sload\n      swap1\n      0x0100\n      exp\n      swap1\n      div\n      0xffffffffffffffffffffffffffffffffffffffff\n      and\n        /* \"SmartContract/PaymentEscrow/PaymentEscrow.sol\":1851:1864  receiver.call */\n      0xffffffffffffffffffffffffffffffffffffffff\n      and\n        /* \"SmartContract/PaymentEscrow/PaymentEscrow.sol\":1872:1878  payout */\n      dup3\n        /* \"SmartContract/PaymentEscrow/PaymentEscrow.sol\":1851:1883  receiver.call{value: payout}(\"\") */\n      mload(0x40)\n      tag_94\n      swap1\n      tag_76\n      jump\t// in\n    tag_94:\n      0x00\n      mload(0x40)\n      dup1\n      dup4\n      sub\n      dup2\n      dup6\n      dup8\n      gas\n      call\n      swap3\n      pop\n      pop\n      pop\n      returndatasize\n      dup1\n      0x00\n      dup2\n      eq\n      tag_97\n      jumpi\n      mload(0x40)\n      swap2\n      pop\n      and(add(returndatasize, 0x3f), not(0x1f))\n      dup3\n      add\n      0x40\n      mstore\n      returndatasize\n      dup3\n      mstore\n      returndatasize\n      0x00\n      0x20\n      dup5\n      add\n      returndatacopy\n      jump(tag_96)\n    tag_97:\n      0x60\n      swap2\n      pop\n    tag_96:\n      pop\n        /* \"SmartContract/PaymentEscrow/PaymentEscrow.sol\":1837:1883  (bool ok, ) = receiver.call{value: payout}(\"\") */\n      pop\n      swap1\n      pop\n        /* \"SmartContract/PaymentEscrow/PaymentEscrow.sol\":1901:1903  ok */\n      dup1\n        /* \"SmartContract/PaymentEscrow/PaymentEscrow.sol\":1893:1935  require(ok, \"Transfer to receiver failed\") */\n      tag_98\n      jumpi\n      mload(0x40)\n      0x08c379a000000000000000000000000000000000000000000000000000000000\n      dup2\n      mstore\n      0x04\n      add\n      tag_99\n      swap1\n      tag_100\n      jump\t// in\n    tag_99:\n      mload(0x40)\n      dup1\n      swap2\n      sub\n      swap1\n      revert\n    tag_98:\n        /* \"SmartContract/PaymentEscrow/PaymentEscrow.sol\":1960:1968  receiver */\n      0x01\n      0x00\n      swap1\n      sload\n      swap1\n      0x0100\n      exp\n      swap1\n      div\n      0xffffffffffffffffffffffffffffffffffffffff\n      and\n        /* \"SmartContract/PaymentEscrow/PaymentEscrow.sol\":1951:1977  Released(receiver, payout) */\n      0xffffffffffffffffffffffffffffffffffffffff\n      and\n      0xb21fb52d5749b80f3182f8c6992236b5e5576681880914484d7f4c9b062e619e\n        /* \"SmartContract/PaymentEscrow/PaymentEscrow.sol\":1970:1976  payout */\n      dup4\n        /* \"SmartContract/PaymentEscrow/PaymentEscrow.sol\":1951:1977  Released(receiver, payout) */\n      mload(0x40)\n      tag_101\n      swap2\n      swap1\n      tag_35\n      jump\t// in\n    tag_101:\n      mload(0x40)\n      dup1\n      swap2\n      sub\n      swap1\n      log2\n        /* \"SmartContract/PaymentEscrow/PaymentEscrow.sol\":1610:1984  {... */\n      pop\n      pop\n        /* \"SmartContract/PaymentEscrow/PaymentEscrow.sol\":905:910  false */\n      0x00\n        /* \"SmartContract/PaymentEscrow/PaymentEscrow.sol\":896:902  locked */\n      0x03\n      0x01\n        /* \"SmartContract/PaymentEscrow/PaymentEscrow.sol\":896:910  locked = false */\n      0x0100\n      exp\n      dup2\n      sload\n      dup2\n      0xff\n      mul\n      not\n      and\n      swap1\n      dup4\n      iszero\n      iszero\n      mul\n      or\n      swap1\n      sstore\n      pop\n        /* \"SmartContract/PaymentEscrow/PaymentEscrow.sol\":1559:1984  function release() external onlyOwner nonReentrant {... */\n      jump\t// out\n        /* \"SmartContract/PaymentEscrow/PaymentEscrow.sol\":2610:2714  function contractBalance() external view returns (uint256) {... */\n    tag_33:\n        /* \"SmartContract/PaymentEscrow/PaymentEscrow.sol\":2660:2667  uint256 */\n      0x00\n        /* \"SmartContract/PaymentEscrow/PaymentEscrow.sol\":2686:2707  address(this).balance */\n      selfbalance\n        /* \"SmartContract/PaymentEscrow/PaymentEscrow.sol\":2679:2707  return address(this).balance */\n      swap1\n      pop\n        /* \"SmartContract/PaymentEscrow/PaymentEscrow.sol\":2610:2714  function contractBalance() external view returns (uint256) {... */\n      swap1\n      jump\t// out\n        /* \"SmartContract/PaymentEscrow/PaymentEscrow.sol\":224:252  address payable public owner */\n    tag_38:\n      0x00\n      dup1\n      sload\n      swap1\n      0x0100\n      exp\n      swap1\n      div\n      0xffffffffffffffffffffffffffffffffffffffff\n      and\n      dup2\n      jump\t// out\n        /* \"SmartContract/PaymentEscrow/PaymentEscrow.sol\":295:316  uint256 public amount */\n    tag_43:\n      sload(0x02)\n      dup2\n      jump\t// out\n        /* \"SmartContract/PaymentEscrow/PaymentEscrow.sol\":1191:1506  function deposit() external payable onlyOwner {... */\n    tag_46:\n        /* \"SmartContract/PaymentEscrow/PaymentEscrow.sol\":737:742  owner */\n      0x00\n      dup1\n      sload\n      swap1\n      0x0100\n      exp\n      swap1\n      div\n      0xffffffffffffffffffffffffffffffffffffffff\n      and\n        /* \"SmartContract/PaymentEscrow/PaymentEscrow.sol\":723:742  msg.sender == owner */\n      0xffffffffffffffffffffffffffffffffffffffff\n      and\n        /* \"SmartContract/PaymentEscrow/PaymentEscrow.sol\":723:733  msg.sender */\n      caller\n        /* \"SmartContract/PaymentEscrow/PaymentEscrow.sol\":723:742  msg.sender == owner */\n      0xffffffffffffffffffffffffffffffffffffffff\n      and\n      eq\n        /* \"SmartContract/PaymentEscrow/PaymentEscrow.sol\":715:765  require(msg.sender == owner, \"Only owner allowed\") */\n      tag_104\n      jumpi\n      mload(0x40)\n      0x08c379a000000000000000000000000000000000000000000000000000000000\n      dup2\n      mstore\n      0x04\n      add\n      tag_105\n      swap1\n      tag_59\n      jump\t// in\n    tag_105:\n      mload(0x40)\n      dup1\n      swap2\n      sub\n      swap1\n      revert\n    tag_104:\n        /* \"SmartContract/PaymentEscrow/PaymentEscrow.sol\":1256:1262  funded */\n      0x03\n      0x00\n      swap1\n      sload\n      swap1\n      0x0100\n      exp\n      swap1\n      div\n      0xff\n      and\n        /* \"SmartContract/PaymentEscrow/PaymentEscrow.sol\":1255:1262  !funded */\n      iszero\n        /* \"SmartContract/PaymentEscrow/PaymentEscrow.sol\":1247:1288  require(!funded, \"Escrow already funded\") */\n      tag_107\n      jumpi\n      mload(0x40)\n      0x08c379a000000000000000000000000000000000000000000000000000000000\n      dup2\n      mstore\n      0x04\n      add\n      tag_108\n      swap1\n      tag_109\n      jump\t// in\n    tag_108:\n      mload(0x40)\n      dup1\n      swap2\n      sub\n      swap1\n      revert\n    tag_107:\n        /* \"SmartContract/PaymentEscrow/PaymentEscrow.sol\":1318:1319  0 */\n      0x00\n        /* \"SmartContract/PaymentEscrow/PaymentEscrow.sol\":1306:1315  msg.value */\n      callvalue\n        /* \"SmartContract/PaymentEscrow/PaymentEscrow.sol\":1306:1319  msg.value > 0 */\n      gt\n        /* \"SmartContract/PaymentEscrow/PaymentEscrow.sol\":1298:1341  require(msg.value > 0, \"Must send > 0 ETH\") */\n      tag_110\n      jumpi\n      mload(0x40)\n      0x08c379a000000000000000000000000000000000000000000000000000000000\n      dup2\n      mstore\n      0x04\n      add\n      tag_111\n      swap1\n      tag_112\n      jump\t// in\n    tag_111:\n      mload(0x40)\n      dup1\n      swap2\n      sub\n      swap1\n      revert\n    tag_110:\n        /* \"SmartContract/PaymentEscrow/PaymentEscrow.sol\":1419:1428  msg.value */\n      callvalue\n        /* \"SmartContract/PaymentEscrow/PaymentEscrow.sol\":1410:1416  amount */\n      0x02\n        /* \"SmartContract/PaymentEscrow/PaymentEscrow.sol\":1410:1428  amount = msg.value */\n      dup2\n      swap1\n      sstore\n      pop\n        /* \"SmartContract/PaymentEscrow/PaymentEscrow.sol\":1447:1451  true */\n      0x01\n        /* \"SmartContract/PaymentEscrow/PaymentEscrow.sol\":1438:1444  funded */\n      0x03\n      0x00\n        /* \"SmartContract/PaymentEscrow/PaymentEscrow.sol\":1438:1451  funded = true */\n      0x0100\n      exp\n      dup2\n      sload\n      dup2\n      0xff\n      mul\n      not\n      and\n      swap1\n      dup4\n      iszero\n      iszero\n      mul\n      or\n      swap1\n      sstore\n      pop\n        /* \"SmartContract/PaymentEscrow/PaymentEscrow.sol\":1477:1487  msg.sender */\n      caller\n        /* \"SmartContract/PaymentEscrow/PaymentEscrow.sol\":1467:1499  Deposited(msg.sender, msg.value) */\n      0xffffffffffffffffffffffffffffffffffffffff\n      and\n      0x2da466a7b24304f47e87fa2e1e5a81b9831ce54fec19055ce277ca2f39ba42c4\n        /* \"SmartContract/PaymentEscrow/PaymentEscrow.sol\":1489:1498  msg.value */\n      callvalue\n        /* \"SmartContract/PaymentEscrow/PaymentEscrow.sol\":1467:1499  Deposited(msg.sender, msg.value) */\n      mload(0x40)\n      tag_113\n      swap2\n      swap1\n      tag_35\n      jump\t// in\n    tag_113:\n      mload(0x40)\n      dup1\n      swap2\n      sub\n      swap1\n      log2\n        /* \"SmartContract/PaymentEscrow/PaymentEscrow.sol\":1191:1506  function deposit() external payable onlyOwner {... */\n      jump\t// out\n        /* \"SmartContract/PaymentEscrow/PaymentEscrow.sol\":348:366  bool public funded */\n    tag_49:\n      0x03\n      0x00\n      swap1\n      sload\n      swap1\n      0x0100\n      exp\n      swap1\n      div\n      0xff\n      and\n      dup2\n      jump\t// out\n        /* \"SmartContract/PaymentEscrow/PaymentEscrow.sol\":258:289  address payable public receiver */\n    tag_54:\n      0x01\n      0x00\n      swap1\n      sload\n      swap1\n      0x0100\n      exp\n      swap1\n      div\n      0xffffffffffffffffffffffffffffffffffffffff\n      and\n      dup2\n      jump\t// out\n        /* \"#utility.yul\":7:176   */\n    tag_114:\n        /* \"#utility.yul\":91:102   */\n      0x00\n        /* \"#utility.yul\":125:131   */\n      dup3\n        /* \"#utility.yul\":120:123   */\n      dup3\n        /* \"#utility.yul\":113:132   */\n      mstore\n        /* \"#utility.yul\":165:169   */\n      0x20\n        /* \"#utility.yul\":160:163   */\n      dup3\n        /* \"#utility.yul\":156:170   */\n      add\n        /* \"#utility.yul\":141:170   */\n      swap1\n      pop\n        /* \"#utility.yul\":7:176   */\n      swap3\n      swap2\n      pop\n      pop\n      jump\t// out\n        /* \"#utility.yul\":182:345   */\n    tag_115:\n        /* \"#utility.yul\":322:337   */\n      0x557365206465706f736974282900000000000000000000000000000000000000\n        /* \"#utility.yul\":318:319   */\n      0x00\n        /* \"#utility.yul\":310:316   */\n      dup3\n        /* \"#utility.yul\":306:320   */\n      add\n        /* \"#utility.yul\":299:338   */\n      mstore\n        /* \"#utility.yul\":182:345   */\n      pop\n      jump\t// out\n        /* \"#utility.yul\":351:717   */\n    tag_116:\n        /* \"#utility.yul\":493:496   */\n      0x00\n        /* \"#utility.yul\":514:581   */\n      tag_154\n        /* \"#utility.yul\":578:580   */\n      0x0d\n        /* \"#utility.yul\":573:576   */\n      dup4\n        /* \"#utility.yul\":514:581   */\n      tag_114\n      jump\t// in\n    tag_154:\n        /* \"#utility.yul\":507:581   */\n      swap2\n      pop\n        /* \"#utility.yul\":590:683   */\n      tag_155\n        /* \"#utility.yul\":679:682   */\n      dup3\n        /* \"#utility.yul\":590:683   */\n      tag_115\n      jump\t// in\n    tag_155:\n        /* \"#utility.yul\":708:710   */\n      0x20\n        /* \"#utility.yul\":703:706   */\n      dup3\n        /* \"#utility.yul\":699:711   */\n      add\n        /* \"#utility.yul\":692:711   */\n      swap1\n      pop\n        /* \"#utility.yul\":351:717   */\n      swap2\n      swap1\n      pop\n      jump\t// out\n        /* \"#utility.yul\":723:1142   */\n    tag_16:\n        /* \"#utility.yul\":889:893   */\n      0x00\n        /* \"#utility.yul\":927:929   */\n      0x20\n        /* \"#utility.yul\":916:925   */\n      dup3\n        /* \"#utility.yul\":912:930   */\n      add\n        /* \"#utility.yul\":904:930   */\n      swap1\n      pop\n        /* \"#utility.yul\":976:985   */\n      dup2\n        /* \"#utility.yul\":970:974   */\n      dup2\n        /* \"#utility.yul\":966:986   */\n      sub\n        /* \"#utility.yul\":962:963   */\n      0x00\n        /* \"#utility.yul\":951:960   */\n      dup4\n        /* \"#utility.yul\":947:964   */\n      add\n        /* \"#utility.yul\":940:987   */\n      mstore\n        /* \"#utility.yul\":1004:1135   */\n      tag_157\n        /* \"#utility.yul\":1130:1134   */\n      dup2\n        /* \"#utility.yul\":1004:1135   */\n      tag_116\n      jump\t// in\n    tag_157:\n        /* \"#utility.yul\":996:1135   */\n      swap1\n      pop\n        /* \"#utility.yul\":723:1142   */\n      swap2\n      swap1\n      pop\n      jump\t// out\n        /* \"#utility.yul\":1229:1346   */\n    tag_118:\n        /* \"#utility.yul\":1338:1339   */\n      0x00\n        /* \"#utility.yul\":1335:1336   */\n      dup1\n        /* \"#utility.yul\":1328:1340   */\n      revert\n        /* \"#utility.yul\":1475:1601   */\n    tag_120:\n        /* \"#utility.yul\":1512:1519   */\n      0x00\n        /* \"#utility.yul\":1552:1594   */\n      0xffffffffffffffffffffffffffffffffffffffff\n        /* \"#utility.yul\":1545:1550   */\n      dup3\n        /* \"#utility.yul\":1541:1595   */\n      and\n        /* \"#utility.yul\":1530:1595   */\n      swap1\n      pop\n        /* \"#utility.yul\":1475:1601   */\n      swap2\n      swap1\n      pop\n      jump\t// out\n        /* \"#utility.yul\":1607:1711   */\n    tag_121:\n        /* \"#utility.yul\":1652:1659   */\n      0x00\n        /* \"#utility.yul\":1681:1705   */\n      tag_163\n        /* \"#utility.yul\":1699:1704   */\n      dup3\n        /* \"#utility.yul\":1681:1705   */\n      tag_120\n      jump\t// in\n    tag_163:\n        /* \"#utility.yul\":1670:1705   */\n      swap1\n      pop\n        /* \"#utility.yul\":1607:1711   */\n      swap2\n      swap1\n      pop\n      jump\t// out\n        /* \"#utility.yul\":1717:1855   */\n    tag_122:\n        /* \"#utility.yul\":1798:1830   */\n      tag_165\n        /* \"#utility.yul\":1824:1829   */\n      dup2\n        /* \"#utility.yul\":1798:1830   */\n      tag_121\n      jump\t// in\n    tag_165:\n        /* \"#utility.yul\":1791:1796   */\n      dup2\n        /* \"#utility.yul\":1788:1831   */\n      eq\n        /* \"#utility.yul\":1778:1849   */\n      tag_166\n      jumpi\n        /* \"#utility.yul\":1845:1846   */\n      0x00\n        /* \"#utility.yul\":1842:1843   */\n      dup1\n        /* \"#utility.yul\":1835:1847   */\n      revert\n        /* \"#utility.yul\":1778:1849   */\n    tag_166:\n        /* \"#utility.yul\":1717:1855   */\n      pop\n      jump\t// out\n        /* \"#utility.yul\":1861:2016   */\n    tag_123:\n        /* \"#utility.yul\":1915:1920   */\n      0x00\n        /* \"#utility.yul\":1953:1959   */\n      dup2\n        /* \"#utility.yul\":1940:1960   */\n      calldataload\n        /* \"#utility.yul\":1931:1960   */\n      swap1\n      pop\n        /* \"#utility.yul\":1969:2010   */\n      tag_168\n        /* \"#utility.yul\":2004:2009   */\n      dup2\n        /* \"#utility.yul\":1969:2010   */\n      tag_122\n      jump\t// in\n    tag_168:\n        /* \"#utility.yul\":1861:2016   */\n      swap3\n      swap2\n      pop\n      pop\n      jump\t// out\n        /* \"#utility.yul\":2022:2367   */\n    tag_23:\n        /* \"#utility.yul\":2089:2095   */\n      0x00\n        /* \"#utility.yul\":2138:2140   */\n      0x20\n        /* \"#utility.yul\":2126:2135   */\n      dup3\n        /* \"#utility.yul\":2117:2124   */\n      dup5\n        /* \"#utility.yul\":2113:2136   */\n      sub\n        /* \"#utility.yul\":2109:2141   */\n      slt\n        /* \"#utility.yul\":2106:2225   */\n      iszero\n      tag_170\n      jumpi\n        /* \"#utility.yul\":2144:2223   */\n      tag_171\n      tag_118\n      jump\t// in\n    tag_171:\n        /* \"#utility.yul\":2106:2225   */\n    tag_170:\n        /* \"#utility.yul\":2264:2265   */\n      0x00\n        /* \"#utility.yul\":2289:2350   */\n      tag_172\n        /* \"#utility.yul\":2342:2349   */\n      dup5\n        /* \"#utility.yul\":2333:2339   */\n      dup3\n        /* \"#utility.yul\":2322:2331   */\n      dup6\n        /* \"#utility.yul\":2318:2340   */\n      add\n        /* \"#utility.yul\":2289:2350   */\n      tag_123\n      jump\t// in\n    tag_172:\n        /* \"#utility.yul\":2279:2350   */\n      swap2\n      pop\n        /* \"#utility.yul\":2235:2360   */\n      pop\n        /* \"#utility.yul\":2022:2367   */\n      swap3\n      swap2\n      pop\n      pop\n      jump\t// out\n        /* \"#utility.yul\":2373:2450   */\n    tag_124:\n        /* \"#utility.yul\":2410:2417   */\n      0x00\n        /* \"#utility.yul\":2439:2444   */\n      dup2\n        /* \"#utility.yul\":2428:2444   */\n      swap1\n      pop\n        /* \"#utility.yul\":2373:2450   */\n      swap2\n      swap1\n      pop\n      jump\t// out\n        /* \"#utility.yul\":2456:2574   */\n    tag_125:\n        /* \"#utility.yul\":2543:2567   */\n      tag_175\n        /* \"#utility.yul\":2561:2566   */\n      dup2\n        /* \"#utility.yul\":2543:2567   */\n      tag_124\n      jump\t// in\n    tag_175:\n        /* \"#utility.yul\":2538:2541   */\n      dup3\n        /* \"#utility.yul\":2531:2568   */\n      mstore\n        /* \"#utility.yul\":2456:2574   */\n      pop\n      pop\n      jump\t// out\n        /* \"#utility.yul\":2580:2802   */\n    tag_35:\n        /* \"#utility.yul\":2673:2677   */\n      0x00\n        /* \"#utility.yul\":2711:2713   */\n      0x20\n        /* \"#utility.yul\":2700:2709   */\n      dup3\n        /* \"#utility.yul\":2696:2714   */\n      add\n        /* \"#utility.yul\":2688:2714   */\n      swap1\n      pop\n        /* \"#utility.yul\":2724:2795   */\n      tag_177\n        /* \"#utility.yul\":2792:2793   */\n      0x00\n        /* \"#utility.yul\":2781:2790   */\n      dup4\n        /* \"#utility.yul\":2777:2794   */\n      add\n        /* \"#utility.yul\":2768:2774   */\n      dup5\n        /* \"#utility.yul\":2724:2795   */\n      tag_125\n      jump\t// in\n    tag_177:\n        /* \"#utility.yul\":2580:2802   */\n      swap3\n      swap2\n      pop\n      pop\n      jump\t// out\n        /* \"#utility.yul\":2808:2950   */\n    tag_126:\n        /* \"#utility.yul\":2911:2943   */\n      tag_179\n        /* \"#utility.yul\":2937:2942   */\n      dup2\n        /* \"#utility.yul\":2911:2943   */\n      tag_121\n      jump\t// in\n    tag_179:\n        /* \"#utility.yul\":2906:2909   */\n      dup3\n        /* \"#utility.yul\":2899:2944   */\n      mstore\n        /* \"#utility.yul\":2808:2950   */\n      pop\n      pop\n      jump\t// out\n        /* \"#utility.yul\":2956:3210   */\n    tag_40:\n        /* \"#utility.yul\":3065:3069   */\n      0x00\n        /* \"#utility.yul\":3103:3105   */\n      0x20\n        /* \"#utility.yul\":3092:3101   */\n      dup3\n        /* \"#utility.yul\":3088:3106   */\n      add\n        /* \"#utility.yul\":3080:3106   */\n      swap1\n      pop\n        /* \"#utility.yul\":3116:3203   */\n      tag_181\n        /* \"#utility.yul\":3200:3201   */\n      0x00\n        /* \"#utility.yul\":3189:3198   */\n      dup4\n        /* \"#utility.yul\":3185:3202   */\n      add\n        /* \"#utility.yul\":3176:3182   */\n      dup5\n        /* \"#utility.yul\":3116:3203   */\n      tag_126\n      jump\t// in\n    tag_181:\n        /* \"#utility.yul\":2956:3210   */\n      swap3\n      swap2\n      pop\n      pop\n      jump\t// out\n        /* \"#utility.yul\":3216:3306   */\n    tag_127:\n        /* \"#utility.yul\":3250:3257   */\n      0x00\n        /* \"#utility.yul\":3293:3298   */\n      dup2\n        /* \"#utility.yul\":3286:3299   */\n      iszero\n        /* \"#utility.yul\":3279:3300   */\n      iszero\n        /* \"#utility.yul\":3268:3300   */\n      swap1\n      pop\n        /* \"#utility.yul\":3216:3306   */\n      swap2\n      swap1\n      pop\n      jump\t// out\n        /* \"#utility.yul\":3312:3421   */\n    tag_128:\n        /* \"#utility.yul\":3393:3414   */\n      tag_184\n        /* \"#utility.yul\":3408:3413   */\n      dup2\n        /* \"#utility.yul\":3393:3414   */\n      tag_127\n      jump\t// in\n    tag_184:\n        /* \"#utility.yul\":3388:3391   */\n      dup3\n        /* \"#utility.yul\":3381:3415   */\n      mstore\n        /* \"#utility.yul\":3312:3421   */\n      pop\n      pop\n      jump\t// out\n        /* \"#utility.yul\":3427:3637   */\n    tag_51:\n        /* \"#utility.yul\":3514:3518   */\n      0x00\n        /* \"#utility.yul\":3552:3554   */\n      0x20\n        /* \"#utility.yul\":3541:3550   */\n      dup3\n        /* \"#utility.yul\":3537:3555   */\n      add\n        /* \"#utility.yul\":3529:3555   */\n      swap1\n      pop\n        /* \"#utility.yul\":3565:3630   */\n      tag_186\n        /* \"#utility.yul\":3627:3628   */\n      0x00\n        /* \"#utility.yul\":3616:3625   */\n      dup4\n        /* \"#utility.yul\":3612:3629   */\n      add\n        /* \"#utility.yul\":3603:3609   */\n      dup5\n        /* \"#utility.yul\":3565:3630   */\n      tag_128\n      jump\t// in\n    tag_186:\n        /* \"#utility.yul\":3427:3637   */\n      swap3\n      swap2\n      pop\n      pop\n      jump\t// out\n        /* \"#utility.yul\":3643:3811   */\n    tag_129:\n        /* \"#utility.yul\":3783:3803   */\n      0x4f6e6c79206f776e657220616c6c6f7765640000000000000000000000000000\n        /* \"#utility.yul\":3779:3780   */\n      0x00\n        /* \"#utility.yul\":3771:3777   */\n      dup3\n        /* \"#utility.yul\":3767:3781   */\n      add\n        /* \"#utility.yul\":3760:3804   */\n      mstore\n        /* \"#utility.yul\":3643:3811   */\n      pop\n      jump\t// out\n        /* \"#utility.yul\":3817:4183   */\n    tag_130:\n        /* \"#utility.yul\":3959:3962   */\n      0x00\n        /* \"#utility.yul\":3980:4047   */\n      tag_189\n        /* \"#utility.yul\":4044:4046   */\n      0x12\n        /* \"#utility.yul\":4039:4042   */\n      dup4\n        /* \"#utility.yul\":3980:4047   */\n      tag_114\n      jump\t// in\n    tag_189:\n        /* \"#utility.yul\":3973:4047   */\n      swap2\n      pop\n        /* \"#utility.yul\":4056:4149   */\n      tag_190\n        /* \"#utility.yul\":4145:4148   */\n      dup3\n        /* \"#utility.yul\":4056:4149   */\n      tag_129\n      jump\t// in\n    tag_190:\n        /* \"#utility.yul\":4174:4176   */\n      0x20\n        /* \"#utility.yul\":4169:4172   */\n      dup3\n        /* \"#utility.yul\":4165:4177   */\n      add\n        /* \"#utility.yul\":4158:4177   */\n      swap1\n      pop\n        /* \"#utility.yul\":3817:4183   */\n      swap2\n      swap1\n      pop\n      jump\t// out\n        /* \"#utility.yul\":4189:4608   */\n    tag_59:\n        /* \"#utility.yul\":4355:4359   */\n      0x00\n        /* \"#utility.yul\":4393:4395   */\n      0x20\n        /* \"#utility.yul\":4382:4391   */\n      dup3\n        /* \"#utility.yul\":4378:4396   */\n      add\n        /* \"#utility.yul\":4370:4396   */\n      swap1\n      pop\n        /* \"#utility.yul\":4442:4451   */\n      dup2\n        /* \"#utility.yul\":4436:4440   */\n      dup2\n        /* \"#utility.yul\":4432:4452   */\n      sub\n        /* \"#utility.yul\":4428:4429   */\n      0x00\n        /* \"#utility.yul\":4417:4426   */\n      dup4\n        /* \"#utility.yul\":4413:4430   */\n      add\n        /* \"#utility.yul\":4406:4453   */\n      mstore\n        /* \"#utility.yul\":4470:4601   */\n      tag_192\n        /* \"#utility.yul\":4596:4600   */\n      dup2\n        /* \"#utility.yul\":4470:4601   */\n      tag_130\n      jump\t// in\n    tag_192:\n        /* \"#utility.yul\":4462:4601   */\n      swap1\n      pop\n        /* \"#utility.yul\":4189:4608   */\n      swap2\n      swap1\n      pop\n      jump\t// out\n        /* \"#utility.yul\":4614:4784   */\n    tag_131:\n        /* \"#utility.yul\":4754:4776   */\n      0x496e76616c6964206e6577207265636569766572000000000000000000000000\n        /* \"#utility.yul\":4750:4751   */\n      0x00\n        /* \"#utility.yul\":4742:4748   */\n      dup3\n        /* \"#utility.yul\":4738:4752   */\n      add\n        /* \"#utility.yul\":4731:4777   */\n      mstore\n        /* \"#utility.yul\":4614:4784   */\n      pop\n      jump\t// out\n        /* \"#utility.yul\":4790:5156   */\n    tag_132:\n        /* \"#utility.yul\":4932:4935   */\n      0x00\n        /* \"#utility.yul\":4953:5020   */\n      tag_195\n        /* \"#utility.yul\":5017:5019   */\n      0x14\n        /* \"#utility.yul\":5012:5015   */\n      dup4\n        /* \"#utility.yul\":4953:5020   */\n      tag_114\n      jump\t// in\n    tag_195:\n        /* \"#utility.yul\":4946:5020   */\n      swap2\n      pop\n        /* \"#utility.yul\":5029:5122   */\n      tag_196\n        /* \"#utility.yul\":5118:5121   */\n      dup3\n        /* \"#utility.yul\":5029:5122   */\n      tag_131\n      jump\t// in\n    tag_196:\n        /* \"#utility.yul\":5147:5149   */\n      0x20\n        /* \"#utility.yul\":5142:5145   */\n      dup3\n        /* \"#utility.yul\":5138:5150   */\n      add\n        /* \"#utility.yul\":5131:5150   */\n      swap1\n      pop\n        /* \"#utility.yul\":4790:5156   */\n      swap2\n      swap1\n      pop\n      jump\t// out\n        /* \"#utility.yul\":5162:5581   */\n    tag_63:\n        /* \"#utility.yul\":5328:5332   */\n      0x00\n        /* \"#utility.yul\":5366:5368   */\n      0x20\n        /* \"#utility.yul\":5355:5364   */\n      dup3\n        /* \"#utility.yul\":5351:5369   */\n      add\n        /* \"#utility.yul\":5343:5369   */\n      swap1\n      pop\n        /* \"#utility.yul\":5415:5424   */\n      dup2\n        /* \"#utility.yul\":5409:5413   */\n      dup2\n        /* \"#utility.yul\":5405:5425   */\n      sub\n        /* \"#utility.yul\":5401:5402   */\n      0x00\n        /* \"#utility.yul\":5390:5399   */\n      dup4\n        /* \"#utility.yul\":5386:5403   */\n      add\n        /* \"#utility.yul\":5379:5426   */\n      mstore\n        /* \"#utility.yul\":5443:5574   */\n      tag_198\n        /* \"#utility.yul\":5569:5573   */\n      dup2\n        /* \"#utility.yul\":5443:5574   */\n      tag_132\n      jump\t// in\n    tag_198:\n        /* \"#utility.yul\":5435:5574   */\n      swap1\n      pop\n        /* \"#utility.yul\":5162:5581   */\n      swap2\n      swap1\n      pop\n      jump\t// out\n        /* \"#utility.yul\":5587:5746   */\n    tag_133:\n        /* \"#utility.yul\":5727:5738   */\n      0x5265656e7472616e740000000000000000000000000000000000000000000000\n        /* \"#utility.yul\":5723:5724   */\n      0x00\n        /* \"#utility.yul\":5715:5721   */\n      dup3\n        /* \"#utility.yul\":5711:5725   */\n      add\n        /* \"#utility.yul\":5704:5739   */\n      mstore\n        /* \"#utility.yul\":5587:5746   */\n      pop\n      jump\t// out\n        /* \"#utility.yul\":5752:6117   */\n    tag_134:\n        /* \"#utility.yul\":5894:5897   */\n      0x00\n        /* \"#utility.yul\":5915:5981   */\n      tag_201\n        /* \"#utility.yul\":5979:5980   */\n      0x09\n        /* \"#utility.yul\":5974:5977   */\n      dup4\n        /* \"#utility.yul\":5915:5981   */\n      tag_114\n      jump\t// in\n    tag_201:\n        /* \"#utility.yul\":5908:5981   */\n      swap2\n      pop\n        /* \"#utility.yul\":5990:6083   */\n      tag_202\n        /* \"#utility.yul\":6079:6082   */\n      dup3\n        /* \"#utility.yul\":5990:6083   */\n      tag_133\n      jump\t// in\n    tag_202:\n        /* \"#utility.yul\":6108:6110   */\n      0x20\n        /* \"#utility.yul\":6103:6106   */\n      dup3\n        /* \"#utility.yul\":6099:6111   */\n      add\n        /* \"#utility.yul\":6092:6111   */\n      swap1\n      pop\n        /* \"#utility.yul\":5752:6117   */\n      swap2\n      swap1\n      pop\n      jump\t// out\n        /* \"#utility.yul\":6123:6542   */\n    tag_70:\n        /* \"#utility.yul\":6289:6293   */\n      0x00\n        /* \"#utility.yul\":6327:6329   */\n      0x20\n        /* \"#utility.yul\":6316:6325   */\n      dup3\n        /* \"#utility.yul\":6312:6330   */\n      add\n        /* \"#utility.yul\":6304:6330   */\n      swap1\n      pop\n        /* \"#utility.yul\":6376:6385   */\n      dup2\n        /* \"#utility.yul\":6370:6374   */\n      dup2\n        /* \"#utility.yul\":6366:6386   */\n      sub\n        /* \"#utility.yul\":6362:6363   */\n      0x00\n        /* \"#utility.yul\":6351:6360   */\n      dup4\n        /* \"#utility.yul\":6347:6364   */\n      add\n        /* \"#utility.yul\":6340:6387   */\n      mstore\n        /* \"#utility.yul\":6404:6535   */\n      tag_204\n        /* \"#utility.yul\":6530:6534   */\n      dup2\n        /* \"#utility.yul\":6404:6535   */\n      tag_134\n      jump\t// in\n    tag_204:\n        /* \"#utility.yul\":6396:6535   */\n      swap1\n      pop\n        /* \"#utility.yul\":6123:6542   */\n      swap2\n      swap1\n      pop\n      jump\t// out\n        /* \"#utility.yul\":6548:6716   */\n    tag_135:\n        /* \"#utility.yul\":6688:6708   */\n      0x4e6f2066756e647320746f20726566756e640000000000000000000000000000\n        /* \"#utility.yul\":6684:6685   */\n      0x00\n        /* \"#utility.yul\":6676:6682   */\n      dup3\n        /* \"#utility.yul\":6672:6686   */\n      add\n        /* \"#utility.yul\":6665:6709   */\n      mstore\n        /* \"#utility.yul\":6548:6716   */\n      pop\n      jump\t// out\n        /* \"#utility.yul\":6722:7088   */\n    tag_136:\n        /* \"#utility.yul\":6864:6867   */\n      0x00\n        /* \"#utility.yul\":6885:6952   */\n      tag_207\n        /* \"#utility.yul\":6949:6951   */\n      0x12\n        /* \"#utility.yul\":6944:6947   */\n      dup4\n        /* \"#utility.yul\":6885:6952   */\n      tag_114\n      jump\t// in\n    tag_207:\n        /* \"#utility.yul\":6878:6952   */\n      swap2\n      pop\n        /* \"#utility.yul\":6961:7054   */\n      tag_208\n        /* \"#utility.yul\":7050:7053   */\n      dup3\n        /* \"#utility.yul\":6961:7054   */\n      tag_135\n      jump\t// in\n    tag_208:\n        /* \"#utility.yul\":7079:7081   */\n      0x20\n        /* \"#utility.yul\":7074:7077   */\n      dup3\n        /* \"#utility.yul\":7070:7082   */\n      add\n        /* \"#utility.yul\":7063:7082   */\n      swap1\n      pop\n        /* \"#utility.yul\":6722:7088   */\n      swap2\n      swap1\n      pop\n      jump\t// out\n        /* \"#utility.yul\":7094:7513   */\n    tag_74:\n        /* \"#utility.yul\":7260:7264   */\n      0x00\n        /* \"#utility.yul\":7298:7300   */\n      0x20\n        /* \"#utility.yul\":7287:7296   */\n      dup3\n        /* \"#utility.yul\":7283:7301   */\n      add\n        /* \"#utility.yul\":7275:7301   */\n      swap1\n      pop\n        /* \"#utility.yul\":7347:7356   */\n      dup2\n        /* \"#utility.yul\":7341:7345   */\n      dup2\n        /* \"#utility.yul\":7337:7357   */\n      sub\n        /* \"#utility.yul\":7333:7334   */\n      0x00\n        /* \"#utility.yul\":7322:7331   */\n      dup4\n        /* \"#utility.yul\":7318:7335   */\n      add\n        /* \"#utility.yul\":7311:7358   */\n      mstore\n        /* \"#utility.yul\":7375:7506   */\n      tag_210\n        /* \"#utility.yul\":7501:7505   */\n      dup2\n        /* \"#utility.yul\":7375:7506   */\n      tag_136\n      jump\t// in\n    tag_210:\n        /* \"#utility.yul\":7367:7506   */\n      swap1\n      pop\n        /* \"#utility.yul\":7094:7513   */\n      swap2\n      swap1\n      pop\n      jump\t// out\n        /* \"#utility.yul\":7519:7666   */\n    tag_137:\n        /* \"#utility.yul\":7620:7631   */\n      0x00\n        /* \"#utility.yul\":7657:7660   */\n      dup2\n        /* \"#utility.yul\":7642:7660   */\n      swap1\n      pop\n        /* \"#utility.yul\":7519:7666   */\n      swap3\n      swap2\n      pop\n      pop\n      jump\t// out\n        /* \"#utility.yul\":7672:7786   */\n    tag_138:\n      pop\n      jump\t// out\n        /* \"#utility.yul\":7792:8190   */\n    tag_139:\n        /* \"#utility.yul\":7951:7954   */\n      0x00\n        /* \"#utility.yul\":7972:8055   */\n      tag_214\n        /* \"#utility.yul\":8053:8054   */\n      0x00\n        /* \"#utility.yul\":8048:8051   */\n      dup4\n        /* \"#utility.yul\":7972:8055   */\n      tag_137\n      jump\t// in\n    tag_214:\n        /* \"#utility.yul\":7965:8055   */\n      swap2\n      pop\n        /* \"#utility.yul\":8064:8157   */\n      tag_215\n        /* \"#utility.yul\":8153:8156   */\n      dup3\n        /* \"#utility.yul\":8064:8157   */\n      tag_138\n      jump\t// in\n    tag_215:\n        /* \"#utility.yul\":8182:8183   */\n      0x00\n        /* \"#utility.yul\":8177:8180   */\n      dup3\n        /* \"#utility.yul\":8173:8184   */\n      add\n        /* \"#utility.yul\":8166:8184   */\n      swap1\n      pop\n        /* \"#utility.yul\":7792:8190   */\n      swap2\n      swap1\n      pop\n      jump\t// out\n        /* \"#utility.yul\":8196:8575   */\n    tag_76:\n        /* \"#utility.yul\":8380:8383   */\n      0x00\n        /* \"#utility.yul\":8402:8549   */\n      tag_217\n        /* \"#utility.yul\":8545:8548   */\n      dup3\n        /* \"#utility.yul\":8402:8549   */\n      tag_139\n      jump\t// in\n    tag_217:\n        /* \"#utility.yul\":8395:8549   */\n      swap2\n      pop\n        /* \"#utility.yul\":8566:8569   */\n      dup2\n        /* \"#utility.yul\":8559:8569   */\n      swap1\n      pop\n        /* \"#utility.yul\":8196:8575   */\n      swap2\n      swap1\n      pop\n      jump\t// out\n        /* \"#utility.yul\":8581:8744   */\n    tag_140:\n        /* \"#utility.yul\":8721:8736   */\n      0x526566756e64206661696c656400000000000000000000000000000000000000\n        /* \"#utility.yul\":8717:8718   */\n      0x00\n        /* \"#utility.yul\":8709:8715   */\n      dup3\n        /* \"#utility.yul\":8705:8719   */\n      add\n        /* \"#utility.yul\":8698:8737   */\n      mstore\n        /* \"#utility.yul\":8581:8744   */\n      pop\n      jump\t// out\n        /* \"#utility.yul\":8750:9116   */\n    tag_141:\n        /* \"#utility.yul\":8892:8895   */\n      0x00\n        /* \"#utility.yul\":8913:8980   */\n      tag_220\n        /* \"#utility.yul\":8977:8979   */\n      0x0d\n        /* \"#utility.yul\":8972:8975   */\n      dup4\n        /* \"#utility.yul\":8913:8980   */\n      tag_114\n      jump\t// in\n    tag_220:\n        /* \"#utility.yul\":8906:8980   */\n      swap2\n      pop\n        /* \"#utility.yul\":8989:9082   */\n      tag_221\n        /* \"#utility.yul\":9078:9081   */\n      dup3\n        /* \"#utility.yul\":8989:9082   */\n      tag_140\n      jump\t// in\n    tag_221:\n        /* \"#utility.yul\":9107:9109   */\n      0x20\n        /* \"#utility.yul\":9102:9105   */\n      dup3\n        /* \"#utility.yul\":9098:9110   */\n      add\n        /* \"#utility.yul\":9091:9110   */\n      swap1\n      pop\n        /* \"#utility.yul\":8750:9116   */\n      swap2\n      swap1\n      pop\n      jump\t// out\n        /* \"#utility.yul\":9122:9541   */\n    tag_82:\n        /* \"#utility.yul\":9288:9292   */\n      0x00\n        /* \"#utility.yul\":9326:9328   */\n      0x20\n        /* \"#utility.yul\":9315:9324   */\n      dup3\n        /* \"#utility.yul\":9311:9329   */\n      add\n        /* \"#utility.yul\":9303:9329   */\n      swap1\n      pop\n        /* \"#utility.yul\":9375:9384   */\n      dup2\n        /* \"#utility.yul\":9369:9373   */\n      dup2\n        /* \"#utility.yul\":9365:9385   */\n      sub\n        /* \"#utility.yul\":9361:9362   */\n      0x00\n        /* \"#utility.yul\":9350:9359   */\n      dup4\n        /* \"#utility.yul\":9346:9363   */\n      add\n        /* \"#utility.yul\":9339:9386   */\n      mstore\n        /* \"#utility.yul\":9403:9534   */\n      tag_223\n        /* \"#utility.yul\":9529:9533   */\n      dup2\n        /* \"#utility.yul\":9403:9534   */\n      tag_141\n      jump\t// in\n    tag_223:\n        /* \"#utility.yul\":9395:9534   */\n      swap1\n      pop\n        /* \"#utility.yul\":9122:9541   */\n      swap2\n      swap1\n      pop\n      jump\t// out\n        /* \"#utility.yul\":9547:9716   */\n    tag_142:\n        /* \"#utility.yul\":9687:9708   */\n      0x4e6f2066756e647320746f2072656c6561736500000000000000000000000000\n        /* \"#utility.yul\":9683:9684   */\n      0x00\n        /* \"#utility.yul\":9675:9681   */\n      dup3\n        /* \"#utility.yul\":9671:9685   */\n      add\n        /* \"#utility.yul\":9664:9709   */\n      mstore\n        /* \"#utility.yul\":9547:9716   */\n      pop\n      jump\t// out\n        /* \"#utility.yul\":9722:10088   */\n    tag_143:\n        /* \"#utility.yul\":9864:9867   */\n      0x00\n        /* \"#utility.yul\":9885:9952   */\n      tag_226\n        /* \"#utility.yul\":9949:9951   */\n      0x13\n        /* \"#utility.yul\":9944:9947   */\n      dup4\n        /* \"#utility.yul\":9885:9952   */\n      tag_114\n      jump\t// in\n    tag_226:\n        /* \"#utility.yul\":9878:9952   */\n      swap2\n      pop\n        /* \"#utility.yul\":9961:10054   */\n      tag_227\n        /* \"#utility.yul\":10050:10053   */\n      dup3\n        /* \"#utility.yul\":9961:10054   */\n      tag_142\n      jump\t// in\n    tag_227:\n        /* \"#utility.yul\":10079:10081   */\n      0x20\n        /* \"#utility.yul\":10074:10077   */\n      dup3\n        /* \"#utility.yul\":10070:10082   */\n      add\n        /* \"#utility.yul\":10063:10082   */\n      swap1\n      pop\n        /* \"#utility.yul\":9722:10088   */\n      swap2\n      swap1\n      pop\n      jump\t// out\n        /* \"#utility.yul\":10094:10513   */\n    tag_93:\n        /* \"#utility.yul\":10260:10264   */\n      0x00\n        /* \"#utility.yul\":10298:10300   */\n      0x20\n        /* \"#utility.yul\":10287:10296   */\n      dup3\n        /* \"#utility.yul\":10283:10301   */\n      add\n        /* \"#utility.yul\":10275:10301   */\n      swap1\n      pop\n        /* \"#utility.yul\":10347:10356   */\n      dup2\n        /* \"#utility.yul\":10341:10345   */\n      dup2\n        /* \"#utility.yul\":10337:10357   */\n      sub\n        /* \"#utility.yul\":10333:10334   */\n      0x00\n        /* \"#utility.yul\":10322:10331   */\n      dup4\n        /* \"#utility.yul\":10318:10335   */\n      add\n        /* \"#utility.yul\":10311:10358   */\n      mstore\n        /* \"#utility.yul\":10375:10506   */\n      tag_229\n        /* \"#utility.yul\":10501:10505   */\n      dup2\n        /* \"#utility.yul\":10375:10506   */\n      tag_143\n      jump\t// in\n    tag_229:\n        /* \"#utility.yul\":10367:10506   */\n      swap1\n      pop\n        /* \"#utility.yul\":10094:10513   */\n      swap2\n      swap1\n      pop\n      jump\t// out\n        /* \"#utility.yul\":10519:10696   */\n    tag_144:\n        /* \"#utility.yul\":10659:10688   */\n      0x5472616e7366657220746f207265636569766572206661696c65640000000000\n        /* \"#utility.yul\":10655:10656   */\n      0x00\n        /* \"#utility.yul\":10647:10653   */\n      dup3\n        /* \"#utility.yul\":10643:10657   */\n      add\n        /* \"#utility.yul\":10636:10689   */\n      mstore\n        /* \"#utility.yul\":10519:10696   */\n      pop\n      jump\t// out\n        /* \"#utility.yul\":10702:11068   */\n    tag_145:\n        /* \"#utility.yul\":10844:10847   */\n      0x00\n        /* \"#utility.yul\":10865:10932   */\n      tag_232\n        /* \"#utility.yul\":10929:10931   */\n      0x1b\n        /* \"#utility.yul\":10924:10927   */\n      dup4\n        /* \"#utility.yul\":10865:10932   */\n      tag_114\n      jump\t// in\n    tag_232:\n        /* \"#utility.yul\":10858:10932   */\n      swap2\n      pop\n        /* \"#utility.yul\":10941:11034   */\n      tag_233\n        /* \"#utility.yul\":11030:11033   */\n      dup3\n        /* \"#utility.yul\":10941:11034   */\n      tag_144\n      jump\t// in\n    tag_233:\n        /* \"#utility.yul\":11059:11061   */\n      0x20\n        /* \"#utility.yul\":11054:11057   */\n      dup3\n        /* \"#utility.yul\":11050:11062   */\n      add\n        /* \"#utility.yul\":11043:11062   */\n      swap1\n      pop\n        /* \"#utility.yul\":10702:11068   */\n      swap2\n      swap1\n      pop\n      jump\t// out\n        /* \"#utility.yul\":11074:11493   */\n    tag_100:\n        /* \"#utility.yul\":11240:11244   */\n      0x00\n        /* \"#utility.yul\":11278:11280   */\n      0x20\n        /* \"#utility.yul\":11267:11276   */\n      dup3\n        /* \"#utility.yul\":11263:11281   */\n      add\n        /* \"#utility.yul\":11255:11281   */\n      swap1\n      pop\n        /* \"#utility.yul\":11327:11336   */\n      dup2\n        /* \"#utility.yul\":11321:11325   */\n      dup2\n        /* \"#utility.yul\":11317:11337   */\n      sub\n        /* \"#utility.yul\":11313:11314   */\n      0x00\n        /* \"#utility.yul\":11302:11311   */\n      dup4\n        /* \"#utility.yul\":11298:11315   */\n      add\n        /* \"#utility.yul\":11291:11338   */\n      mstore\n        /* \"#utility.yul\":11355:11486   */\n      tag_235\n        /* \"#utility.yul\":11481:11485   */\n      dup2\n        /* \"#utility.yul\":11355:11486   */\n      tag_145\n      jump\t// in\n    tag_235:\n        /* \"#utility.yul\":11347:11486   */\n      swap1\n      pop\n        /* \"#utility.yul\":11074:11493   */\n      swap2\n      swap1\n      pop\n      jump\t// out\n        /* \"#utility.yul\":11499:11670   */\n    tag_146:\n        /* \"#utility.yul\":11639:11662   */\n      0x457363726f7720616c72656164792066756e6465640000000000000000000000\n        /* \"#utility.yul\":11635:11636   */\n      0x00\n        /* \"#utility.yul\":11627:11633   */\n      dup3\n        /* \"#utility.yul\":11623:11637   */\n      add\n        /* \"#utility.yul\":11616:11663   */\n      mstore\n        /* \"#utility.yul\":11499:11670   */\n      pop\n      jump\t// out\n        /* \"#utility.yul\":11676:12042   */\n    tag_147:\n        /* \"#utility.yul\":11818:11821   */\n      0x00\n        /* \"#utility.yul\":11839:11906   */\n      tag_238\n        /* \"#utility.yul\":11903:11905   */\n      0x15\n        /* \"#utility.yul\":11898:11901   */\n      dup4\n        /* \"#utility.yul\":11839:11906   */\n      tag_114\n      jump\t// in\n    tag_238:\n        /* \"#utility.yul\":11832:11906   */\n      swap2\n      pop\n        /* \"#utility.yul\":11915:12008   */\n      tag_239\n        /* \"#utility.yul\":12004:12007   */\n      dup3\n        /* \"#utility.yul\":11915:12008   */\n      tag_146\n      jump\t// in\n    tag_239:\n        /* \"#utility.yul\":12033:12035   */\n      0x20\n        /* \"#utility.yul\":12028:12031   */\n      dup3\n        /* \"#utility.yul\":12024:12036   */\n      add\n        /* \"#utility.yul\":12017:12036   */\n      swap1\n      pop\n        /* \"#utility.yul\":11676:12042   */\n      swap2\n      swap1\n      pop\n      jump\t// out\n        /* \"#utility.yul\":12048:12467   */\n    tag_109:\n        /* \"#utility.yul\":12214:12218   */\n      0x00\n        /* \"#utility.yul\":12252:12254   */\n      0x20\n        /* \"#utility.yul\":12241:12250   */\n      dup3\n        /* \"#utility.yul\":12237:12255   */\n      add\n        /* \"#utility.yul\":12229:12255   */\n      swap1\n      pop\n        /* \"#utility.yul\":12301:12310   */\n      dup2\n        /* \"#utility.yul\":12295:12299   */\n      dup2\n        /* \"#utility.yul\":12291:12311   */\n      sub\n        /* \"#utility.yul\":12287:12288   */\n      0x00\n        /* \"#utility.yul\":12276:12285   */\n      dup4\n        /* \"#utility.yul\":12272:12289   */\n      add\n        /* \"#utility.yul\":12265:12312   */\n      mstore\n        /* \"#utility.yul\":12329:12460   */\n      tag_241\n        /* \"#utility.yul\":12455:12459   */\n      dup2\n        /* \"#utility.yul\":12329:12460   */\n      tag_147\n      jump\t// in\n    tag_241:\n        /* \"#utility.yul\":12321:12460   */\n      swap1\n      pop\n        /* \"#utility.yul\":12048:12467   */\n      swap2\n      swap1\n      pop\n      jump\t// out\n        /* \"#utility.yul\":12473:12640   */\n    tag_148:\n        /* \"#utility.yul\":12613:12632   */\n      0x4d7573742073656e64203e203020455448000000000000000000000000000000\n        /* \"#utility.yul\":12609:12610   */\n      0x00\n        /* \"#utility.yul\":12601:12607   */\n      dup3\n        /* \"#utility.yul\":12597:12611   */\n      add\n        /* \"#utility.yul\":12590:12633   */\n      mstore\n        /* \"#utility.yul\":12473:12640   */\n      pop\n      jump\t// out\n        /* \"#utility.yul\":12646:13012   */\n    tag_149:\n        /* \"#utility.yul\":12788:12791   */\n      0x00\n        /* \"#utility.yul\":12809:12876   */\n      tag_244\n        /* \"#utility.yul\":12873:12875   */\n      0x11\n        /* \"#utility.yul\":12868:12871   */\n      dup4\n        /* \"#utility.yul\":12809:12876   */\n      tag_114\n      jump\t// in\n    tag_244:\n        /* \"#utility.yul\":12802:12876   */\n      swap2\n      pop\n        /* \"#utility.yul\":12885:12978   */\n      tag_245\n        /* \"#utility.yul\":12974:12977   */\n      dup3\n        /* \"#utility.yul\":12885:12978   */\n      tag_148\n      jump\t// in\n    tag_245:\n        /* \"#utility.yul\":13003:13005   */\n      0x20\n        /* \"#utility.yul\":12998:13001   */\n      dup3\n        /* \"#utility.yul\":12994:13006   */\n      add\n        /* \"#utility.yul\":12987:13006   */\n      swap1\n      pop\n        /* \"#utility.yul\":12646:13012   */\n      swap2\n      swap1\n      pop\n      jump\t// out\n        /* \"#utility.yul\":13018:13437   */\n    tag_112:\n        /* \"#utility.yul\":13184:13188   */\n      0x00\n        /* \"#utility.yul\":13222:13224   */\n      0x20\n        /* \"#utility.yul\":13211:13220   */\n      dup3\n        /* \"#utility.yul\":13207:13225   */\n      add\n        /* \"#utility.yul\":13199:13225   */\n      swap1\n      pop\n        /* \"#utility.yul\":13271:13280   */\n      dup2\n        /* \"#utility.yul\":13265:13269   */\n      dup2\n        /* \"#utility.yul\":13261:13281   */\n      sub\n        /* \"#utility.yul\":13257:13258   */\n      0x00\n        /* \"#utility.yul\":13246:13255   */\n      dup4\n        /* \"#utility.yul\":13242:13259   */\n      add\n        /* \"#utility.yul\":13235:13282   */\n      mstore\n        /* \"#utility.yul\":13299:13430   */\n      tag_247\n        /* \"#utility.yul\":13425:13429   */\n      dup2\n        /* \"#utility.yul\":13299:13430   */\n      tag_149\n      jump\t// in\n    tag_247:\n        /* \"#utility.yul\":13291:13430   */\n      swap1\n      pop\n        /* \"#utility.yul\":13018:13437   */\n      swap2\n      swap1\n      pop\n      jump\t// out\n\n    auxdata: 0xa26469706673582212206461abb3fb7bf3d2bc45855a88a165c70f186a18007d19d183a3e2cd849852b164736f6c63430008140033\n}\n",
				"bytecode": {
					"linkReferences": {},
					"object": "608060405234801562000010575f80fd5b506040516200136338038062001363833981810160405281019062000036919062000192565b5f73ffffffffffffffffffffffffffffffffffffffff168173ffffffffffffffffffffffffffffffffffffffff1603620000a7576040517f08c379a00000000000000000000000000000000000000000000000000000000081526004016200009e9062000220565b60405180910390fd5b335f806101000a81548173ffffffffffffffffffffffffffffffffffffffff021916908373ffffffffffffffffffffffffffffffffffffffff1602179055508060015f6101000a81548173ffffffffffffffffffffffffffffffffffffffff021916908373ffffffffffffffffffffffffffffffffffffffff1602179055505062000240565b5f80fd5b5f73ffffffffffffffffffffffffffffffffffffffff82169050919050565b5f6200015c8262000131565b9050919050565b6200016e8162000150565b811462000179575f80fd5b50565b5f815190506200018c8162000163565b92915050565b5f60208284031215620001aa57620001a96200012d565b5b5f620001b9848285016200017c565b91505092915050565b5f82825260208201905092915050565b7f5265636569766572206973207a65726f206164647265737300000000000000005f82015250565b5f62000208601883620001c2565b91506200021582620001d2565b602082019050919050565b5f6020820190508181035f8301526200023981620001fa565b9050919050565b611115806200024e5f395ff3fe608060405260043610610089575f3560e01c80638da5cb5b116100585780638da5cb5b14610182578063aa8c217c146101ac578063d0e30db0146101d6578063f3a504f2146101e0578063f7260d3e1461020a576100c9565b8063547e3f0614610104578063590e1ae31461012c57806386d1a69f146101425780638b7afe2e14610158576100c9565b366100c9576040517f08c379a00000000000000000000000000000000000000000000000000000000081526004016100c090610bc3565b60405180910390fd5b6040517f08c379a00000000000000000000000000000000000000000000000000000000081526004016100fb90610bc3565b60405180910390fd5b34801561010f575f80fd5b5061012a60048036038101906101259190610c3f565b610234565b005b348015610137575f80fd5b506101406103f2565b005b34801561014d575f80fd5b506101566106b1565b005b348015610163575f80fd5b5061016c610973565b6040516101799190610c82565b60405180910390f35b34801561018d575f80fd5b5061019661097a565b6040516101a39190610caa565b60405180910390f35b3480156101b7575f80fd5b506101c061099d565b6040516101cd9190610c82565b60405180910390f35b6101de6109a3565b005b3480156101eb575f80fd5b506101f4610b32565b6040516102019190610cdd565b60405180910390f35b348015610215575f80fd5b5061021e610b44565b60405161022b9190610caa565b60405180910390f35b5f8054906101000a900473ffffffffffffffffffffffffffffffffffffffff1673ffffffffffffffffffffffffffffffffffffffff163373ffffffffffffffffffffffffffffffffffffffff16146102c1576040517f08c379a00000000000000000000000000000000000000000000000000000000081526004016102b890610d40565b60405180910390fd5b5f73ffffffffffffffffffffffffffffffffffffffff168173ffffffffffffffffffffffffffffffffffffffff160361032f576040517f08c379a000000000000000000000000000000000000000000000000000000000815260040161032690610da8565b60405180910390fd5b5f60015f9054906101000a900473ffffffffffffffffffffffffffffffffffffffff1690508160015f6101000a81548173ffffffffffffffffffffffffffffffffffffffff021916908373ffffffffffffffffffffffffffffffffffffffff1602179055508173ffffffffffffffffffffffffffffffffffffffff168173ffffffffffffffffffffffffffffffffffffffff167fd36aafedb017e43b79d3cf6aa1987d3fbb9fff33e1738c71dbf6b2abaadbded060405160405180910390a35050565b5f8054906101000a900473ffffffffffffffffffffffffffffffffffffffff1673ffffffffffffffffffffffffffffffffffffffff163373ffffffffffffffffffffffffffffffffffffffff161461047f576040517f08c379a000000000000000000000000000000000000000000000000000000000815260040161047690610d40565b60405180910390fd5b600360019054906101000a900460ff16156104cf576040517f08c379a00000000000000000000000000000000000000000000000000000000081526004016104c690610e10565b60405180910390fd5b6001600360016101000a81548160ff02191690831515021790555060035f9054906101000a900460ff16610538576040517f08c379a000000000000000000000000000000000000000000000000000000000815260040161052f90610e78565b60405180910390fd5b5f60025490505f60035f6101000a81548160ff0219169083151502179055505f6002819055505f805f9054906101000a900473ffffffffffffffffffffffffffffffffffffffff1673ffffffffffffffffffffffffffffffffffffffff16826040516105a390610ec3565b5f6040518083038185875af1925050503d805f81146105dd576040519150601f19603f3d011682016040523d82523d5f602084013e6105e2565b606091505b5050905080610626576040517f08c379a000000000000000000000000000000000000000000000000000000000815260040161061d90610f21565b60405180910390fd5b5f8054906101000a900473ffffffffffffffffffffffffffffffffffffffff1673ffffffffffffffffffffffffffffffffffffffff167fd7dee2702d63ad89917b6a4da9981c90c4d24f8c2bdfd64c604ecae57d8d06518360405161068b9190610c82565b60405180910390a250505f600360016101000a81548160ff021916908315150217905550565b5f8054906101000a900473ffffffffffffffffffffffffffffffffffffffff1673ffffffffffffffffffffffffffffffffffffffff163373ffffffffffffffffffffffffffffffffffffffff161461073e576040517f08c379a000000000000000000000000000000000000000000000000000000000815260040161073590610d40565b60405180910390fd5b600360019054906101000a900460ff161561078e576040517f08c379a000000000000000000000000000000000000000000000000000000000815260040161078590610e10565b60405180910390fd5b6001600360016101000a81548160ff02191690831515021790555060035f9054906101000a900460ff166107f7576040517f08c379a00000000000000000000000000000000000000000000000000000000081526004016107ee90610f89565b60405180910390fd5b5f60025490505f60035f6101000a81548160ff0219169083151502179055505f6002819055505f60015f9054906101000a900473ffffffffffffffffffffffffffffffffffffffff1673ffffffffffffffffffffffffffffffffffffffff168260405161086390610ec3565b5f6040518083038185875af1925050503d805f811461089d576040519150601f19603f3d011682016040523d82523d5f602084013e6108a2565b606091505b50509050806108e6576040517f08c379a00000000000000000000000000000000000000000000000000000000081526004016108dd90610ff1565b60405180910390fd5b60015f9054906101000a900473ffffffffffffffffffffffffffffffffffffffff1673ffffffffffffffffffffffffffffffffffffffff167fb21fb52d5749b80f3182f8c6992236b5e5576681880914484d7f4c9b062e619e8360405161094d9190610c82565b60405180910390a250505f600360016101000a81548160ff021916908315150217905550565b5f47905090565b5f8054906101000a900473ffffffffffffffffffffffffffffffffffffffff1681565b60025481565b5f8054906101000a900473ffffffffffffffffffffffffffffffffffffffff1673ffffffffffffffffffffffffffffffffffffffff163373ffffffffffffffffffffffffffffffffffffffff1614610a30576040517f08c379a0000000000000000000000000000000000000000000000000000000008152600401610a2790610d40565b60405180910390fd5b60035f9054906101000a900460ff1615610a7f576040517f08c379a0000000000000000000000000000000000000000000000000000000008152600401610a7690611059565b60405180910390fd5b5f3411610ac1576040517f08c379a0000000000000000000000000000000000000000000000000000000008152600401610ab8906110c1565b60405180910390fd5b34600281905550600160035f6101000a81548160ff0219169083151502179055503373ffffffffffffffffffffffffffffffffffffffff167f2da466a7b24304f47e87fa2e1e5a81b9831ce54fec19055ce277ca2f39ba42c434604051610b289190610c82565b60405180910390a2565b60035f9054906101000a900460ff1681565b60015f9054906101000a900473ffffffffffffffffffffffffffffffffffffffff1681565b5f82825260208201905092915050565b7f557365206465706f7369742829000000000000000000000000000000000000005f82015250565b5f610bad600d83610b69565b9150610bb882610b79565b602082019050919050565b5f6020820190508181035f830152610bda81610ba1565b9050919050565b5f80fd5b5f73ffffffffffffffffffffffffffffffffffffffff82169050919050565b5f610c0e82610be5565b9050919050565b610c1e81610c04565b8114610c28575f80fd5b50565b5f81359050610c3981610c15565b92915050565b5f60208284031215610c5457610c53610be1565b5b5f610c6184828501610c2b565b91505092915050565b5f819050919050565b610c7c81610c6a565b82525050565b5f602082019050610c955f830184610c73565b92915050565b610ca481610c04565b82525050565b5f602082019050610cbd5f830184610c9b565b92915050565b5f8115159050919050565b610cd781610cc3565b82525050565b5f602082019050610cf05f830184610cce565b92915050565b7f4f6e6c79206f776e657220616c6c6f77656400000000000000000000000000005f82015250565b5f610d2a601283610b69565b9150610d3582610cf6565b602082019050919050565b5f6020820190508181035f830152610d5781610d1e565b9050919050565b7f496e76616c6964206e65772072656365697665720000000000000000000000005f82015250565b5f610d92601483610b69565b9150610d9d82610d5e565b602082019050919050565b5f6020820190508181035f830152610dbf81610d86565b9050919050565b7f5265656e7472616e7400000000000000000000000000000000000000000000005f82015250565b5f610dfa600983610b69565b9150610e0582610dc6565b602082019050919050565b5f6020820190508181035f830152610e2781610dee565b9050919050565b7f4e6f2066756e647320746f20726566756e6400000000000000000000000000005f82015250565b5f610e62601283610b69565b9150610e6d82610e2e565b602082019050919050565b5f6020820190508181035f830152610e8f81610e56565b9050919050565b5f81905092915050565b50565b5f610eae5f83610e96565b9150610eb982610ea0565b5f82019050919050565b5f610ecd82610ea3565b9150819050919050565b7f526566756e64206661696c6564000000000000000000000000000000000000005f82015250565b5f610f0b600d83610b69565b9150610f1682610ed7565b602082019050919050565b5f6020820190508181035f830152610f3881610eff565b9050919050565b7f4e6f2066756e647320746f2072656c65617365000000000000000000000000005f82015250565b5f610f73601383610b69565b9150610f7e82610f3f565b602082019050919050565b5f6020820190508181035f830152610fa081610f67565b9050919050565b7f5472616e7366657220746f207265636569766572206661696c656400000000005f82015250565b5f610fdb601b83610b69565b9150610fe682610fa7565b602082019050919050565b5f6020820190508181035f83015261100881610fcf565b9050919050565b7f457363726f7720616c72656164792066756e64656400000000000000000000005f82015250565b5f611043601583610b69565b915061104e8261100f565b602082019050919050565b5f6020820190508181035f83015261107081611037565b9050919050565b7f4d7573742073656e64203e2030204554480000000000000000000000000000005f82015250565b5f6110ab601183610b69565b91506110b682611077565b602082019050919050565b5f6020820190508181035f8301526110d88161109f565b905091905056fea26469706673582212206461abb3fb7bf3d2bc45855a88a165c70f186a18007d19d183a3e2cd849852b164736f6c63430008140033",
					"opcodes": "PUSH1 0x80 PUSH1 0x40 MSTORE CALLVALUE DUP1 ISZERO PUSH3 0x10 JUMPI PUSH0 DUP1 REVERT JUMPDEST POP PUSH1 0x40 MLOAD PUSH3 0x1363 CODESIZE SUB DUP1 PUSH3 0x1363 DUP4 CODECOPY DUP2 DUP2 ADD PUSH1 0x40 MSTORE DUP2 ADD SWAP1 PUSH3 0x36 SWAP2 SWAP1 PUSH3 0x192 JUMP JUMPDEST PUSH0 PUSH20 0xFFFFFFFFFFFFFFFFFFFFFFFFFFFFFFFFFFFFFFFF AND DUP2 PUSH20 0xFFFFFFFFFFFFFFFFFFFFFFFFFFFFFFFFFFFFFFFF AND SUB PUSH3 0xA7 JUMPI PUSH1 0x40 MLOAD PUSH32 0x8C379A000000000000000000000000000000000000000000000000000000000 DUP2 MSTORE PUSH1 0x4 ADD PUSH3 0x9E SWAP1 PUSH3 0x220 JUMP JUMPDEST PUSH1 0x40 MLOAD DUP1 SWAP2 SUB SWAP1 REVERT JUMPDEST CALLER PUSH0 DUP1 PUSH2 0x100 EXP DUP2 SLOAD DUP2 PUSH20 0xFFFFFFFFFFFFFFFFFFFFFFFFFFFFFFFFFFFFFFFF MUL NOT AND SWAP1 DUP4 PUSH20 0xFFFFFFFFFFFFFFFFFFFFFFFFFFFFFFFFFFFFFFFF AND MUL OR SWAP1 SSTORE POP DUP1 PUSH1 0x1 PUSH0 PUSH2 0x100 EXP DUP2 SLOAD DUP2 PUSH20 0xFFFFFFFFFFFFFFFFFFFFFFFFFFFFFFFFFFFFFFFF MUL NOT AND SWAP1 DUP4 PUSH20 0xFFFFFFFFFFFFFFFFFFFFFFFFFFFFFFFFFFFFFFFF AND MUL OR SWAP1 SSTORE POP POP PUSH3 0x240 JUMP JUMPDEST PUSH0 DUP1 REVERT JUMPDEST PUSH0 PUSH20 0xFFFFFFFFFFFFFFFFFFFFFFFFFFFFFFFFFFFFFFFF DUP3 AND SWAP1 POP SWAP2 SWAP1 POP JUMP JUMPDEST PUSH0 PUSH3 0x15C DUP3 PUSH3 0x131 JUMP JUMPDEST SWAP1 POP SWAP2 SWAP1 POP JUMP JUMPDEST PUSH3 0x16E DUP2 PUSH3 0x150 JUMP JUMPDEST DUP2 EQ PUSH3 0x179 JUMPI PUSH0 DUP1 REVERT JUMPDEST POP JUMP JUMPDEST PUSH0 DUP2 MLOAD SWAP1 POP PUSH3 0x18C DUP2 PUSH3 0x163 JUMP JUMPDEST SWAP3 SWAP2 POP POP JUMP JUMPDEST PUSH0 PUSH1 0x20 DUP3 DUP5 SUB SLT ISZERO PUSH3 0x1AA JUMPI PUSH3 0x1A9 PUSH3 0x12D JUMP JUMPDEST JUMPDEST PUSH0 PUSH3 0x1B9 DUP5 DUP3 DUP6 ADD PUSH3 0x17C JUMP JUMPDEST SWAP2 POP POP SWAP3 SWAP2 POP POP JUMP JUMPDEST PUSH0 DUP3 DUP3 MSTORE PUSH1 0x20 DUP3 ADD SWAP1 POP SWAP3 SWAP2 POP POP JUMP JUMPDEST PUSH32 0x5265636569766572206973207A65726F20616464726573730000000000000000 PUSH0 DUP3 ADD MSTORE POP JUMP JUMPDEST PUSH0 PUSH3 0x208 PUSH1 0x18 DUP4 PUSH3 0x1C2 JUMP JUMPDEST SWAP2 POP PUSH3 0x215 DUP3 PUSH3 0x1D2 JUMP JUMPDEST PUSH1 0x20 DUP3 ADD SWAP1 POP SWAP2 SWAP1 POP JUMP JUMPDEST PUSH0 PUSH1 0x20 DUP3 ADD SWAP1 POP DUP2 DUP2 SUB PUSH0 DUP4 ADD MSTORE PUSH3 0x239 DUP2 PUSH3 0x1FA JUMP JUMPDEST SWAP1 POP SWAP2 SWAP1 POP JUMP JUMPDEST PUSH2 0x1115 DUP1 PUSH3 0x24E PUSH0 CODECOPY PUSH0 RETURN INVALID PUSH1 0x80 PUSH1 0x40 MSTORE PUSH1 0x4 CALLDATASIZE LT PUSH2 0x89 JUMPI PUSH0 CALLDATALOAD PUSH1 0xE0 SHR DUP1 PUSH4 0x8DA5CB5B GT PUSH2 0x58 JUMPI DUP1 PUSH4 0x8DA5CB5B EQ PUSH2 0x182 JUMPI DUP1 PUSH4 0xAA8C217C EQ PUSH2 0x1AC JUMPI DUP1 PUSH4 0xD0E30DB0 EQ PUSH2 0x1D6 JUMPI DUP1 PUSH4 0xF3A504F2 EQ PUSH2 0x1E0 JUMPI DUP1 PUSH4 0xF7260D3E EQ PUSH2 0x20A JUMPI PUSH2 0xC9 JUMP JUMPDEST DUP1 PUSH4 0x547E3F06 EQ PUSH2 0x104 JUMPI DUP1 PUSH4 0x590E1AE3 EQ PUSH2 0x12C JUMPI DUP1 PUSH4 0x86D1A69F EQ PUSH2 0x142 JUMPI DUP1 PUSH4 0x8B7AFE2E EQ PUSH2 0x158 JUMPI PUSH2 0xC9 JUMP JUMPDEST CALLDATASIZE PUSH2 0xC9 JUMPI PUSH1 0x40 MLOAD PUSH32 0x8C379A000000000000000000000000000000000000000000000000000000000 DUP2 MSTORE PUSH1 0x4 ADD PUSH2 0xC0 SWAP1 PUSH2 0xBC3 JUMP JUMPDEST PUSH1 0x40 MLOAD DUP1 SWAP2 SUB SWAP1 REVERT JUMPDEST PUSH1 0x40 MLOAD PUSH32 0x8C379A000000000000000000000000000000000000000000000000000000000 DUP2 MSTORE PUSH1 0x4 ADD PUSH2 0xFB SWAP1 PUSH2 0xBC3 JUMP JUMPDEST PUSH1 0x40 MLOAD DUP1 SWAP2 SUB SWAP1 REVERT JUMPDEST CALLVALUE DUP1 ISZERO PUSH2 0x10F JUMPI PUSH0 DUP1 REVERT JUMPDEST POP PUSH2 0x12A PUSH1 0x4 DUP1 CALLDATASIZE SUB DUP2 ADD SWAP1 PUSH2 0x125 SWAP2 SWAP1 PUSH2 0xC3F JUMP JUMPDEST PUSH2 0x234 JUMP JUMPDEST STOP JUMPDEST CALLVALUE DUP1 ISZERO PUSH2 0x137 JUMPI PUSH0 DUP1 REVERT JUMPDEST POP PUSH2 0x140 PUSH2 0x3F2 JUMP JUMPDEST STOP JUMPDEST CALLVALUE DUP1 ISZERO PUSH2 0x14D JUMPI PUSH0 DUP1 REVERT JUMPDEST POP PUSH2 0x156 PUSH2 0x6B1 JUMP JUMPDEST STOP JUMPDEST CALLVALUE DUP1 ISZERO PUSH2 0x163 JUMPI PUSH0 DUP1 REVERT JUMPDEST POP PUSH2 0x16C PUSH2 0x973 JUMP JUMPDEST PUSH1 0x40 MLOAD PUSH2 0x179 SWAP2 SWAP1 PUSH2 0xC82 JUMP JUMPDEST PUSH1 0x40 MLOAD DUP1 SWAP2 SUB SWAP1 RETURN JUMPDEST CALLVALUE DUP1 ISZERO PUSH2 0x18D JUMPI PUSH0 DUP1 REVERT JUMPDEST POP PUSH2 0x196 PUSH2 0x97A JUMP JUMPDEST PUSH1 0x40 MLOAD PUSH2 0x1A3 SWAP2 SWAP1 PUSH2 0xCAA JUMP JUMPDEST PUSH1 0x40 MLOAD DUP1 SWAP2 SUB SWAP1 RETURN JUMPDEST CALLVALUE DUP1 ISZERO PUSH2 0x1B7 JUMPI PUSH0 DUP1 REVERT JUMPDEST POP PUSH2 0x1C0 PUSH2 0x99D JUMP JUMPDEST PUSH1 0x40 MLOAD PUSH2 0x1CD SWAP2 SWAP1 PUSH2 0xC82 JUMP JUMPDEST PUSH1 0x40 MLOAD DUP1 SWAP2 SUB SWAP1 RETURN JUMPDEST PUSH2 0x1DE PUSH2 0x9A3 JUMP JUMPDEST STOP JUMPDEST CALLVALUE DUP1 ISZERO PUSH2 0x1EB JUMPI PUSH0 DUP1 REVERT JUMPDEST POP PUSH2 0x1F4 PUSH2 0xB32 JUMP JUMPDEST PUSH1 0x40 MLOAD PUSH2 0x201 SWAP2 SWAP1 PUSH2 0xCDD JUMP JUMPDEST PUSH1 0x40 MLOAD DUP1 SWAP2 SUB SWAP1 RETURN JUMPDEST CALLVALUE DUP1 ISZERO PUSH2 0x215 JUMPI PUSH0 DUP1 REVERT JUMPDEST POP PUSH2 0x21E PUSH2 0xB44 JUMP JUMPDEST PUSH1 0x40 MLOAD PUSH2 0x22B SWAP2 SWAP1 PUSH2 0xCAA JUMP JUMPDEST PUSH1 0x40 MLOAD DUP1 SWAP2 SUB SWAP1 RETURN JUMPDEST PUSH0 DUP1 SLOAD SWAP1 PUSH2 0x100 EXP SWAP1 DIV PUSH20 0xFFFFFFFFFFFFFFFFFFFFFFFFFFFFFFFFFFFFFFFF AND PUSH20 0xFFFFFFFFFFFFFFFFFFFFFFFFFFFFFFFFFFFFFFFF AND CALLER PUSH20 0xFFFFFFFFFFFFFFFFFFFFFFFFFFFFFFFFFFFFFFFF AND EQ PUSH2 0x2C1 JUMPI PUSH1 0x40 MLOAD PUSH32 0x8C379A000000000000000000000000000000000000000000000000000000000 DUP2 MSTORE PUSH1 0x4 ADD PUSH2 0x2B8 SWAP1 PUSH2 0xD40 JUMP JUMPDEST PUSH1 0x40 MLOAD DUP1 SWAP2 SUB SWAP1 REVERT JUMPDEST PUSH0 PUSH20 0xFFFFFFFFFFFFFFFFFFFFFFFFFFFFFFFFFFFFFFFF AND DUP2 PUSH20 0xFFFFFFFFFFFFFFFFFFFFFFFFFFFFFFFFFFFFFFFF AND SUB PUSH2 0x32F JUMPI PUSH1 0x40 MLOAD PUSH32 0x8C379A000000000000000000000000000000000000000000000000000000000 DUP2 MSTORE PUSH1 0x4 ADD PUSH2 0x326 SWAP1 PUSH2 0xDA8 JUMP JUMPDEST PUSH1 0x40 MLOAD DUP1 SWAP2 SUB SWAP1 REVERT JUMPDEST PUSH0 PUSH1 0x1 PUSH0 SWAP1 SLOAD SWAP1 PUSH2 0x100 EXP SWAP1 DIV PUSH20 0xFFFFFFFFFFFFFFFFFFFFFFFFFFFFFFFFFFFFFFFF AND SWAP1 POP DUP2 PUSH1 0x1 PUSH0 PUSH2 0x100 EXP DUP2 SLOAD DUP2 PUSH20 0xFFFFFFFFFFFFFFFFFFFFFFFFFFFFFFFFFFFFFFFF MUL NOT AND SWAP1 DUP4 PUSH20 0xFFFFFFFFFFFFFFFFFFFFFFFFFFFFFFFFFFFFFFFF AND MUL OR SWAP1 SSTORE POP DUP2 PUSH20 0xFFFFFFFFFFFFFFFFFFFFFFFFFFFFFFFFFFFFFFFF AND DUP2 PUSH20 0xFFFFFFFFFFFFFFFFFFFFFFFFFFFFFFFFFFFFFFFF AND PUSH32 0xD36AAFEDB017E43B79D3CF6AA1987D3FBB9FFF33E1738C71DBF6B2ABAADBDED0 PUSH1 0x40 MLOAD PUSH1 0x40 MLOAD DUP1 SWAP2 SUB SWAP1 LOG3 POP POP JUMP JUMPDEST PUSH0 DUP1 SLOAD SWAP1 PUSH2 0x100 EXP SWAP1 DIV PUSH20 0xFFFFFFFFFFFFFFFFFFFFFFFFFFFFFFFFFFFFFFFF AND PUSH20 0xFFFFFFFFFFFFFFFFFFFFFFFFFFFFFFFFFFFFFFFF AND CALLER PUSH20 0xFFFFFFFFFFFFFFFFFFFFFFFFFFFFFFFFFFFFFFFF AND EQ PUSH2 0x47F JUMPI PUSH1 0x40 MLOAD PUSH32 0x8C379A000000000000000000000000000000000000000000000000000000000 DUP2 MSTORE PUSH1 0x4 ADD PUSH2 0x476 SWAP1 PUSH2 0xD40 JUMP JUMPDEST PUSH1 0x40 MLOAD DUP1 SWAP2 SUB SWAP1 REVERT JUMPDEST PUSH1 0x3 PUSH1 0x1 SWAP1 SLOAD SWAP1 PUSH2 0x100 EXP SWAP1 DIV PUSH1 0xFF AND ISZERO PUSH2 0x4CF JUMPI PUSH1 0x40 MLOAD PUSH32 0x8C379A000000000000000000000000000000000000000000000000000000000 DUP2 MSTORE PUSH1 0x4 ADD PUSH2 0x4C6 SWAP1 PUSH2 0xE10 JUMP JUMPDEST PUSH1 0x40 MLOAD DUP1 SWAP2 SUB SWAP1 REVERT JUMPDEST PUSH1 0x1 PUSH1 0x3 PUSH1 0x1 PUSH2 0x100 EXP DUP2 SLOAD DUP2 PUSH1 0xFF MUL NOT AND SWAP1 DUP4 ISZERO ISZERO MUL OR SWAP1 SSTORE POP PUSH1 0x3 PUSH0 SWAP1 SLOAD SWAP1 PUSH2 0x100 EXP SWAP1 DIV PUSH1 0xFF AND PUSH2 0x538 JUMPI PUSH1 0x40 MLOAD PUSH32 0x8C379A000000000000000000000000000000000000000000000000000000000 DUP2 MSTORE PUSH1 0x4 ADD PUSH2 0x52F SWAP1 PUSH2 0xE78 JUMP JUMPDEST PUSH1 0x40 MLOAD DUP1 SWAP2 SUB SWAP1 REVERT JUMPDEST PUSH0 PUSH1 0x2 SLOAD SWAP1 POP PUSH0 PUSH1 0x3 PUSH0 PUSH2 0x100 EXP DUP2 SLOAD DUP2 PUSH1 0xFF MUL NOT AND SWAP1 DUP4 ISZERO ISZERO MUL OR SWAP1 SSTORE POP PUSH0 PUSH1 0x2 DUP2 SWAP1 SSTORE POP PUSH0 DUP1 PUSH0 SWAP1 SLOAD SWAP1 PUSH2 0x100 EXP SWAP1 DIV PUSH20 0xFFFFFFFFFFFFFFFFFFFFFFFFFFFFFFFFFFFFFFFF AND PUSH20 0xFFFFFFFFFFFFFFFFFFFFFFFFFFFFFFFFFFFFFFFF AND DUP3 PUSH1 0x40 MLOAD PUSH2 0x5A3 SWAP1 PUSH2 0xEC3 JUMP JUMPDEST PUSH0 PUSH1 0x40 MLOAD DUP1 DUP4 SUB DUP2 DUP6 DUP8 GAS CALL SWAP3 POP POP POP RETURNDATASIZE DUP1 PUSH0 DUP2 EQ PUSH2 0x5DD JUMPI PUSH1 0x40 MLOAD SWAP2 POP PUSH1 0x1F NOT PUSH1 0x3F RETURNDATASIZE ADD AND DUP3 ADD PUSH1 0x40 MSTORE RETURNDATASIZE DUP3 MSTORE RETURNDATASIZE PUSH0 PUSH1 0x20 DUP5 ADD RETURNDATACOPY PUSH2 0x5E2 JUMP JUMPDEST PUSH1 0x60 SWAP2 POP JUMPDEST POP POP SWAP1 POP DUP1 PUSH2 0x626 JUMPI PUSH1 0x40 MLOAD PUSH32 0x8C379A000000000000000000000000000000000000000000000000000000000 DUP2 MSTORE PUSH1 0x4 ADD PUSH2 0x61D SWAP1 PUSH2 0xF21 JUMP JUMPDEST PUSH1 0x40 MLOAD DUP1 SWAP2 SUB SWAP1 REVERT JUMPDEST PUSH0 DUP1 SLOAD SWAP1 PUSH2 0x100 EXP SWAP1 DIV PUSH20 0xFFFFFFFFFFFFFFFFFFFFFFFFFFFFFFFFFFFFFFFF AND PUSH20 0xFFFFFFFFFFFFFFFFFFFFFFFFFFFFFFFFFFFFFFFF AND PUSH32 0xD7DEE2702D63AD89917B6A4DA9981C90C4D24F8C2BDFD64C604ECAE57D8D0651 DUP4 PUSH1 0x40 MLOAD PUSH2 0x68B SWAP2 SWAP1 PUSH2 0xC82 JUMP JUMPDEST PUSH1 0x40 MLOAD DUP1 SWAP2 SUB SWAP1 LOG2 POP POP PUSH0 PUSH1 0x3 PUSH1 0x1 PUSH2 0x100 EXP DUP2 SLOAD DUP2 PUSH1 0xFF MUL NOT AND SWAP1 DUP4 ISZERO ISZERO MUL OR SWAP1 SSTORE POP JUMP JUMPDEST PUSH0 DUP1 SLOAD SWAP1 PUSH2 0x100 EXP SWAP1 DIV PUSH20 0xFFFFFFFFFFFFFFFFFFFFFFFFFFFFFFFFFFFFFFFF AND PUSH20 0xFFFFFFFFFFFFFFFFFFFFFFFFFFFFFFFFFFFFFFFF AND CALLER PUSH20 0xFFFFFFFFFFFFFFFFFFFFFFFFFFFFFFFFFFFFFFFF AND EQ PUSH2 0x73E JUMPI PUSH1 0x40 MLOAD PUSH32 0x8C379A000000000000000000000000000000000000000000000000000000000 DUP2 MSTORE PUSH1 0x4 ADD PUSH2 0x735 SWAP1 PUSH2 0xD40 JUMP JUMPDEST PUSH1 0x40 MLOAD DUP1 SWAP2 SUB SWAP1 REVERT JUMPDEST PUSH1 0x3 PUSH1 0x1 SWAP1 SLOAD SWAP1 PUSH2 0x100 EXP SWAP1 DIV PUSH1 0xFF AND ISZERO PUSH2 0x78E JUMPI PUSH1 0x40 MLOAD PUSH32 0x8C379A000000000000000000000000000000000000000000000000000000000 DUP2 MSTORE PUSH1 0x4 ADD PUSH2 0x785 SWAP1 PUSH2 0xE10 JUMP JUMPDEST PUSH1 0x40 MLOAD DUP1 SWAP2 SUB SWAP1 REVERT JUMPDEST PUSH1 0x1 PUSH1 0x3 PUSH1 0x1 PUSH2 0x100 EXP DUP2 SLOAD DUP2 PUSH1 0xFF MUL NOT AND SWAP1 DUP4 ISZERO ISZERO MUL OR SWAP1 SSTORE POP PUSH1 0x3 PUSH0 SWAP1 SLOAD SWAP1 PUSH2 0x100 EXP SWAP1 DIV PUSH1 0xFF AND PUSH2 0x7F7 JUMPI PUSH1 0x40 MLOAD PUSH32 0x8C379A000000000000000000000000000000000000000000000000000000000 DUP2 MSTORE PUSH1 0x4 ADD PUSH2 0x7EE SWAP1 PUSH2 0xF89 JUMP JUMPDEST PUSH1 0x40 MLOAD DUP1 SWAP2 SUB SWAP1 REVERT JUMPDEST PUSH0 PUSH1 0x2 SLOAD SWAP1 POP PUSH0 PUSH1 0x3 PUSH0 PUSH2 0x100 EXP DUP2 SLOAD DUP2 PUSH1 0xFF MUL NOT AND SWAP1 DUP4 ISZERO ISZERO MUL OR SWAP1 SSTORE POP PUSH0 PUSH1 0x2 DUP2 SWAP1 SSTORE POP PUSH0 PUSH1 0x1 PUSH0 SWAP1 SLOAD SWAP1 PUSH2 0x100 EXP SWAP1 DIV PUSH20 0xFFFFFFFFFFFFFFFFFFFFFFFFFFFFFFFFFFFFFFFF AND PUSH20 0xFFFFFFFFFFFFFFFFFFFFFFFFFFFFFFFFFFFFFFFF AND DUP3 PUSH1 0x40 MLOAD PUSH2 0x863 SWAP1 PUSH2 0xEC3 JUMP JUMPDEST PUSH0 PUSH1 0x40 MLOAD DUP1 DUP4 SUB DUP2 DUP6 DUP8 GAS CALL SWAP3 POP POP POP RETURNDATASIZE DUP1 PUSH0 DUP2 EQ PUSH2 0x89D JUMPI PUSH1 0x40 MLOAD SWAP2 POP PUSH1 0x1F NOT PUSH1 0x3F RETURNDATASIZE ADD AND DUP3 ADD PUSH1 0x40 MSTORE RETURNDATASIZE DUP3 MSTORE RETURNDATASIZE PUSH0 PUSH1 0x20 DUP5 ADD RETURNDATACOPY PUSH2 0x8A2 JUMP JUMPDEST PUSH1 0x60 SWAP2 POP JUMPDEST POP POP SWAP1 POP DUP1 PUSH2 0x8E6 JUMPI PUSH1 0x40 MLOAD PUSH32 0x8C379A000000000000000000000000000000000000000000000000000000000 DUP2 MSTORE PUSH1 0x4 ADD PUSH2 0x8DD SWAP1 PUSH2 0xFF1 JUMP JUMPDEST PUSH1 0x40 MLOAD DUP1 SWAP2 SUB SWAP1 REVERT JUMPDEST PUSH1 0x1 PUSH0 SWAP1 SLOAD SWAP1 PUSH2 0x100 EXP SWAP1 DIV PUSH20 0xFFFFFFFFFFFFFFFFFFFFFFFFFFFFFFFFFFFFFFFF AND PUSH20 0xFFFFFFFFFFFFFFFFFFFFFFFFFFFFFFFFFFFFFFFF AND PUSH32 0xB21FB52D5749B80F3182F8C6992236B5E5576681880914484D7F4C9B062E619E DUP4 PUSH1 0x40 MLOAD PUSH2 0x94D SWAP2 SWAP1 PUSH2 0xC82 JUMP JUMPDEST PUSH1 0x40 MLOAD DUP1 SWAP2 SUB SWAP1 LOG2 POP POP PUSH0 PUSH1 0x3 PUSH1 0x1 PUSH2 0x100 EXP DUP2 SLOAD DUP2 PUSH1 0xFF MUL NOT AND SWAP1 DUP4 ISZERO ISZERO MUL OR SWAP1 SSTORE POP JUMP JUMPDEST PUSH0 SELFBALANCE SWAP1 POP SWAP1 JUMP JUMPDEST PUSH0 DUP1 SLOAD SWAP1 PUSH2 0x100 EXP SWAP1 DIV PUSH20 0xFFFFFFFFFFFFFFFFFFFFFFFFFFFFFFFFFFFFFFFF AND DUP2 JUMP JUMPDEST PUSH1 0x2 SLOAD DUP2 JUMP JUMPDEST PUSH0 DUP1 SLOAD SWAP1 PUSH2 0x100 EXP SWAP1 DIV PUSH20 0xFFFFFFFFFFFFFFFFFFFFFFFFFFFFFFFFFFFFFFFF AND PUSH20 0xFFFFFFFFFFFFFFFFFFFFFFFFFFFFFFFFFFFFFFFF AND CALLER PUSH20 0xFFFFFFFFFFFFFFFFFFFFFFFFFFFFFFFFFFFFFFFF AND EQ PUSH2 0xA30 JUMPI PUSH1 0x40 MLOAD PUSH32 0x8C379A000000000000000000000000000000000000000000000000000000000 DUP2 MSTORE PUSH1 0x4 ADD PUSH2 0xA27 SWAP1 PUSH2 0xD40 JUMP JUMPDEST PUSH1 0x40 MLOAD DUP1 SWAP2 SUB SWAP1 REVERT JUMPDEST PUSH1 0x3 PUSH0 SWAP1 SLOAD SWAP1 PUSH2 0x100 EXP SWAP1 DIV PUSH1 0xFF AND ISZERO PUSH2 0xA7F JUMPI PUSH1 0x40 MLOAD PUSH32 0x8C379A000000000000000000000000000000000000000000000000000000000 DUP2 MSTORE PUSH1 0x4 ADD PUSH2 0xA76 SWAP1 PUSH2 0x1059 JUMP JUMPDEST PUSH1 0x40 MLOAD DUP1 SWAP2 SUB SWAP1 REVERT JUMPDEST PUSH0 CALLVALUE GT PUSH2 0xAC1 JUMPI PUSH1 0x40 MLOAD PUSH32 0x8C379A000000000000000000000000000000000000000000000000000000000 DUP2 MSTORE PUSH1 0x4 ADD PUSH2 0xAB8 SWAP1 PUSH2 0x10C1 JUMP JUMPDEST PUSH1 0x40 MLOAD DUP1 SWAP2 SUB SWAP1 REVERT JUMPDEST CALLVALUE PUSH1 0x2 DUP2 SWAP1 SSTORE POP PUSH1 0x1 PUSH1 0x3 PUSH0 PUSH2 0x100 EXP DUP2 SLOAD DUP2 PUSH1 0xFF MUL NOT AND SWAP1 DUP4 ISZERO ISZERO MUL OR SWAP1 SSTORE POP CALLER PUSH20 0xFFFFFFFFFFFFFFFFFFFFFFFFFFFFFFFFFFFFFFFF AND PUSH32 0x2DA466A7B24304F47E87FA2E1E5A81B9831CE54FEC19055CE277CA2F39BA42C4 CALLVALUE PUSH1 0x40 MLOAD PUSH2 0xB28 SWAP2 SWAP1 PUSH2 0xC82 JUMP JUMPDEST PUSH1 0x40 MLOAD DUP1 SWAP2 SUB SWAP1 LOG2 JUMP JUMPDEST PUSH1 0x3 PUSH0 SWAP1 SLOAD SWAP1 PUSH2 0x100 EXP SWAP1 DIV PUSH1 0xFF AND DUP2 JUMP JUMPDEST PUSH1 0x1 PUSH0 SWAP1 SLOAD SWAP1 PUSH2 0x100 EXP SWAP1 DIV PUSH20 0xFFFFFFFFFFFFFFFFFFFFFFFFFFFFFFFFFFFFFFFF AND DUP2 JUMP JUMPDEST PUSH0 DUP3 DUP3 MSTORE PUSH1 0x20 DUP3 ADD SWAP1 POP SWAP3 SWAP2 POP POP JUMP JUMPDEST PUSH32 0x557365206465706F736974282900000000000000000000000000000000000000 PUSH0 DUP3 ADD MSTORE POP JUMP JUMPDEST PUSH0 PUSH2 0xBAD PUSH1 0xD DUP4 PUSH2 0xB69 JUMP JUMPDEST SWAP2 POP PUSH2 0xBB8 DUP3 PUSH2 0xB79 JUMP JUMPDEST PUSH1 0x20 DUP3 ADD SWAP1 POP SWAP2 SWAP1 POP JUMP JUMPDEST PUSH0 PUSH1 0x20 DUP3 ADD SWAP1 POP DUP2 DUP2 SUB PUSH0 DUP4 ADD MSTORE PUSH2 0xBDA DUP2 PUSH2 0xBA1 JUMP JUMPDEST SWAP1 POP SWAP2 SWAP1 POP JUMP JUMPDEST PUSH0 DUP1 REVERT JUMPDEST PUSH0 PUSH20 0xFFFFFFFFFFFFFFFFFFFFFFFFFFFFFFFFFFFFFFFF DUP3 AND SWAP1 POP SWAP2 SWAP1 POP JUMP JUMPDEST PUSH0 PUSH2 0xC0E DUP3 PUSH2 0xBE5 JUMP JUMPDEST SWAP1 POP SWAP2 SWAP1 POP JUMP JUMPDEST PUSH2 0xC1E DUP2 PUSH2 0xC04 JUMP JUMPDEST DUP2 EQ PUSH2 0xC28 JUMPI PUSH0 DUP1 REVERT JUMPDEST POP JUMP JUMPDEST PUSH0 DUP2 CALLDATALOAD SWAP1 POP PUSH2 0xC39 DUP2 PUSH2 0xC15 JUMP JUMPDEST SWAP3 SWAP2 POP POP JUMP JUMPDEST PUSH0 PUSH1 0x20 DUP3 DUP5 SUB SLT ISZERO PUSH2 0xC54 JUMPI PUSH2 0xC53 PUSH2 0xBE1 JUMP JUMPDEST JUMPDEST PUSH0 PUSH2 0xC61 DUP5 DUP3 DUP6 ADD PUSH2 0xC2B JUMP JUMPDEST SWAP2 POP POP SWAP3 SWAP2 POP POP JUMP JUMPDEST PUSH0 DUP2 SWAP1 POP SWAP2 SWAP1 POP JUMP JUMPDEST PUSH2 0xC7C DUP2 PUSH2 0xC6A JUMP JUMPDEST DUP3 MSTORE POP POP JUMP JUMPDEST PUSH0 PUSH1 0x20 DUP3 ADD SWAP1 POP PUSH2 0xC95 PUSH0 DUP4 ADD DUP5 PUSH2 0xC73 JUMP JUMPDEST SWAP3 SWAP2 POP POP JUMP JUMPDEST PUSH2 0xCA4 DUP2 PUSH2 0xC04 JUMP JUMPDEST DUP3 MSTORE POP POP JUMP JUMPDEST PUSH0 PUSH1 0x20 DUP3 ADD SWAP1 POP PUSH2 0xCBD PUSH0 DUP4 ADD DUP5 PUSH2 0xC9B JUMP JUMPDEST SWAP3 SWAP2 POP POP JUMP JUMPDEST PUSH0 DUP2 ISZERO ISZERO SWAP1 POP SWAP2 SWAP1 POP JUMP JUMPDEST PUSH2 0xCD7 DUP2 PUSH2 0xCC3 JUMP JUMPDEST DUP3 MSTORE POP POP JUMP JUMPDEST PUSH0 PUSH1 0x20 DUP3 ADD SWAP1 POP PUSH2 0xCF0 PUSH0 DUP4 ADD DUP5 PUSH2 0xCCE JUMP JUMPDEST SWAP3 SWAP2 POP POP JUMP JUMPDEST PUSH32 0x4F6E6C79206F776E657220616C6C6F7765640000000000000000000000000000 PUSH0 DUP3 ADD MSTORE POP JUMP JUMPDEST PUSH0 PUSH2 0xD2A PUSH1 0x12 DUP4 PUSH2 0xB69 JUMP JUMPDEST SWAP2 POP PUSH2 0xD35 DUP3 PUSH2 0xCF6 JUMP JUMPDEST PUSH1 0x20 DUP3 ADD SWAP1 POP SWAP2 SWAP1 POP JUMP JUMPDEST PUSH0 PUSH1 0x20 DUP3 ADD SWAP1 POP DUP2 DUP2 SUB PUSH0 DUP4 ADD MSTORE PUSH2 0xD57 DUP2 PUSH2 0xD1E JUMP JUMPDEST SWAP1 POP SWAP2 SWAP1 POP JUMP JUMPDEST PUSH32 0x496E76616C6964206E6577207265636569766572000000000000000000000000 PUSH0 DUP3 ADD MSTORE POP JUMP JUMPDEST PUSH0 PUSH2 0xD92 PUSH1 0x14 DUP4 PUSH2 0xB69 JUMP JUMPDEST SWAP2 POP PUSH2 0xD9D DUP3 PUSH2 0xD5E JUMP JUMPDEST PUSH1 0x20 DUP3 ADD SWAP1 POP SWAP2 SWAP1 POP JUMP JUMPDEST PUSH0 PUSH1 0x20 DUP3 ADD SWAP1 POP DUP2 DUP2 SUB PUSH0 DUP4 ADD MSTORE PUSH2 0xDBF DUP2 PUSH2 0xD86 JUMP JUMPDEST SWAP1 POP SWAP2 SWAP1 POP JUMP JUMPDEST PUSH32 0x5265656E7472616E740000000000000000000000000000000000000000000000 PUSH0 DUP3 ADD MSTORE POP JUMP JUMPDEST PUSH0 PUSH2 0xDFA PUSH1 0x9 DUP4 PUSH2 0xB69 JUMP JUMPDEST SWAP2 POP PUSH2 0xE05 DUP3 PUSH2 0xDC6 JUMP JUMPDEST PUSH1 0x20 DUP3 ADD SWAP1 POP SWAP2 SWAP1 POP JUMP JUMPDEST PUSH0 PUSH1 0x20 DUP3 ADD SWAP1 POP DUP2 DUP2 SUB PUSH0 DUP4 ADD MSTORE PUSH2 0xE27 DUP2 PUSH2 0xDEE JUMP JUMPDEST SWAP1 POP SWAP2 SWAP1 POP JUMP JUMPDEST PUSH32 0x4E6F2066756E647320746F20726566756E640000000000000000000000000000 PUSH0 DUP3 ADD MSTORE POP JUMP JUMPDEST PUSH0 PUSH2 0xE62 PUSH1 0x12 DUP4 PUSH2 0xB69 JUMP JUMPDEST SWAP2 POP PUSH2 0xE6D DUP3 PUSH2 0xE2E JUMP JUMPDEST PUSH1 0x20 DUP3 ADD SWAP1 POP SWAP2 SWAP1 POP JUMP JUMPDEST PUSH0 PUSH1 0x20 DUP3 ADD SWAP1 POP DUP2 DUP2 SUB PUSH0 DUP4 ADD MSTORE PUSH2 0xE8F DUP2 PUSH2 0xE56 JUMP JUMPDEST SWAP1 POP SWAP2 SWAP1 POP JUMP JUMPDEST PUSH0 DUP2 SWAP1 POP SWAP3 SWAP2 POP POP JUMP JUMPDEST POP JUMP JUMPDEST PUSH0 PUSH2 0xEAE PUSH0 DUP4 PUSH2 0xE96 JUMP JUMPDEST SWAP2 POP PUSH2 0xEB9 DUP3 PUSH2 0xEA0 JUMP JUMPDEST PUSH0 DUP3 ADD SWAP1 POP SWAP2 SWAP1 POP JUMP JUMPDEST PUSH0 PUSH2 0xECD DUP3 PUSH2 0xEA3 JUMP JUMPDEST SWAP2 POP DUP2 SWAP1 POP SWAP2 SWAP1 POP JUMP JUMPDEST PUSH32 0x526566756E64206661696C656400000000000000000000000000000000000000 PUSH0 DUP3 ADD MSTORE POP JUMP JUMPDEST PUSH0 PUSH2 0xF0B PUSH1 0xD DUP4 PUSH2 0xB69 JUMP JUMPDEST SWAP2 POP PUSH2 0xF16 DUP3 PUSH2 0xED7 JUMP JUMPDEST PUSH1 0x20 DUP3 ADD SWAP1 POP SWAP2 SWAP1 POP JUMP JUMPDEST PUSH0 PUSH1 0x20 DUP3 ADD SWAP1 POP DUP2 DUP2 SUB PUSH0 DUP4 ADD MSTORE PUSH2 0xF38 DUP2 PUSH2 0xEFF JUMP JUMPDEST SWAP1 POP SWAP2 SWAP1 POP JUMP JUMPDEST PUSH32 0x4E6F2066756E647320746F2072656C6561736500000000000000000000000000 PUSH0 DUP3 ADD MSTORE POP JUMP JUMPDEST PUSH0 PUSH2 0xF73 PUSH1 0x13 DUP4 PUSH2 0xB69 JUMP JUMPDEST SWAP2 POP PUSH2 0xF7E DUP3 PUSH2 0xF3F JUMP JUMPDEST PUSH1 0x20 DUP3 ADD SWAP1 POP SWAP2 SWAP1 POP JUMP JUMPDEST PUSH0 PUSH1 0x20 DUP3 ADD SWAP1 POP DUP2 DUP2 SUB PUSH0 DUP4 ADD MSTORE PUSH2 0xFA0 DUP2 PUSH2 0xF67 JUMP JUMPDEST SWAP1 POP SWAP2 SWAP1 POP JUMP JUMPDEST PUSH32 0x5472616E7366657220746F207265636569766572206661696C65640000000000 PUSH0 DUP3 ADD MSTORE POP JUMP JUMPDEST PUSH0 PUSH2 0xFDB PUSH1 0x1B DUP4 PUSH2 0xB69 JUMP JUMPDEST SWAP2 POP PUSH2 0xFE6 DUP3 PUSH2 0xFA7 JUMP JUMPDEST PUSH1 0x20 DUP3 ADD SWAP1 POP SWAP2 SWAP1 POP JUMP JUMPDEST PUSH0 PUSH1 0x20 DUP3 ADD SWAP1 POP DUP2 DUP2 SUB PUSH0 DUP4 ADD MSTORE PUSH2 0x1008 DUP2 PUSH2 0xFCF JUMP JUMPDEST SWAP1 POP SWAP2 SWAP1 POP JUMP JUMPDEST PUSH32 0x457363726F7720616C72656164792066756E6465640000000000000000000000 PUSH0 DUP3 ADD MSTORE POP JUMP JUMPDEST PUSH0 PUSH2 0x1043 PUSH1 0x15 DUP4 PUSH2 0xB69 JUMP JUMPDEST SWAP2 POP PUSH2 0x104E DUP3 PUSH2 0x100F JUMP JUMPDEST PUSH1 0x20 DUP3 ADD SWAP1 POP SWAP2 SWAP1 POP JUMP JUMPDEST PUSH0 PUSH1 0x20 DUP3 ADD SWAP1 POP DUP2 DUP2 SUB PUSH0 DUP4 ADD MSTORE PUSH2 0x1070 DUP2 PUSH2 0x1037 JUMP JUMPDEST SWAP1 POP SWAP2 SWAP1 POP JUMP JUMPDEST PUSH32 0x4D7573742073656E64203E203020455448000000000000000000000000000000 PUSH0 DUP3 ADD MSTORE POP JUMP JUMPDEST PUSH0 PUSH2 0x10AB PUSH1 0x11 DUP4 PUSH2 0xB69 JUMP JUMPDEST SWAP2 POP PUSH2 0x10B6 DUP3 PUSH2 0x1077 JUMP JUMPDEST PUSH1 0x20 DUP3 ADD SWAP1 POP SWAP2 SWAP1 POP JUMP JUMPDEST PUSH0 PUSH1 0x20 DUP3 ADD SWAP1 POP DUP2 DUP2 SUB PUSH0 DUP4 ADD MSTORE PUSH2 0x10D8 DUP2 PUSH2 0x109F JUMP JUMPDEST SWAP1 POP SWAP2 SWAP1 POP JUMP INVALID LOG2 PUSH5 0x6970667358 0x22 SLT KECCAK256 PUSH5 0x61ABB3FB7B RETURN 0xD2 0xBC GASLIMIT DUP6 GAS DUP9 LOG1 PUSH6 0xC70F186A1800 PUSH30 0x19D183A3E2CD849852B164736F6C63430008140033000000000000000000 "
				},
				"gasEstimates": {
					"creation": {
						"codeDepositCost": "874600",
						"executionCost": "infinite",
						"totalCost": "infinite"
					},
					"external": {
						"": "467",
						"amount()": "2447",
						"changeReceiver(address)": "30608",
						"contractBalance()": "401",
						"deposit()": "52454",
						"funded()": "2532",
						"owner()": "2505",
						"receiver()": "2596",
						"refund()": "infinite",
						"release()": "infinite"
					}
				},
				"methodIdentifiers": {
					"amount()": "aa8c217c",
					"changeReceiver(address)": "547e3f06",
					"contractBalance()": "8b7afe2e",
					"deposit()": "d0e30db0",
					"funded()": "f3a504f2",
					"owner()": "8da5cb5b",
					"receiver()": "f7260d3e",
					"refund()": "590e1ae3",
					"release()": "86d1a69f"
				}
			},
			"storageLayout": {
				"storage": [
					{
						"astId": 4,
						"contract": "SmartContract/PaymentEscrow/PaymentEscrow.sol:Escrow",
						"label": "owner",
						"offset": 0,
						"slot": "0",
						"type": "t_address_payable"
					},
					{
						"astId": 6,
						"contract": "SmartContract/PaymentEscrow/PaymentEscrow.sol:Escrow",
						"label": "receiver",
						"offset": 0,
						"slot": "1",
						"type": "t_address_payable"
					},
					{
						"astId": 8,
						"contract": "SmartContract/PaymentEscrow/PaymentEscrow.sol:Escrow",
						"label": "amount",
						"offset": 0,
						"slot": "2",
						"type": "t_uint256"
					},
					{
						"astId": 10,
						"contract": "SmartContract/PaymentEscrow/PaymentEscrow.sol:Escrow",
						"label": "funded",
						"offset": 0,
						"slot": "3",
						"type": "t_bool"
					},
					{
						"astId": 12,
						"contract": "SmartContract/PaymentEscrow/PaymentEscrow.sol:Escrow",
						"label": "locked",
						"offset": 1,
						"slot": "3",
						"type": "t_bool"
					}
				],
				"types": {
					"t_address_payable": {
						"encoding": "inplace",
						"label": "address payable",
						"numberOfBytes": "20"
					},
					"t_bool": {
						"encoding": "inplace",
						"label": "bool",
						"numberOfBytes": "1"
					},
					"t_uint256": {
						"encoding": "inplace",
						"label": "uint256",
						"numberOfBytes": "32"
					}
				}
			},
			"userdoc": {
				"kind": "user",
				"methods": {
					"deposit()": {
						"notice": "Deposit ETH into the escrow. Only owner, only when not already funded."
					},
					"refund()": {
						"notice": "Refund funds back to owner. Only owner."
					},
					"release()": {
						"notice": "Release funds to receiver. Only owner."
					}
				},
				"notice": "Owner deposits ETH, can release to receiver or refund to owner. Single active deposit.",
				"version": 1
			}
		}
	}
}