{
	"Deposit.sol": {
		"EscrowStep1": {
			"abi": [
				{
					"inputs": [
						{
							"internalType": "address payable",
							"name": "_receiver",
							"type": "address"
						}
					],
					"stateMutability": "nonpayable",
					"type": "constructor"
				},
				{
					"anonymous": false,
					"inputs": [
						{
							"indexed": true,
							"internalType": "address",
							"name": "form",
							"type": "address"
						},
						{
							"indexed": false,
							"internalType": "uint256",
							"name": "value",
							"type": "uint256"
						}
					],
					"name": "Deposited",
					"type": "event"
				},
				{
					"inputs": [],
					"name": "amount",
					"outputs": [
						{
							"internalType": "uint256",
							"name": "",
							"type": "uint256"
						}
					],
					"stateMutability": "view",
					"type": "function"
				},
				{
					"inputs": [],
					"name": "deposit",
					"outputs": [],
					"stateMutability": "payable",
					"type": "function"
				},
				{
					"inputs": [],
					"name": "funded",
					"outputs": [
						{
							"internalType": "bool",
							"name": "",
							"type": "bool"
						}
					],
					"stateMutability": "view",
					"type": "function"
				},
				{
					"inputs": [],
					"name": "owner",
					"outputs": [
						{
							"internalType": "address payable",
							"name": "",
							"type": "address"
						}
					],
					"stateMutability": "view",
					"type": "function"
				},
				{
					"inputs": [],
					"name": "receiver",
					"outputs": [
						{
							"internalType": "address payable",
							"name": "",
							"type": "address"
						}
					],
					"stateMutability": "view",
					"type": "function"
				}
			],
			"devdoc": {
				"kind": "dev",
				"methods": {},
				"version": 1
			},
			"evm": {
				"assembly": "    /* \"Deposit.sol\":60:956  contract EscrowStep1 {... */\n  mstore(0x40, 0x80)\n    /* \"Deposit.sol\":484:668  constructor(address payable _receiver) {... */\n  callvalue\n  dup1\n  iszero\n  tag_1\n  jumpi\n  revert(0x00, 0x00)\ntag_1:\n  pop\n  mload(0x40)\n  sub(codesize, bytecodeSize)\n  dup1\n  bytecodeSize\n  dup4\n  codecopy\n  dup2\n  dup2\n  add\n  0x40\n  mstore\n  dup2\n  add\n  swap1\n  tag_2\n  swap2\n  swap1\n  tag_3\n  jump\t// in\ntag_2:\n    /* \"Deposit.sol\":563:564  0 */\n  0x00\n    /* \"Deposit.sol\":542:565  _receiver != address(0) */\n  0xffffffffffffffffffffffffffffffffffffffff\n  and\n    /* \"Deposit.sol\":542:551  _receiver */\n  dup2\n    /* \"Deposit.sol\":542:565  _receiver != address(0) */\n  0xffffffffffffffffffffffffffffffffffffffff\n  and\n  sub\n    /* \"Deposit.sol\":534:586  require(_receiver != address(0), \"Invalid receiver\") */\n  tag_6\n  jumpi\n  mload(0x40)\n  0x08c379a000000000000000000000000000000000000000000000000000000000\n  dup2\n  mstore\n  0x04\n  add\n  tag_7\n  swap1\n  tag_8\n  jump\t// in\ntag_7:\n  mload(0x40)\n  dup1\n  swap2\n  sub\n  swap1\n  revert\ntag_6:\n    /* \"Deposit.sol\":615:625  msg.sender */\n  caller\n    /* \"Deposit.sol\":599:604  owner */\n  0x00\n  0x00\n    /* \"Deposit.sol\":599:626  owner = payable(msg.sender) */\n  0x0100\n  exp\n  dup2\n  sload\n  dup2\n  0xffffffffffffffffffffffffffffffffffffffff\n  mul\n  not\n  and\n  swap1\n  dup4\n  0xffffffffffffffffffffffffffffffffffffffff\n  and\n  mul\n  or\n  swap1\n  sstore\n  pop\n    /* \"Deposit.sol\":484:668  constructor(address payable _receiver) {... */\n  pop\n    /* \"Deposit.sol\":60:956  contract EscrowStep1 {... */\n  jump(tag_9)\n    /* \"#utility.yul\":88:205   */\ntag_11:\n    /* \"#utility.yul\":197:198   */\n  0x00\n    /* \"#utility.yul\":194:195   */\n  0x00\n    /* \"#utility.yul\":187:199   */\n  revert\n    /* \"#utility.yul\":334:460   */\ntag_13:\n    /* \"#utility.yul\":371:378   */\n  0x00\n    /* \"#utility.yul\":411:453   */\n  0xffffffffffffffffffffffffffffffffffffffff\n    /* \"#utility.yul\":404:409   */\n  dup3\n    /* \"#utility.yul\":400:454   */\n  and\n    /* \"#utility.yul\":389:454   */\n  swap1\n  pop\n    /* \"#utility.yul\":334:460   */\n  swap2\n  swap1\n  pop\n  jump\t// out\n    /* \"#utility.yul\":466:570   */\ntag_14:\n    /* \"#utility.yul\":511:518   */\n  0x00\n    /* \"#utility.yul\":540:564   */\n  tag_26\n    /* \"#utility.yul\":558:563   */\n  dup3\n    /* \"#utility.yul\":540:564   */\n  tag_13\n  jump\t// in\ntag_26:\n    /* \"#utility.yul\":529:564   */\n  swap1\n  pop\n    /* \"#utility.yul\":466:570   */\n  swap2\n  swap1\n  pop\n  jump\t// out\n    /* \"#utility.yul\":576:714   */\ntag_15:\n    /* \"#utility.yul\":657:689   */\n  tag_28\n    /* \"#utility.yul\":683:688   */\n  dup2\n    /* \"#utility.yul\":657:689   */\n  tag_14\n  jump\t// in\ntag_28:\n    /* \"#utility.yul\":650:655   */\n  dup2\n    /* \"#utility.yul\":647:690   */\n  eq\n    /* \"#utility.yul\":637:708   */\n  tag_29\n  jumpi\n    /* \"#utility.yul\":704:705   */\n  0x00\n    /* \"#utility.yul\":701:702   */\n  0x00\n    /* \"#utility.yul\":694:706   */\n  revert\n    /* \"#utility.yul\":637:708   */\ntag_29:\n    /* \"#utility.yul\":576:714   */\n  pop\n  jump\t// out\n    /* \"#utility.yul\":720:879   */\ntag_16:\n    /* \"#utility.yul\":785:790   */\n  0x00\n    /* \"#utility.yul\":816:822   */\n  dup2\n    /* \"#utility.yul\":810:823   */\n  mload\n    /* \"#utility.yul\":801:823   */\n  swap1\n  pop\n    /* \"#utility.yul\":832:873   */\n  tag_31\n    /* \"#utility.yul\":867:872   */\n  dup2\n    /* \"#utility.yul\":832:873   */\n  tag_15\n  jump\t// in\ntag_31:\n    /* \"#utility.yul\":720:879   */\n  swap3\n  swap2\n  pop\n  pop\n  jump\t// out\n    /* \"#utility.yul\":885:1252   */\ntag_3:\n    /* \"#utility.yul\":963:969   */\n  0x00\n    /* \"#utility.yul\":1012:1014   */\n  0x20\n    /* \"#utility.yul\":1000:1009   */\n  dup3\n    /* \"#utility.yul\":991:998   */\n  dup5\n    /* \"#utility.yul\":987:1010   */\n  sub\n    /* \"#utility.yul\":983:1015   */\n  slt\n    /* \"#utility.yul\":980:1099   */\n  iszero\n  tag_33\n  jumpi\n    /* \"#utility.yul\":1018:1097   */\n  tag_34\n  tag_11\n  jump\t// in\ntag_34:\n    /* \"#utility.yul\":980:1099   */\ntag_33:\n    /* \"#utility.yul\":1138:1139   */\n  0x00\n    /* \"#utility.yul\":1163:1235   */\n  tag_35\n    /* \"#utility.yul\":1227:1234   */\n  dup5\n    /* \"#utility.yul\":1218:1224   */\n  dup3\n    /* \"#utility.yul\":1207:1216   */\n  dup6\n    /* \"#utility.yul\":1203:1225   */\n  add\n    /* \"#utility.yul\":1163:1235   */\n  tag_16\n  jump\t// in\ntag_35:\n    /* \"#utility.yul\":1153:1235   */\n  swap2\n  pop\n    /* \"#utility.yul\":1109:1245   */\n  pop\n    /* \"#utility.yul\":885:1252   */\n  swap3\n  swap2\n  pop\n  pop\n  jump\t// out\n    /* \"#utility.yul\":1258:1427   */\ntag_17:\n    /* \"#utility.yul\":1342:1353   */\n  0x00\n    /* \"#utility.yul\":1376:1382   */\n  dup3\n    /* \"#utility.yul\":1371:1374   */\n  dup3\n    /* \"#utility.yul\":1364:1383   */\n  mstore\n    /* \"#utility.yul\":1416:1420   */\n  0x20\n    /* \"#utility.yul\":1411:1414   */\n  dup3\n    /* \"#utility.yul\":1407:1421   */\n  add\n    /* \"#utility.yul\":1392:1421   */\n  swap1\n  pop\n    /* \"#utility.yul\":1258:1427   */\n  swap3\n  swap2\n  pop\n  pop\n  jump\t// out\n    /* \"#utility.yul\":1433:1599   */\ntag_18:\n    /* \"#utility.yul\":1573:1591   */\n  0x496e76616c696420726563656976657200000000000000000000000000000000\n    /* \"#utility.yul\":1569:1570   */\n  0x00\n    /* \"#utility.yul\":1561:1567   */\n  dup3\n    /* \"#utility.yul\":1557:1571   */\n  add\n    /* \"#utility.yul\":1550:1592   */\n  mstore\n    /* \"#utility.yul\":1433:1599   */\n  pop\n  jump\t// out\n    /* \"#utility.yul\":1605:1971   */\ntag_19:\n    /* \"#utility.yul\":1747:1750   */\n  0x00\n    /* \"#utility.yul\":1768:1835   */\n  tag_39\n    /* \"#utility.yul\":1832:1834   */\n  0x10\n    /* \"#utility.yul\":1827:1830   */\n  dup4\n    /* \"#utility.yul\":1768:1835   */\n  tag_17\n  jump\t// in\ntag_39:\n    /* \"#utility.yul\":1761:1835   */\n  swap2\n  pop\n    /* \"#utility.yul\":1844:1937   */\n  tag_40\n    /* \"#utility.yul\":1933:1936   */\n  dup3\n    /* \"#utility.yul\":1844:1937   */\n  tag_18\n  jump\t// in\ntag_40:\n    /* \"#utility.yul\":1962:1964   */\n  0x20\n    /* \"#utility.yul\":1957:1960   */\n  dup3\n    /* \"#utility.yul\":1953:1965   */\n  add\n    /* \"#utility.yul\":1946:1965   */\n  swap1\n  pop\n    /* \"#utility.yul\":1605:1971   */\n  swap2\n  swap1\n  pop\n  jump\t// out\n    /* \"#utility.yul\":1977:2396   */\ntag_8:\n    /* \"#utility.yul\":2143:2147   */\n  0x00\n    /* \"#utility.yul\":2181:2183   */\n  0x20\n    /* \"#utility.yul\":2170:2179   */\n  dup3\n    /* \"#utility.yul\":2166:2184   */\n  add\n    /* \"#utility.yul\":2158:2184   */\n  swap1\n  pop\n    /* \"#utility.yul\":2230:2239   */\n  dup2\n    /* \"#utility.yul\":2224:2228   */\n  dup2\n    /* \"#utility.yul\":2220:2240   */\n  sub\n    /* \"#utility.yul\":2216:2217   */\n  0x00\n    /* \"#utility.yul\":2205:2214   */\n  dup4\n    /* \"#utility.yul\":2201:2218   */\n  add\n    /* \"#utility.yul\":2194:2241   */\n  mstore\n    /* \"#utility.yul\":2258:2389   */\n  tag_42\n    /* \"#utility.yul\":2384:2388   */\n  dup2\n    /* \"#utility.yul\":2258:2389   */\n  tag_19\n  jump\t// in\ntag_42:\n    /* \"#utility.yul\":2250:2389   */\n  swap1\n  pop\n    /* \"#utility.yul\":1977:2396   */\n  swap2\n  swap1\n  pop\n  jump\t// out\n    /* \"Deposit.sol\":60:956  contract EscrowStep1 {... */\ntag_9:\n  dataSize(sub_0)\n  dup1\n  dataOffset(sub_0)\n  0x00\n  codecopy\n  0x00\n  return\nstop\n\nsub_0: assembly {\n        /* \"Deposit.sol\":60:956  contract EscrowStep1 {... */\n      mstore(0x40, 0x80)\n      jumpi(tag_1, lt(calldatasize, 0x04))\n      shr(0xe0, calldataload(0x00))\n      dup1\n      0x8da5cb5b\n      eq\n      tag_2\n      jumpi\n      dup1\n      0xaa8c217c\n      eq\n      tag_3\n      jumpi\n      dup1\n      0xd0e30db0\n      eq\n      tag_4\n      jumpi\n      dup1\n      0xf3a504f2\n      eq\n      tag_5\n      jumpi\n      dup1\n      0xf7260d3e\n      eq\n      tag_6\n      jumpi\n    tag_1:\n      revert(0x00, 0x00)\n        /* \"Deposit.sol\":122:150  address payable public owner */\n    tag_2:\n      callvalue\n      dup1\n      iszero\n      tag_7\n      jumpi\n      revert(0x00, 0x00)\n    tag_7:\n      pop\n      tag_8\n      tag_9\n      jump\t// in\n    tag_8:\n      mload(0x40)\n      tag_10\n      swap2\n      swap1\n      tag_11\n      jump\t// in\n    tag_10:\n      mload(0x40)\n      dup1\n      swap2\n      sub\n      swap1\n      return\n        /* \"Deposit.sol\":195:216  uint256 public amount */\n    tag_3:\n      callvalue\n      dup1\n      iszero\n      tag_12\n      jumpi\n      revert(0x00, 0x00)\n    tag_12:\n      pop\n      tag_13\n      tag_14\n      jump\t// in\n    tag_13:\n      mload(0x40)\n      tag_15\n      swap2\n      swap1\n      tag_16\n      jump\t// in\n    tag_15:\n      mload(0x40)\n      dup1\n      swap2\n      sub\n      swap1\n      return\n        /* \"Deposit.sol\":705:953  function deposit() external payable onlyOwner {... */\n    tag_4:\n      tag_17\n      tag_18\n      jump\t// in\n    tag_17:\n      stop\n        /* \"Deposit.sol\":223:241  bool public funded */\n    tag_5:\n      callvalue\n      dup1\n      iszero\n      tag_19\n      jumpi\n      revert(0x00, 0x00)\n    tag_19:\n      pop\n      tag_20\n      tag_21\n      jump\t// in\n    tag_20:\n      mload(0x40)\n      tag_22\n      swap2\n      swap1\n      tag_23\n      jump\t// in\n    tag_22:\n      mload(0x40)\n      dup1\n      swap2\n      sub\n      swap1\n      return\n        /* \"Deposit.sol\":157:188  address payable public receiver */\n    tag_6:\n      callvalue\n      dup1\n      iszero\n      tag_24\n      jumpi\n      revert(0x00, 0x00)\n    tag_24:\n      pop\n      tag_25\n      tag_26\n      jump\t// in\n    tag_25:\n      mload(0x40)\n      tag_27\n      swap2\n      swap1\n      tag_11\n      jump\t// in\n    tag_27:\n      mload(0x40)\n      dup1\n      swap2\n      sub\n      swap1\n      return\n        /* \"Deposit.sol\":122:150  address payable public owner */\n    tag_9:\n      0x00\n      0x00\n      swap1\n      sload\n      swap1\n      0x0100\n      exp\n      swap1\n      div\n      0xffffffffffffffffffffffffffffffffffffffff\n      and\n      dup2\n      jump\t// out\n        /* \"Deposit.sol\":195:216  uint256 public amount */\n    tag_14:\n      sload(0x02)\n      dup2\n      jump\t// out\n        /* \"Deposit.sol\":705:953  function deposit() external payable onlyOwner {... */\n    tag_18:\n        /* \"Deposit.sol\":404:409  owner */\n      0x00\n      0x00\n      swap1\n      sload\n      swap1\n      0x0100\n      exp\n      swap1\n      div\n      0xffffffffffffffffffffffffffffffffffffffff\n      and\n        /* \"Deposit.sol\":390:409  msg.sender == owner */\n      0xffffffffffffffffffffffffffffffffffffffff\n      and\n        /* \"Deposit.sol\":390:400  msg.sender */\n      caller\n        /* \"Deposit.sol\":390:409  msg.sender == owner */\n      0xffffffffffffffffffffffffffffffffffffffff\n      and\n      eq\n        /* \"Deposit.sol\":382:432  require(msg.sender == owner, \"Only owner allowed\") */\n      tag_29\n      jumpi\n      mload(0x40)\n      0x08c379a000000000000000000000000000000000000000000000000000000000\n      dup2\n      mstore\n      0x04\n      add\n      tag_30\n      swap1\n      tag_31\n      jump\t// in\n    tag_30:\n      mload(0x40)\n      dup1\n      swap2\n      sub\n      swap1\n      revert\n    tag_29:\n        /* \"Deposit.sol\":771:777  funded */\n      0x03\n      0x00\n      swap1\n      sload\n      swap1\n      0x0100\n      exp\n      swap1\n      div\n      0xff\n      and\n        /* \"Deposit.sol\":770:777  !funded */\n      iszero\n        /* \"Deposit.sol\":762:795  require(!funded, \"Aleady funded\") */\n      tag_33\n      jumpi\n      mload(0x40)\n      0x08c379a000000000000000000000000000000000000000000000000000000000\n      dup2\n      mstore\n      0x04\n      add\n      tag_34\n      swap1\n      tag_35\n      jump\t// in\n    tag_34:\n      mload(0x40)\n      dup1\n      swap2\n      sub\n      swap1\n      revert\n    tag_33:\n        /* \"Deposit.sol\":826:827  0 */\n      0x00\n        /* \"Deposit.sol\":814:823  msg.value */\n      callvalue\n        /* \"Deposit.sol\":814:827  msg.value > 0 */\n      gt\n        /* \"Deposit.sol\":806:840  require(msg.value > 0, \"Send ETH\") */\n      tag_36\n      jumpi\n      mload(0x40)\n      0x08c379a000000000000000000000000000000000000000000000000000000000\n      dup2\n      mstore\n      0x04\n      add\n      tag_37\n      swap1\n      tag_38\n      jump\t// in\n    tag_37:\n      mload(0x40)\n      dup1\n      swap2\n      sub\n      swap1\n      revert\n    tag_36:\n        /* \"Deposit.sol\":862:871  msg.value */\n      callvalue\n        /* \"Deposit.sol\":853:859  amount */\n      0x02\n        /* \"Deposit.sol\":853:871  amount = msg.value */\n      dup2\n      swap1\n      sstore\n      pop\n        /* \"Deposit.sol\":891:895  true */\n      0x01\n        /* \"Deposit.sol\":882:888  funded */\n      0x03\n      0x00\n        /* \"Deposit.sol\":882:895  funded = true */\n      0x0100\n      exp\n      dup2\n      sload\n      dup2\n      0xff\n      mul\n      not\n      and\n      swap1\n      dup4\n      iszero\n      iszero\n      mul\n      or\n      swap1\n      sstore\n      pop\n        /* \"Deposit.sol\":923:933  msg.sender */\n      caller\n        /* \"Deposit.sol\":913:945  Deposited(msg.sender, msg.value) */\n      0xffffffffffffffffffffffffffffffffffffffff\n      and\n      0x2da466a7b24304f47e87fa2e1e5a81b9831ce54fec19055ce277ca2f39ba42c4\n        /* \"Deposit.sol\":935:944  msg.value */\n      callvalue\n        /* \"Deposit.sol\":913:945  Deposited(msg.sender, msg.value) */\n      mload(0x40)\n      tag_39\n      swap2\n      swap1\n      tag_16\n      jump\t// in\n    tag_39:\n      mload(0x40)\n      dup1\n      swap2\n      sub\n      swap1\n      log2\n        /* \"Deposit.sol\":705:953  function deposit() external payable onlyOwner {... */\n      jump\t// out\n        /* \"Deposit.sol\":223:241  bool public funded */\n    tag_21:\n      0x03\n      0x00\n      swap1\n      sload\n      swap1\n      0x0100\n      exp\n      swap1\n      div\n      0xff\n      and\n      dup2\n      jump\t// out\n        /* \"Deposit.sol\":157:188  address payable public receiver */\n    tag_26:\n      0x01\n      0x00\n      swap1\n      sload\n      swap1\n      0x0100\n      exp\n      swap1\n      div\n      0xffffffffffffffffffffffffffffffffffffffff\n      and\n      dup2\n      jump\t// out\n        /* \"#utility.yul\":7:133   */\n    tag_40:\n        /* \"#utility.yul\":44:51   */\n      0x00\n        /* \"#utility.yul\":84:126   */\n      0xffffffffffffffffffffffffffffffffffffffff\n        /* \"#utility.yul\":77:82   */\n      dup3\n        /* \"#utility.yul\":73:127   */\n      and\n        /* \"#utility.yul\":62:127   */\n      swap1\n      pop\n        /* \"#utility.yul\":7:133   */\n      swap2\n      swap1\n      pop\n      jump\t// out\n        /* \"#utility.yul\":139:243   */\n    tag_41:\n        /* \"#utility.yul\":184:191   */\n      0x00\n        /* \"#utility.yul\":213:237   */\n      tag_57\n        /* \"#utility.yul\":231:236   */\n      dup3\n        /* \"#utility.yul\":213:237   */\n      tag_40\n      jump\t// in\n    tag_57:\n        /* \"#utility.yul\":202:237   */\n      swap1\n      pop\n        /* \"#utility.yul\":139:243   */\n      swap2\n      swap1\n      pop\n      jump\t// out\n        /* \"#utility.yul\":249:391   */\n    tag_42:\n        /* \"#utility.yul\":352:384   */\n      tag_59\n        /* \"#utility.yul\":378:383   */\n      dup2\n        /* \"#utility.yul\":352:384   */\n      tag_41\n      jump\t// in\n    tag_59:\n        /* \"#utility.yul\":347:350   */\n      dup3\n        /* \"#utility.yul\":340:385   */\n      mstore\n        /* \"#utility.yul\":249:391   */\n      pop\n      pop\n      jump\t// out\n        /* \"#utility.yul\":397:651   */\n    tag_11:\n        /* \"#utility.yul\":506:510   */\n      0x00\n        /* \"#utility.yul\":544:546   */\n      0x20\n        /* \"#utility.yul\":533:542   */\n      dup3\n        /* \"#utility.yul\":529:547   */\n      add\n        /* \"#utility.yul\":521:547   */\n      swap1\n      pop\n        /* \"#utility.yul\":557:644   */\n      tag_61\n        /* \"#utility.yul\":641:642   */\n      0x00\n        /* \"#utility.yul\":630:639   */\n      dup4\n        /* \"#utility.yul\":626:643   */\n      add\n        /* \"#utility.yul\":617:623   */\n      dup5\n        /* \"#utility.yul\":557:644   */\n      tag_42\n      jump\t// in\n    tag_61:\n        /* \"#utility.yul\":397:651   */\n      swap3\n      swap2\n      pop\n      pop\n      jump\t// out\n        /* \"#utility.yul\":657:734   */\n    tag_43:\n        /* \"#utility.yul\":694:701   */\n      0x00\n        /* \"#utility.yul\":723:728   */\n      dup2\n        /* \"#utility.yul\":712:728   */\n      swap1\n      pop\n        /* \"#utility.yul\":657:734   */\n      swap2\n      swap1\n      pop\n      jump\t// out\n        /* \"#utility.yul\":740:858   */\n    tag_44:\n        /* \"#utility.yul\":827:851   */\n      tag_64\n        /* \"#utility.yul\":845:850   */\n      dup2\n        /* \"#utility.yul\":827:851   */\n      tag_43\n      jump\t// in\n    tag_64:\n        /* \"#utility.yul\":822:825   */\n      dup3\n        /* \"#utility.yul\":815:852   */\n      mstore\n        /* \"#utility.yul\":740:858   */\n      pop\n      pop\n      jump\t// out\n        /* \"#utility.yul\":864:1086   */\n    tag_16:\n        /* \"#utility.yul\":957:961   */\n      0x00\n        /* \"#utility.yul\":995:997   */\n      0x20\n        /* \"#utility.yul\":984:993   */\n      dup3\n        /* \"#utility.yul\":980:998   */\n      add\n        /* \"#utility.yul\":972:998   */\n      swap1\n      pop\n        /* \"#utility.yul\":1008:1079   */\n      tag_66\n        /* \"#utility.yul\":1076:1077   */\n      0x00\n        /* \"#utility.yul\":1065:1074   */\n      dup4\n        /* \"#utility.yul\":1061:1078   */\n      add\n        /* \"#utility.yul\":1052:1058   */\n      dup5\n        /* \"#utility.yul\":1008:1079   */\n      tag_44\n      jump\t// in\n    tag_66:\n        /* \"#utility.yul\":864:1086   */\n      swap3\n      swap2\n      pop\n      pop\n      jump\t// out\n        /* \"#utility.yul\":1092:1182   */\n    tag_45:\n        /* \"#utility.yul\":1126:1133   */\n      0x00\n        /* \"#utility.yul\":1169:1174   */\n      dup2\n        /* \"#utility.yul\":1162:1175   */\n      iszero\n        /* \"#utility.yul\":1155:1176   */\n      iszero\n        /* \"#utility.yul\":1144:1176   */\n      swap1\n      pop\n        /* \"#utility.yul\":1092:1182   */\n      swap2\n      swap1\n      pop\n      jump\t// out\n        /* \"#utility.yul\":1188:1297   */\n    tag_46:\n        /* \"#utility.yul\":1269:1290   */\n      tag_69\n        /* \"#utility.yul\":1284:1289   */\n      dup2\n        /* \"#utility.yul\":1269:1290   */\n      tag_45\n      jump\t// in\n    tag_69:\n        /* \"#utility.yul\":1264:1267   */\n      dup3\n        /* \"#utility.yul\":1257:1291   */\n      mstore\n        /* \"#utility.yul\":1188:1297   */\n      pop\n      pop\n      jump\t// out\n        /* \"#utility.yul\":1303:1513   */\n    tag_23:\n        /* \"#utility.yul\":1390:1394   */\n      0x00\n        /* \"#utility.yul\":1428:1430   */\n      0x20\n        /* \"#utility.yul\":1417:1426   */\n      dup3\n        /* \"#utility.yul\":1413:1431   */\n      add\n        /* \"#utility.yul\":1405:1431   */\n      swap1\n      pop\n        /* \"#utility.yul\":1441:1506   */\n      tag_71\n        /* \"#utility.yul\":1503:1504   */\n      0x00\n        /* \"#utility.yul\":1492:1501   */\n      dup4\n        /* \"#utility.yul\":1488:1505   */\n      add\n        /* \"#utility.yul\":1479:1485   */\n      dup5\n        /* \"#utility.yul\":1441:1506   */\n      tag_46\n      jump\t// in\n    tag_71:\n        /* \"#utility.yul\":1303:1513   */\n      swap3\n      swap2\n      pop\n      pop\n      jump\t// out\n        /* \"#utility.yul\":1519:1688   */\n    tag_47:\n        /* \"#utility.yul\":1603:1614   */\n      0x00\n        /* \"#utility.yul\":1637:1643   */\n      dup3\n        /* \"#utility.yul\":1632:1635   */\n      dup3\n        /* \"#utility.yul\":1625:1644   */\n      mstore\n        /* \"#utility.yul\":1677:1681   */\n      0x20\n        /* \"#utility.yul\":1672:1675   */\n      dup3\n        /* \"#utility.yul\":1668:1682   */\n      add\n        /* \"#utility.yul\":1653:1682   */\n      swap1\n      pop\n        /* \"#utility.yul\":1519:1688   */\n      swap3\n      swap2\n      pop\n      pop\n      jump\t// out\n        /* \"#utility.yul\":1694:1862   */\n    tag_48:\n        /* \"#utility.yul\":1834:1854   */\n      0x4f6e6c79206f776e657220616c6c6f7765640000000000000000000000000000\n        /* \"#utility.yul\":1830:1831   */\n      0x00\n        /* \"#utility.yul\":1822:1828   */\n      dup3\n        /* \"#utility.yul\":1818:1832   */\n      add\n        /* \"#utility.yul\":1811:1855   */\n      mstore\n        /* \"#utility.yul\":1694:1862   */\n      pop\n      jump\t// out\n        /* \"#utility.yul\":1868:2234   */\n    tag_49:\n        /* \"#utility.yul\":2010:2013   */\n      0x00\n        /* \"#utility.yul\":2031:2098   */\n      tag_75\n        /* \"#utility.yul\":2095:2097   */\n      0x12\n        /* \"#utility.yul\":2090:2093   */\n      dup4\n        /* \"#utility.yul\":2031:2098   */\n      tag_47\n      jump\t// in\n    tag_75:\n        /* \"#utility.yul\":2024:2098   */\n      swap2\n      pop\n        /* \"#utility.yul\":2107:2200   */\n      tag_76\n        /* \"#utility.yul\":2196:2199   */\n      dup3\n        /* \"#utility.yul\":2107:2200   */\n      tag_48\n      jump\t// in\n    tag_76:\n        /* \"#utility.yul\":2225:2227   */\n      0x20\n        /* \"#utility.yul\":2220:2223   */\n      dup3\n        /* \"#utility.yul\":2216:2228   */\n      add\n        /* \"#utility.yul\":2209:2228   */\n      swap1\n      pop\n        /* \"#utility.yul\":1868:2234   */\n      swap2\n      swap1\n      pop\n      jump\t// out\n        /* \"#utility.yul\":2240:2659   */\n    tag_31:\n        /* \"#utility.yul\":2406:2410   */\n      0x00\n        /* \"#utility.yul\":2444:2446   */\n      0x20\n        /* \"#utility.yul\":2433:2442   */\n      dup3\n        /* \"#utility.yul\":2429:2447   */\n      add\n        /* \"#utility.yul\":2421:2447   */\n      swap1\n      pop\n        /* \"#utility.yul\":2493:2502   */\n      dup2\n        /* \"#utility.yul\":2487:2491   */\n      dup2\n        /* \"#utility.yul\":2483:2503   */\n      sub\n        /* \"#utility.yul\":2479:2480   */\n      0x00\n        /* \"#utility.yul\":2468:2477   */\n      dup4\n        /* \"#utility.yul\":2464:2481   */\n      add\n        /* \"#utility.yul\":2457:2504   */\n      mstore\n        /* \"#utility.yul\":2521:2652   */\n      tag_78\n        /* \"#utility.yul\":2647:2651   */\n      dup2\n        /* \"#utility.yul\":2521:2652   */\n      tag_49\n      jump\t// in\n    tag_78:\n        /* \"#utility.yul\":2513:2652   */\n      swap1\n      pop\n        /* \"#utility.yul\":2240:2659   */\n      swap2\n      swap1\n      pop\n      jump\t// out\n        /* \"#utility.yul\":2665:2828   */\n    tag_50:\n        /* \"#utility.yul\":2805:2820   */\n      0x416c656164792066756e64656400000000000000000000000000000000000000\n        /* \"#utility.yul\":2801:2802   */\n      0x00\n        /* \"#utility.yul\":2793:2799   */\n      dup3\n        /* \"#utility.yul\":2789:2803   */\n      add\n        /* \"#utility.yul\":2782:2821   */\n      mstore\n        /* \"#utility.yul\":2665:2828   */\n      pop\n      jump\t// out\n        /* \"#utility.yul\":2834:3200   */\n    tag_51:\n        /* \"#utility.yul\":2976:2979   */\n      0x00\n        /* \"#utility.yul\":2997:3064   */\n      tag_81\n        /* \"#utility.yul\":3061:3063   */\n      0x0d\n        /* \"#utility.yul\":3056:3059   */\n      dup4\n        /* \"#utility.yul\":2997:3064   */\n      tag_47\n      jump\t// in\n    tag_81:\n        /* \"#utility.yul\":2990:3064   */\n      swap2\n      pop\n        /* \"#utility.yul\":3073:3166   */\n      tag_82\n        /* \"#utility.yul\":3162:3165   */\n      dup3\n        /* \"#utility.yul\":3073:3166   */\n      tag_50\n      jump\t// in\n    tag_82:\n        /* \"#utility.yul\":3191:3193   */\n      0x20\n        /* \"#utility.yul\":3186:3189   */\n      dup3\n        /* \"#utility.yul\":3182:3194   */\n      add\n        /* \"#utility.yul\":3175:3194   */\n      swap1\n      pop\n        /* \"#utility.yul\":2834:3200   */\n      swap2\n      swap1\n      pop\n      jump\t// out\n        /* \"#utility.yul\":3206:3625   */\n    tag_35:\n        /* \"#utility.yul\":3372:3376   */\n      0x00\n        /* \"#utility.yul\":3410:3412   */\n      0x20\n        /* \"#utility.yul\":3399:3408   */\n      dup3\n        /* \"#utility.yul\":3395:3413   */\n      add\n        /* \"#utility.yul\":3387:3413   */\n      swap1\n      pop\n        /* \"#utility.yul\":3459:3468   */\n      dup2\n        /* \"#utility.yul\":3453:3457   */\n      dup2\n        /* \"#utility.yul\":3449:3469   */\n      sub\n        /* \"#utility.yul\":3445:3446   */\n      0x00\n        /* \"#utility.yul\":3434:3443   */\n      dup4\n        /* \"#utility.yul\":3430:3447   */\n      add\n        /* \"#utility.yul\":3423:3470   */\n      mstore\n        /* \"#utility.yul\":3487:3618   */\n      tag_84\n        /* \"#utility.yul\":3613:3617   */\n      dup2\n        /* \"#utility.yul\":3487:3618   */\n      tag_51\n      jump\t// in\n    tag_84:\n        /* \"#utility.yul\":3479:3618   */\n      swap1\n      pop\n        /* \"#utility.yul\":3206:3625   */\n      swap2\n      swap1\n      pop\n      jump\t// out\n        /* \"#utility.yul\":3631:3789   */\n    tag_52:\n        /* \"#utility.yul\":3771:3781   */\n      0x53656e6420455448000000000000000000000000000000000000000000000000\n        /* \"#utility.yul\":3767:3768   */\n      0x00\n        /* \"#utility.yul\":3759:3765   */\n      dup3\n        /* \"#utility.yul\":3755:3769   */\n      add\n        /* \"#utility.yul\":3748:3782   */\n      mstore\n        /* \"#utility.yul\":3631:3789   */\n      pop\n      jump\t// out\n        /* \"#utility.yul\":3795:4160   */\n    tag_53:\n        /* \"#utility.yul\":3937:3940   */\n      0x00\n        /* \"#utility.yul\":3958:4024   */\n      tag_87\n        /* \"#utility.yul\":4022:4023   */\n      0x08\n        /* \"#utility.yul\":4017:4020   */\n      dup4\n        /* \"#utility.yul\":3958:4024   */\n      tag_47\n      jump\t// in\n    tag_87:\n        /* \"#utility.yul\":3951:4024   */\n      swap2\n      pop\n        /* \"#utility.yul\":4033:4126   */\n      tag_88\n        /* \"#utility.yul\":4122:4125   */\n      dup3\n        /* \"#utility.yul\":4033:4126   */\n      tag_52\n      jump\t// in\n    tag_88:\n        /* \"#utility.yul\":4151:4153   */\n      0x20\n        /* \"#utility.yul\":4146:4149   */\n      dup3\n        /* \"#utility.yul\":4142:4154   */\n      add\n        /* \"#utility.yul\":4135:4154   */\n      swap1\n      pop\n        /* \"#utility.yul\":3795:4160   */\n      swap2\n      swap1\n      pop\n      jump\t// out\n        /* \"#utility.yul\":4166:4585   */\n    tag_38:\n        /* \"#utility.yul\":4332:4336   */\n      0x00\n        /* \"#utility.yul\":4370:4372   */\n      0x20\n        /* \"#utility.yul\":4359:4368   */\n      dup3\n        /* \"#utility.yul\":4355:4373   */\n      add\n        /* \"#utility.yul\":4347:4373   */\n      swap1\n      pop\n        /* \"#utility.yul\":4419:4428   */\n      dup2\n        /* \"#utility.yul\":4413:4417   */\n      dup2\n        /* \"#utility.yul\":4409:4429   */\n      sub\n        /* \"#utility.yul\":4405:4406   */\n      0x00\n        /* \"#utility.yul\":4394:4403   */\n      dup4\n        /* \"#utility.yul\":4390:4407   */\n      add\n        /* \"#utility.yul\":4383:4430   */\n      mstore\n        /* \"#utility.yul\":4447:4578   */\n      tag_90\n        /* \"#utility.yul\":4573:4577   */\n      dup2\n        /* \"#utility.yul\":4447:4578   */\n      tag_53\n      jump\t// in\n    tag_90:\n        /* \"#utility.yul\":4439:4578   */\n      swap1\n      pop\n        /* \"#utility.yul\":4166:4585   */\n      swap2\n      swap1\n      pop\n      jump\t// out\n\n    auxdata: 0xa2646970667358221220979c93b7052b8bf3f7679ba71c5882752994845e4d1ca8d6d38236fc1024f45564736f6c634300081e0033\n}\n",
				"bytecode": {
					"linkReferences": {},
					"object": "608060405234801561000f575f5ffd5b5060405161071c38038061071c83398181016040528101906100319190610142565b5f73ffffffffffffffffffffffffffffffffffffffff168173ffffffffffffffffffffffffffffffffffffffff160361009f576040517f08c379a0000000000000000000000000000000000000000000000000000000008152600401610096906101c7565b60405180910390fd5b335f5f6101000a81548173ffffffffffffffffffffffffffffffffffffffff021916908373ffffffffffffffffffffffffffffffffffffffff160217905550506101e5565b5f5ffd5b5f73ffffffffffffffffffffffffffffffffffffffff82169050919050565b5f610111826100e8565b9050919050565b61012181610107565b811461012b575f5ffd5b50565b5f8151905061013c81610118565b92915050565b5f60208284031215610157576101566100e4565b5b5f6101648482850161012e565b91505092915050565b5f82825260208201905092915050565b7f496e76616c6964207265636569766572000000000000000000000000000000005f82015250565b5f6101b160108361016d565b91506101bc8261017d565b602082019050919050565b5f6020820190508181035f8301526101de816101a5565b9050919050565b61052a806101f25f395ff3fe608060405260043610610049575f3560e01c80638da5cb5b1461004d578063aa8c217c14610077578063d0e30db0146100a1578063f3a504f2146100ab578063f7260d3e146100d5575b5f5ffd5b348015610058575f5ffd5b506100616100ff565b60405161006e919061032f565b60405180910390f35b348015610082575f5ffd5b5061008b610123565b6040516100989190610360565b60405180910390f35b6100a9610129565b005b3480156100b6575f5ffd5b506100bf6102b9565b6040516100cc9190610393565b60405180910390f35b3480156100e0575f5ffd5b506100e96102cb565b6040516100f6919061032f565b60405180910390f35b5f5f9054906101000a900473ffffffffffffffffffffffffffffffffffffffff1681565b60025481565b5f5f9054906101000a900473ffffffffffffffffffffffffffffffffffffffff1673ffffffffffffffffffffffffffffffffffffffff163373ffffffffffffffffffffffffffffffffffffffff16146101b7576040517f08c379a00000000000000000000000000000000000000000000000000000000081526004016101ae90610406565b60405180910390fd5b60035f9054906101000a900460ff1615610206576040517f08c379a00000000000000000000000000000000000000000000000000000000081526004016101fd9061046e565b60405180910390fd5b5f3411610248576040517f08c379a000000000000000000000000000000000000000000000000000000000815260040161023f906104d6565b60405180910390fd5b34600281905550600160035f6101000a81548160ff0219169083151502179055503373ffffffffffffffffffffffffffffffffffffffff167f2da466a7b24304f47e87fa2e1e5a81b9831ce54fec19055ce277ca2f39ba42c4346040516102af9190610360565b60405180910390a2565b60035f9054906101000a900460ff1681565b60015f9054906101000a900473ffffffffffffffffffffffffffffffffffffffff1681565b5f73ffffffffffffffffffffffffffffffffffffffff82169050919050565b5f610319826102f0565b9050919050565b6103298161030f565b82525050565b5f6020820190506103425f830184610320565b92915050565b5f819050919050565b61035a81610348565b82525050565b5f6020820190506103735f830184610351565b92915050565b5f8115159050919050565b61038d81610379565b82525050565b5f6020820190506103a65f830184610384565b92915050565b5f82825260208201905092915050565b7f4f6e6c79206f776e657220616c6c6f77656400000000000000000000000000005f82015250565b5f6103f06012836103ac565b91506103fb826103bc565b602082019050919050565b5f6020820190508181035f83015261041d816103e4565b9050919050565b7f416c656164792066756e646564000000000000000000000000000000000000005f82015250565b5f610458600d836103ac565b915061046382610424565b602082019050919050565b5f6020820190508181035f8301526104858161044c565b9050919050565b7f53656e64204554480000000000000000000000000000000000000000000000005f82015250565b5f6104c06008836103ac565b91506104cb8261048c565b602082019050919050565b5f6020820190508181035f8301526104ed816104b4565b905091905056fea2646970667358221220979c93b7052b8bf3f7679ba71c5882752994845e4d1ca8d6d38236fc1024f45564736f6c634300081e0033",
					"opcodes": "PUSH1 0x80 PUSH1 0x40 MSTORE CALLVALUE DUP1 ISZERO PUSH2 0xF JUMPI PUSH0 PUSH0 REVERT JUMPDEST POP PUSH1 0x40 MLOAD PUSH2 0x71C CODESIZE SUB DUP1 PUSH2 0x71C DUP4 CODECOPY DUP2 DUP2 ADD PUSH1 0x40 MSTORE DUP2 ADD SWAP1 PUSH2 0x31 SWAP2 SWAP1 PUSH2 0x142 JUMP JUMPDEST PUSH0 PUSH20 0xFFFFFFFFFFFFFFFFFFFFFFFFFFFFFFFFFFFFFFFF AND DUP2 PUSH20 0xFFFFFFFFFFFFFFFFFFFFFFFFFFFFFFFFFFFFFFFF AND SUB PUSH2 0x9F JUMPI PUSH1 0x40 MLOAD PUSH32 0x8C379A000000000000000000000000000000000000000000000000000000000 DUP2 MSTORE PUSH1 0x4 ADD PUSH2 0x96 SWAP1 PUSH2 0x1C7 JUMP JUMPDEST PUSH1 0x40 MLOAD DUP1 SWAP2 SUB SWAP1 REVERT JUMPDEST CALLER PUSH0 PUSH0 PUSH2 0x100 EXP DUP2 SLOAD DUP2 PUSH20 0xFFFFFFFFFFFFFFFFFFFFFFFFFFFFFFFFFFFFFFFF MUL NOT AND SWAP1 DUP4 PUSH20 0xFFFFFFFFFFFFFFFFFFFFFFFFFFFFFFFFFFFFFFFF AND MUL OR SWAP1 SSTORE POP POP PUSH2 0x1E5 JUMP JUMPDEST PUSH0 PUSH0 REVERT JUMPDEST PUSH0 PUSH20 0xFFFFFFFFFFFFFFFFFFFFFFFFFFFFFFFFFFFFFFFF DUP3 AND SWAP1 POP SWAP2 SWAP1 POP JUMP JUMPDEST PUSH0 PUSH2 0x111 DUP3 PUSH2 0xE8 JUMP JUMPDEST SWAP1 POP SWAP2 SWAP1 POP JUMP JUMPDEST PUSH2 0x121 DUP2 PUSH2 0x107 JUMP JUMPDEST DUP2 EQ PUSH2 0x12B JUMPI PUSH0 PUSH0 REVERT JUMPDEST POP JUMP JUMPDEST PUSH0 DUP2 MLOAD SWAP1 POP PUSH2 0x13C DUP2 PUSH2 0x118 JUMP JUMPDEST SWAP3 SWAP2 POP POP JUMP JUMPDEST PUSH0 PUSH1 0x20 DUP3 DUP5 SUB SLT ISZERO PUSH2 0x157 JUMPI PUSH2 0x156 PUSH2 0xE4 JUMP JUMPDEST JUMPDEST PUSH0 PUSH2 0x164 DUP5 DUP3 DUP6 ADD PUSH2 0x12E JUMP JUMPDEST SWAP2 POP POP SWAP3 SWAP2 POP POP JUMP JUMPDEST PUSH0 DUP3 DUP3 MSTORE PUSH1 0x20 DUP3 ADD SWAP1 POP SWAP3 SWAP2 POP POP JUMP JUMPDEST PUSH32 0x496E76616C696420726563656976657200000000000000000000000000000000 PUSH0 DUP3 ADD MSTORE POP JUMP JUMPDEST PUSH0 PUSH2 0x1B1 PUSH1 0x10 DUP4 PUSH2 0x16D JUMP JUMPDEST SWAP2 POP PUSH2 0x1BC DUP3 PUSH2 0x17D JUMP JUMPDEST PUSH1 0x20 DUP3 ADD SWAP1 POP SWAP2 SWAP1 POP JUMP JUMPDEST PUSH0 PUSH1 0x20 DUP3 ADD SWAP1 POP DUP2 DUP2 SUB PUSH0 DUP4 ADD MSTORE PUSH2 0x1DE DUP2 PUSH2 0x1A5 JUMP JUMPDEST SWAP1 POP SWAP2 SWAP1 POP JUMP JUMPDEST PUSH2 0x52A DUP1 PUSH2 0x1F2 PUSH0 CODECOPY PUSH0 RETURN INVALID PUSH1 0x80 PUSH1 0x40 MSTORE PUSH1 0x4 CALLDATASIZE LT PUSH2 0x49 JUMPI PUSH0 CALLDATALOAD PUSH1 0xE0 SHR DUP1 PUSH4 0x8DA5CB5B EQ PUSH2 0x4D JUMPI DUP1 PUSH4 0xAA8C217C EQ PUSH2 0x77 JUMPI DUP1 PUSH4 0xD0E30DB0 EQ PUSH2 0xA1 JUMPI DUP1 PUSH4 0xF3A504F2 EQ PUSH2 0xAB JUMPI DUP1 PUSH4 0xF7260D3E EQ PUSH2 0xD5 JUMPI JUMPDEST PUSH0 PUSH0 REVERT JUMPDEST CALLVALUE DUP1 ISZERO PUSH2 0x58 JUMPI PUSH0 PUSH0 REVERT JUMPDEST POP PUSH2 0x61 PUSH2 0xFF JUMP JUMPDEST PUSH1 0x40 MLOAD PUSH2 0x6E SWAP2 SWAP1 PUSH2 0x32F JUMP JUMPDEST PUSH1 0x40 MLOAD DUP1 SWAP2 SUB SWAP1 RETURN JUMPDEST CALLVALUE DUP1 ISZERO PUSH2 0x82 JUMPI PUSH0 PUSH0 REVERT JUMPDEST POP PUSH2 0x8B PUSH2 0x123 JUMP JUMPDEST PUSH1 0x40 MLOAD PUSH2 0x98 SWAP2 SWAP1 PUSH2 0x360 JUMP JUMPDEST PUSH1 0x40 MLOAD DUP1 SWAP2 SUB SWAP1 RETURN JUMPDEST PUSH2 0xA9 PUSH2 0x129 JUMP JUMPDEST STOP JUMPDEST CALLVALUE DUP1 ISZERO PUSH2 0xB6 JUMPI PUSH0 PUSH0 REVERT JUMPDEST POP PUSH2 0xBF PUSH2 0x2B9 JUMP JUMPDEST PUSH1 0x40 MLOAD PUSH2 0xCC SWAP2 SWAP1 PUSH2 0x393 JUMP JUMPDEST PUSH1 0x40 MLOAD DUP1 SWAP2 SUB SWAP1 RETURN JUMPDEST CALLVALUE DUP1 ISZERO PUSH2 0xE0 JUMPI PUSH0 PUSH0 REVERT JUMPDEST POP PUSH2 0xE9 PUSH2 0x2CB JUMP JUMPDEST PUSH1 0x40 MLOAD PUSH2 0xF6 SWAP2 SWAP1 PUSH2 0x32F JUMP JUMPDEST PUSH1 0x40 MLOAD DUP1 SWAP2 SUB SWAP1 RETURN JUMPDEST PUSH0 PUSH0 SWAP1 SLOAD SWAP1 PUSH2 0x100 EXP SWAP1 DIV PUSH20 0xFFFFFFFFFFFFFFFFFFFFFFFFFFFFFFFFFFFFFFFF AND DUP2 JUMP JUMPDEST PUSH1 0x2 SLOAD DUP2 JUMP JUMPDEST PUSH0 PUSH0 SWAP1 SLOAD SWAP1 PUSH2 0x100 EXP SWAP1 DIV PUSH20 0xFFFFFFFFFFFFFFFFFFFFFFFFFFFFFFFFFFFFFFFF AND PUSH20 0xFFFFFFFFFFFFFFFFFFFFFFFFFFFFFFFFFFFFFFFF AND CALLER PUSH20 0xFFFFFFFFFFFFFFFFFFFFFFFFFFFFFFFFFFFFFFFF AND EQ PUSH2 0x1B7 JUMPI PUSH1 0x40 MLOAD PUSH32 0x8C379A000000000000000000000000000000000000000000000000000000000 DUP2 MSTORE PUSH1 0x4 ADD PUSH2 0x1AE SWAP1 PUSH2 0x406 JUMP JUMPDEST PUSH1 0x40 MLOAD DUP1 SWAP2 SUB SWAP1 REVERT JUMPDEST PUSH1 0x3 PUSH0 SWAP1 SLOAD SWAP1 PUSH2 0x100 EXP SWAP1 DIV PUSH1 0xFF AND ISZERO PUSH2 0x206 JUMPI PUSH1 0x40 MLOAD PUSH32 0x8C379A000000000000000000000000000000000000000000000000000000000 DUP2 MSTORE PUSH1 0x4 ADD PUSH2 0x1FD SWAP1 PUSH2 0x46E JUMP JUMPDEST PUSH1 0x40 MLOAD DUP1 SWAP2 SUB SWAP1 REVERT JUMPDEST PUSH0 CALLVALUE GT PUSH2 0x248 JUMPI PUSH1 0x40 MLOAD PUSH32 0x8C379A000000000000000000000000000000000000000000000000000000000 DUP2 MSTORE PUSH1 0x4 ADD PUSH2 0x23F SWAP1 PUSH2 0x4D6 JUMP JUMPDEST PUSH1 0x40 MLOAD DUP1 SWAP2 SUB SWAP1 REVERT JUMPDEST CALLVALUE PUSH1 0x2 DUP2 SWAP1 SSTORE POP PUSH1 0x1 PUSH1 0x3 PUSH0 PUSH2 0x100 EXP DUP2 SLOAD DUP2 PUSH1 0xFF MUL NOT AND SWAP1 DUP4 ISZERO ISZERO MUL OR SWAP1 SSTORE POP CALLER PUSH20 0xFFFFFFFFFFFFFFFFFFFFFFFFFFFFFFFFFFFFFFFF AND PUSH32 0x2DA466A7B24304F47E87FA2E1E5A81B9831CE54FEC19055CE277CA2F39BA42C4 CALLVALUE PUSH1 0x40 MLOAD PUSH2 0x2AF SWAP2 SWAP1 PUSH2 0x360 JUMP JUMPDEST PUSH1 0x40 MLOAD DUP1 SWAP2 SUB SWAP1 LOG2 JUMP JUMPDEST PUSH1 0x3 PUSH0 SWAP1 SLOAD SWAP1 PUSH2 0x100 EXP SWAP1 DIV PUSH1 0xFF AND DUP2 JUMP JUMPDEST PUSH1 0x1 PUSH0 SWAP1 SLOAD SWAP1 PUSH2 0x100 EXP SWAP1 DIV PUSH20 0xFFFFFFFFFFFFFFFFFFFFFFFFFFFFFFFFFFFFFFFF AND DUP2 JUMP JUMPDEST PUSH0 PUSH20 0xFFFFFFFFFFFFFFFFFFFFFFFFFFFFFFFFFFFFFFFF DUP3 AND SWAP1 POP SWAP2 SWAP1 POP JUMP JUMPDEST PUSH0 PUSH2 0x319 DUP3 PUSH2 0x2F0 JUMP JUMPDEST SWAP1 POP SWAP2 SWAP1 POP JUMP JUMPDEST PUSH2 0x329 DUP2 PUSH2 0x30F JUMP JUMPDEST DUP3 MSTORE POP POP JUMP JUMPDEST PUSH0 PUSH1 0x20 DUP3 ADD SWAP1 POP PUSH2 0x342 PUSH0 DUP4 ADD DUP5 PUSH2 0x320 JUMP JUMPDEST SWAP3 SWAP2 POP POP JUMP JUMPDEST PUSH0 DUP2 SWAP1 POP SWAP2 SWAP1 POP JUMP JUMPDEST PUSH2 0x35A DUP2 PUSH2 0x348 JUMP JUMPDEST DUP3 MSTORE POP POP JUMP JUMPDEST PUSH0 PUSH1 0x20 DUP3 ADD SWAP1 POP PUSH2 0x373 PUSH0 DUP4 ADD DUP5 PUSH2 0x351 JUMP JUMPDEST SWAP3 SWAP2 POP POP JUMP JUMPDEST PUSH0 DUP2 ISZERO ISZERO SWAP1 POP SWAP2 SWAP1 POP JUMP JUMPDEST PUSH2 0x38D DUP2 PUSH2 0x379 JUMP JUMPDEST DUP3 MSTORE POP POP JUMP JUMPDEST PUSH0 PUSH1 0x20 DUP3 ADD SWAP1 POP PUSH2 0x3A6 PUSH0 DUP4 ADD DUP5 PUSH2 0x384 JUMP JUMPDEST SWAP3 SWAP2 POP POP JUMP JUMPDEST PUSH0 DUP3 DUP3 MSTORE PUSH1 0x20 DUP3 ADD SWAP1 POP SWAP3 SWAP2 POP POP JUMP JUMPDEST PUSH32 0x4F6E6C79206F776E657220616C6C6F7765640000000000000000000000000000 PUSH0 DUP3 ADD MSTORE POP JUMP JUMPDEST PUSH0 PUSH2 0x3F0 PUSH1 0x12 DUP4 PUSH2 0x3AC JUMP JUMPDEST SWAP2 POP PUSH2 0x3FB DUP3 PUSH2 0x3BC JUMP JUMPDEST PUSH1 0x20 DUP3 ADD SWAP1 POP SWAP2 SWAP1 POP JUMP JUMPDEST PUSH0 PUSH1 0x20 DUP3 ADD SWAP1 POP DUP2 DUP2 SUB PUSH0 DUP4 ADD MSTORE PUSH2 0x41D DUP2 PUSH2 0x3E4 JUMP JUMPDEST SWAP1 POP SWAP2 SWAP1 POP JUMP JUMPDEST PUSH32 0x416C656164792066756E64656400000000000000000000000000000000000000 PUSH0 DUP3 ADD MSTORE POP JUMP JUMPDEST PUSH0 PUSH2 0x458 PUSH1 0xD DUP4 PUSH2 0x3AC JUMP JUMPDEST SWAP2 POP PUSH2 0x463 DUP3 PUSH2 0x424 JUMP JUMPDEST PUSH1 0x20 DUP3 ADD SWAP1 POP SWAP2 SWAP1 POP JUMP JUMPDEST PUSH0 PUSH1 0x20 DUP3 ADD SWAP1 POP DUP2 DUP2 SUB PUSH0 DUP4 ADD MSTORE PUSH2 0x485 DUP2 PUSH2 0x44C JUMP JUMPDEST SWAP1 POP SWAP2 SWAP1 POP JUMP JUMPDEST PUSH32 0x53656E6420455448000000000000000000000000000000000000000000000000 PUSH0 DUP3 ADD MSTORE POP JUMP JUMPDEST PUSH0 PUSH2 0x4C0 PUSH1 0x8 DUP4 PUSH2 0x3AC JUMP JUMPDEST SWAP2 POP PUSH2 0x4CB DUP3 PUSH2 0x48C JUMP JUMPDEST PUSH1 0x20 DUP3 ADD SWAP1 POP SWAP2 SWAP1 POP JUMP JUMPDEST PUSH0 PUSH1 0x20 DUP3 ADD SWAP1 POP DUP2 DUP2 SUB PUSH0 DUP4 ADD MSTORE PUSH2 0x4ED DUP2 PUSH2 0x4B4 JUMP JUMPDEST SWAP1 POP SWAP2 SWAP1 POP JUMP INVALID LOG2 PUSH5 0x6970667358 0x22 SLT KECCAK256 SWAP8 SWAP13 SWAP4 0xB7 SDIV 0x2B DUP12 RETURN 0xF7 PUSH8 0x9BA71C5882752994 DUP5 MCOPY 0x4D SHR 0xA8 0xD6 0xD3 DUP3 CALLDATASIZE 0xFC LT 0x24 DELEGATECALL SSTORE PUSH5 0x736F6C6343 STOP ADDMOD 0x1E STOP CALLER "
				},
				"gasEstimates": {
					"creation": {
						"codeDepositCost": "264400",
						"executionCost": "infinite",
						"totalCost": "infinite"
					},
					"external": {
						"amount()": "2425",
						"deposit()": "52434",
						"funded()": "2510",
						"owner()": "2485",
						"receiver()": "2574"
					}
				},
				"methodIdentifiers": {
					"amount()": "aa8c217c",
					"deposit()": "d0e30db0",
					"funded()": "f3a504f2",
					"owner()": "8da5cb5b",
					"receiver()": "f7260d3e"
				}
			},
			"storageLayout": {
				"storage": [
					{
						"astId": 3,
						"contract": "Deposit.sol:EscrowStep1",
						"label": "owner",
						"offset": 0,
						"slot": "0",
						"type": "t_address_payable"
					},
					{
						"astId": 5,
						"contract": "Deposit.sol:EscrowStep1",
						"label": "receiver",
						"offset": 0,
						"slot": "1",
						"type": "t_address_payable"
					},
					{
						"astId": 7,
						"contract": "Deposit.sol:EscrowStep1",
						"label": "amount",
						"offset": 0,
						"slot": "2",
						"type": "t_uint256"
					},
					{
						"astId": 9,
						"contract": "Deposit.sol:EscrowStep1",
						"label": "funded",
						"offset": 0,
						"slot": "3",
						"type": "t_bool"
					}
				],
				"types": {
					"t_address_payable": {
						"encoding": "inplace",
						"label": "address payable",
						"numberOfBytes": "20"
					},
					"t_bool": {
						"encoding": "inplace",
						"label": "bool",
						"numberOfBytes": "1"
					},
					"t_uint256": {
						"encoding": "inplace",
						"label": "uint256",
						"numberOfBytes": "32"
					}
				}
			},
			"userdoc": {
				"kind": "user",
				"methods": {},
				"version": 1
			}
		}
	}
}